{
  "_format": "hh-sol-artifact-1",
  "contractName": "Governance",
  "sourceName": "contracts/Governance.sol",
  "abi": [
    {
      "inputs": [
        {
          "internalType": "address[]",
          "name": "path",
          "type": "address[]"
        },
        {
          "internalType": "uint256",
          "name": "amount",
          "type": "uint256"
        }
      ],
      "name": "InSufficientOutputAmount",
      "type": "error"
    },
    {
      "inputs": [],
      "name": "InvalidInitialization",
      "type": "error"
    },
    {
      "inputs": [
        {
          "internalType": "address[]",
          "name": "path",
          "type": "address[]"
        }
      ],
      "name": "InvalidPath",
      "type": "error"
    },
    {
      "inputs": [
        {
          "components": [
            {
              "internalType": "address",
              "name": "token",
              "type": "address"
            },
            {
              "internalType": "uint256",
              "name": "amount",
              "type": "uint256"
            },
            {
              "internalType": "uint256",
              "name": "nonce",
              "type": "uint256"
            }
          ],
          "internalType": "struct TokenPayment",
          "name": "payment",
          "type": "tuple"
        },
        {
          "internalType": "uint256",
          "name": "value",
          "type": "uint256"
        }
      ],
      "name": "InvalidPayment",
      "type": "error"
    },
    {
      "inputs": [],
      "name": "NotInitializing",
      "type": "error"
    },
    {
      "inputs": [
        {
          "internalType": "address",
          "name": "owner",
          "type": "address"
        }
      ],
      "name": "OwnableInvalidOwner",
      "type": "error"
    },
    {
      "inputs": [
        {
          "internalType": "address",
          "name": "account",
          "type": "address"
        }
      ],
      "name": "OwnableUnauthorizedAccount",
      "type": "error"
    },
    {
      "anonymous": false,
      "inputs": [
        {
          "indexed": false,
          "internalType": "uint64",
          "name": "version",
          "type": "uint64"
        }
      ],
      "name": "Initialized",
      "type": "event"
    },
    {
      "anonymous": false,
      "inputs": [
        {
          "indexed": true,
          "internalType": "address",
          "name": "previousOwner",
          "type": "address"
        },
        {
          "indexed": true,
          "internalType": "address",
          "name": "newOwner",
          "type": "address"
        }
      ],
      "name": "OwnershipTransferred",
      "type": "event"
    },
    {
      "inputs": [
        {
          "internalType": "uint256",
          "name": "nonce",
          "type": "uint256"
        }
      ],
      "name": "claimReward",
      "outputs": [
        {
          "internalType": "uint256",
          "name": "",
          "type": "uint256"
        }
      ],
      "stateMutability": "nonpayable",
      "type": "function"
    },
    {
      "inputs": [
        {
          "internalType": "uint256[]",
          "name": "nonces",
          "type": "uint256[]"
        }
      ],
      "name": "claimRewards",
      "outputs": [
        {
          "internalType": "uint256[]",
          "name": "",
          "type": "uint256[]"
        }
      ],
      "stateMutability": "nonpayable",
      "type": "function"
    },
    {
      "inputs": [
        {
          "components": [
            {
              "internalType": "address",
              "name": "token",
              "type": "address"
            },
            {
              "internalType": "uint256",
              "name": "amount",
              "type": "uint256"
            },
            {
              "internalType": "uint256",
              "name": "nonce",
              "type": "uint256"
            }
          ],
          "internalType": "struct TokenPayment",
          "name": "tradeTokenPayment",
          "type": "tuple"
        },
        {
          "components": [
            {
              "internalType": "address",
              "name": "token",
              "type": "address"
            },
            {
              "internalType": "uint256",
              "name": "amount",
              "type": "uint256"
            },
            {
              "internalType": "uint256",
              "name": "nonce",
              "type": "uint256"
            }
          ],
          "internalType": "struct TokenPayment",
          "name": "pairedTokenPayment",
          "type": "tuple"
        },
        {
          "internalType": "address[]",
          "name": "pathToNative",
          "type": "address[]"
        },
        {
          "internalType": "uint256",
          "name": "epochsLocked",
          "type": "uint256"
        }
      ],
      "name": "createPair",
      "outputs": [
        {
          "internalType": "uint256",
          "name": "",
          "type": "uint256"
        }
      ],
      "stateMutability": "nonpayable",
      "type": "function"
    },
    {
      "inputs": [],
      "name": "currentEpoch",
      "outputs": [
        {
          "internalType": "uint256",
          "name": "",
          "type": "uint256"
        }
      ],
      "stateMutability": "view",
      "type": "function"
    },
    {
      "inputs": [],
      "name": "epochs",
      "outputs": [
        {
          "components": [
            {
              "internalType": "uint256",
              "name": "genesis",
              "type": "uint256"
            },
            {
              "internalType": "uint256",
              "name": "epochLength",
              "type": "uint256"
            }
          ],
          "internalType": "struct Epochs.Storage",
          "name": "",
          "type": "tuple"
        }
      ],
      "stateMutability": "view",
      "type": "function"
    },
    {
      "inputs": [
        {
          "internalType": "address",
          "name": "user",
          "type": "address"
        },
        {
          "internalType": "uint256[]",
          "name": "nonces",
          "type": "uint256[]"
        }
      ],
      "name": "getClaimableRewards",
      "outputs": [
        {
          "internalType": "uint256",
          "name": "totalClaimable",
          "type": "uint256"
        }
      ],
      "stateMutability": "view",
      "type": "function"
    },
    {
      "inputs": [],
      "name": "getGToken",
      "outputs": [
        {
          "internalType": "address",
          "name": "",
          "type": "address"
        }
      ],
      "stateMutability": "view",
      "type": "function"
    },
    {
      "inputs": [],
      "name": "getGainzToken",
      "outputs": [
        {
          "internalType": "address",
          "name": "",
          "type": "address"
        }
      ],
      "stateMutability": "view",
      "type": "function"
    },
    {
      "inputs": [],
      "name": "getRouter",
      "outputs": [
        {
          "internalType": "address",
          "name": "",
          "type": "address"
        }
      ],
      "stateMutability": "view",
      "type": "function"
    },
    {
      "inputs": [
        {
          "components": [
            {
              "internalType": "uint256",
              "name": "genesis",
              "type": "uint256"
            },
            {
              "internalType": "uint256",
              "name": "epochLength",
              "type": "uint256"
            }
          ],
          "internalType": "struct Epochs.Storage",
          "name": "_epochs",
          "type": "tuple"
        },
        {
          "internalType": "address",
          "name": "gainzToken",
          "type": "address"
        },
        {
          "internalType": "address",
          "name": "wNativeToken",
          "type": "address"
        },
        {
          "internalType": "address",
          "name": "proxyAdmin",
          "type": "address"
        }
      ],
      "name": "initialize",
      "outputs": [],
      "stateMutability": "nonpayable",
      "type": "function"
    },
    {
      "inputs": [],
      "name": "launchPair",
      "outputs": [
        {
          "internalType": "contract LaunchPair",
          "name": "",
          "type": "address"
        }
      ],
      "stateMutability": "view",
      "type": "function"
    },
    {
      "inputs": [
        {
          "internalType": "address",
          "name": "",
          "type": "address"
        },
        {
          "internalType": "address",
          "name": "",
          "type": "address"
        },
        {
          "internalType": "uint256[]",
          "name": "",
          "type": "uint256[]"
        },
        {
          "internalType": "uint256[]",
          "name": "",
          "type": "uint256[]"
        },
        {
          "internalType": "bytes",
          "name": "",
          "type": "bytes"
        }
      ],
      "name": "onERC1155BatchReceived",
      "outputs": [
        {
          "internalType": "bytes4",
          "name": "",
          "type": "bytes4"
        }
      ],
      "stateMutability": "nonpayable",
      "type": "function"
    },
    {
      "inputs": [
        {
          "internalType": "address",
          "name": "",
          "type": "address"
        },
        {
          "internalType": "address",
          "name": "",
          "type": "address"
        },
        {
          "internalType": "uint256",
          "name": "",
          "type": "uint256"
        },
        {
          "internalType": "uint256",
          "name": "",
          "type": "uint256"
        },
        {
          "internalType": "bytes",
          "name": "",
          "type": "bytes"
        }
      ],
      "name": "onERC1155Received",
      "outputs": [
        {
          "internalType": "bytes4",
          "name": "",
          "type": "bytes4"
        }
      ],
      "stateMutability": "nonpayable",
      "type": "function"
    },
    {
      "inputs": [],
      "name": "owner",
      "outputs": [
        {
          "internalType": "address",
          "name": "",
          "type": "address"
        }
      ],
      "stateMutability": "view",
      "type": "function"
    },
    {
      "inputs": [
        {
          "internalType": "address",
          "name": "pairOwner",
          "type": "address"
        }
      ],
      "name": "pairListing",
      "outputs": [
        {
          "components": [
            {
              "internalType": "address",
              "name": "owner",
              "type": "address"
            },
            {
              "components": [
                {
                  "internalType": "address",
                  "name": "token",
                  "type": "address"
                },
                {
                  "internalType": "uint256",
                  "name": "amount",
                  "type": "uint256"
                },
                {
                  "internalType": "uint256",
                  "name": "nonce",
                  "type": "uint256"
                }
              ],
              "internalType": "struct TokenPayment",
              "name": "securityGTokenPayment",
              "type": "tuple"
            },
            {
              "components": [
                {
                  "internalType": "address",
                  "name": "token",
                  "type": "address"
                },
                {
                  "internalType": "uint256",
                  "name": "amount",
                  "type": "uint256"
                },
                {
                  "internalType": "uint256",
                  "name": "nonce",
                  "type": "uint256"
                }
              ],
              "internalType": "struct TokenPayment",
              "name": "tradeTokenPayment",
              "type": "tuple"
            },
            {
              "internalType": "uint256",
              "name": "campaignId",
              "type": "uint256"
            },
            {
              "internalType": "address",
              "name": "pairedToken",
              "type": "address"
            },
            {
              "internalType": "uint256",
              "name": "epochsLocked",
              "type": "uint256"
            }
          ],
          "internalType": "struct LaunchPair.TokenListing",
          "name": "",
          "type": "tuple"
        }
      ],
      "stateMutability": "view",
      "type": "function"
    },
    {
      "inputs": [],
      "name": "renounceOwnership",
      "outputs": [],
      "stateMutability": "nonpayable",
      "type": "function"
    },
    {
      "inputs": [],
      "name": "rewardPerShare",
      "outputs": [
        {
          "internalType": "uint256",
          "name": "",
          "type": "uint256"
        }
      ],
      "stateMutability": "view",
      "type": "function"
    },
    {
      "inputs": [],
      "name": "rewardsReserve",
      "outputs": [
        {
          "internalType": "uint256",
          "name": "",
          "type": "uint256"
        }
      ],
      "stateMutability": "view",
      "type": "function"
    },
    {
      "inputs": [
        {
          "components": [
            {
              "internalType": "address",
              "name": "token",
              "type": "address"
            },
            {
              "internalType": "uint256",
              "name": "amount",
              "type": "uint256"
            },
            {
              "internalType": "uint256",
              "name": "nonce",
              "type": "uint256"
            }
          ],
          "internalType": "struct TokenPayment",
          "name": "payment",
          "type": "tuple"
        },
        {
          "internalType": "uint256",
          "name": "epochsLocked",
          "type": "uint256"
        },
        {
          "internalType": "address[][3]",
          "name": "paths",
          "type": "address[][3]"
        },
        {
          "internalType": "uint256[2][2]",
          "name": "path_AB_amounts",
          "type": "uint256[2][2]"
        },
        {
          "internalType": "uint256",
          "name": "deadline",
          "type": "uint256"
        }
      ],
      "name": "stake",
      "outputs": [
        {
          "internalType": "uint256",
          "name": "",
          "type": "uint256"
        }
      ],
      "stateMutability": "payable",
      "type": "function"
    },
    {
      "inputs": [
        {
          "components": [
            {
              "internalType": "address",
              "name": "token",
              "type": "address"
            },
            {
              "internalType": "uint256",
              "name": "amount",
              "type": "uint256"
            },
            {
              "internalType": "uint256",
              "name": "nonce",
              "type": "uint256"
            }
          ],
          "internalType": "struct TokenPayment",
          "name": "paymentA",
          "type": "tuple"
        },
        {
          "components": [
            {
              "internalType": "address",
              "name": "token",
              "type": "address"
            },
            {
              "internalType": "uint256",
              "name": "amount",
              "type": "uint256"
            },
            {
              "internalType": "uint256",
              "name": "nonce",
              "type": "uint256"
            }
          ],
          "internalType": "struct TokenPayment",
          "name": "paymentB",
          "type": "tuple"
        },
        {
          "internalType": "uint256",
          "name": "epochsLocked",
          "type": "uint256"
        },
        {
          "internalType": "uint256[3]",
          "name": "numbers",
          "type": "uint256[3]"
        },
        {
          "internalType": "address[]",
          "name": "pathToNative",
          "type": "address[]"
        }
      ],
      "name": "stakeLiquidity",
      "outputs": [
        {
          "internalType": "uint256",
          "name": "",
          "type": "uint256"
        }
      ],
      "stateMutability": "payable",
      "type": "function"
    },
    {
      "inputs": [
        {
          "internalType": "bytes4",
          "name": "interfaceId",
          "type": "bytes4"
        }
      ],
      "name": "supportsInterface",
      "outputs": [
        {
          "internalType": "bool",
          "name": "",
          "type": "bool"
        }
      ],
      "stateMutability": "view",
      "type": "function"
    },
    {
      "inputs": [
        {
          "internalType": "address",
          "name": "newOwner",
          "type": "address"
        }
      ],
      "name": "transferOwnership",
      "outputs": [],
      "stateMutability": "nonpayable",
      "type": "function"
    },
    {
      "inputs": [
        {
          "internalType": "uint256",
          "name": "nonce",
          "type": "uint256"
        },
        {
          "internalType": "uint256",
          "name": "amount0Min",
          "type": "uint256"
        },
        {
          "internalType": "uint256",
          "name": "amount1Min",
          "type": "uint256"
        }
      ],
      "name": "unStake",
      "outputs": [],
      "stateMutability": "nonpayable",
      "type": "function"
    },
    {
      "inputs": [],
      "name": "updateRewardReserve",
      "outputs": [],
      "stateMutability": "nonpayable",
      "type": "function"
    },
    {
      "stateMutability": "payable",
      "type": "receive"
    }
  ],
  "bytecode": "0x6080604052348015600f57600080fd5b5061373f8061001f6000396000f3fe60806040526004361061014f5760003560e01c806376f96d83116100b6578063c4152bab1161006f578063c4152bab146103b7578063eb9f48e6146103cc578063f23a6e61146103df578063f2fde38b1461040b578063f971d5991461042b578063fcedca281461044057600080fd5b806376f96d83146103005780638da5cb5b14610315578063ae169a501461032a578063afd4f2701461034a578063b0f479a11461035d578063bc197c811461037257600080fd5b806358152d071161010857806358152d07146102375780635eac62391461026757806370ac221914610294578063715018a6146102c157806374afd3f7146102d657806376671808146102eb57600080fd5b806301ffc9a71461015b5780631b024bb51461019057806320d86002146101be578063446a2ec8146101e05780634a59555a146101f55780634ea822b61461021757600080fd5b3661015657005b600080fd5b34801561016757600080fd5b5061017b610176366004612925565b610460565b60405190151581526020015b60405180910390f35b34801561019c57600080fd5b506101b06101ab3660046129a8565b610497565b604051908152602001610187565b3480156101ca57600080fd5b506101d3610608565b60405161018791906129fc565b3480156101ec57600080fd5b506101b0610624565b34801561020157600080fd5b50610215610210366004612a10565b610634565b005b34801561022357600080fd5b506101b0610232366004612a54565b6106bf565b34801561024357600080fd5b5061024c610a29565b60408051825181526020928301519281019290925201610187565b34801561027357600080fd5b50610287610282366004612c45565b610a66565b6040516101879190612c81565b3480156102a057600080fd5b506102b46102af366004612cc4565b610bfc565b6040516101879190612d03565b3480156102cd57600080fd5b50610215610c7f565b3480156102e257600080fd5b50610215610c93565b3480156102f757600080fd5b506101b0610def565b34801561030c57600080fd5b506101d3610e0e565b34801561032157600080fd5b506101d3610e2a565b34801561033657600080fd5b506101b0610345366004612d6a565b610e58565b6101b0610358366004612d94565b611032565b34801561036957600080fd5b506101d36111fa565b34801561037e57600080fd5b5061039e61038d366004612e86565b63bc197c8160e01b95945050505050565b6040516001600160e01b03199091168152602001610187565b3480156103c357600080fd5b506101b0611216565b6101b06103da366004612f3d565b611229565b3480156103eb57600080fd5b5061039e6103fa366004612fb5565b63f23a6e6160e01b95945050505050565b34801561041757600080fd5b50610215610426366004612cc4565b611400565b34801561043757600080fd5b506101d361143e565b34801561044c57600080fd5b5061021561045b366004613011565b61145a565b60006001600160e01b03198216630271189760e51b148061049157506301ffc9a760e01b6001600160e01b03198316145b92915050565b6000806104a26117b9565b905060006105a08260030160009054906101000a90046001600160a01b03166001600160a01b03166329290c776040518163ffffffff1660e01b8152600401602060405180830381865afa1580156104fe573d6000803e3d6000fd5b505050506040513d601f19601f820116820180604052508101906105229190613088565b8360020160009054906101000a90046001600160a01b03166001600160a01b031663626e0f836040518163ffffffff1660e01b8152600401602060405180830381865afa158015610577573d6000803e3d6000fd5b505050506040513d601f19601f8201168201806040525081019061059b9190613088565b6117dd565b9150506105fd868686808060200260200160405190810160405280939291908181526020018383602002808284376000920191909152505050600286015486546001600160a01b0390911691506105f89086906130b7565b611877565b509695505050505050565b60006106126117b9565b601b01546001600160a01b0316919050565b600061062e6117b9565b54919050565b73__$5344752114b65e635e1dc2d9ec876978f1$__630a1f13186106566117b9565b6040516001600160e01b031960e084901b168152600481019190915260248101869052604481018590526064810184905260840160006040518083038186803b1580156106a257600080fd5b505af41580156106b6573d6000803e3d6000fd5b50505050505050565b6000806106ca6117b9565b601b8101549091506001600160a01b031633146107265760405162461bcd60e51b815260206004820152601560248201527423b7bb32b93730b731b29d102327a92124a22222a760591b60448201526064015b60405180910390fd5b610754610738368990038901896130ca565b600483015460058401546001600160a01b039182169116611a24565b610766610738368890038801886130ca565b6004808201546040516319605e9760e31b815260009283926001600160a01b03169163cb02f4b89161079c918d918d910161313b565b60408051808303816000875af11580156107ba573d6000803e3d6000fd5b505050506040513d601f19601f820116820180604052508101906107de9190613156565b909250905060006107f260208a018a612cc4565b6001600160a01b03168888610808600182613184565b81811061081757610817613197565b905060200201602081019061082c9190612cc4565b6001600160a01b03161480156108425750600187145b61088b5760048401546005850154610886916001600160a01b039081169116610870368e90038e018e6130ca565b61087f368e90038e018e6130ca565b8c8c611a86565b610891565b88602001355b905060006040518060a00160405280856001600160a01b0316630dfe16816040518163ffffffff1660e01b8152600401602060405180830381865afa1580156108de573d6000803e3d6000fd5b505050506040513d601f19601f8201168201806040525081019061090291906131ad565b6001600160a01b03168152602001856001600160a01b031663d21220a76040518163ffffffff1660e01b8152600401602060405180830381865afa15801561094e573d6000803e3d6000fd5b505050506040513d601f19601f8201168201806040525081019061097291906131ad565b6001600160a01b0390811682526020820186905260408083018690528782166060909301929092526002880154601b89015489549351630e05575160e31b81529495509082169363702aba88936109d5939290921691908c908790600401613205565b6020604051808303816000875af11580156109f4573d6000803e3d6000fd5b505050506040513d601f19601f82011682018060405250810190610a189190613088565b955050505050505b95945050505050565b6040805180820190915260008082526020820152610a456117b9565b60408051808201909152600682015481526007909101546020820152919050565b60606000610a726117b9565b90508060030160009054906101000a90046001600160a01b03166001600160a01b03166346b32bbe6040518163ffffffff1660e01b8152600401600060405180830381600087803b158015610ac657600080fd5b505af1158015610ada573d6000803e3d6000fd5b5050505060003390506000610af0838387611db7565b91505060005b8551811015610bf2576000828281518110610b1357610b13613197565b6020908102919091010151855481529050610b3060068601611e82565b6060820152600285015487516001600160a01b0390911690639a5b563f9086908a9086908110610b6257610b62613197565b6020026020010151846040518463ffffffff1660e01b8152600401610b8993929190613231565b6020604051808303816000875af1158015610ba8573d6000803e3d6000fd5b505050506040513d601f19601f82011682018060405250810190610bcc9190613088565b878381518110610bde57610bde613197565b602090810291909101015250600101610af6565b5093949350505050565b610c0461283e565b610c0c6117b9565b601b01546040516370ac221960e01b81526001600160a01b03909116906370ac221990610c3d9085906004016129fc565b61014060405180830381865afa158015610c5b573d6000803e3d6000fd5b505050506040513d601f19601f8201168201806040525081019061049191906132da565b610c87611e8e565b610c916000611ec0565b565b6000610c9d6117b9565b600181015460038201546040516370a0823160e01b81529293506000926001600160a01b03909116906370a0823190610cda9030906004016129fc565b602060405180830381865afa158015610cf7573d6000803e3d6000fd5b505050506040513d601f19601f82011682018060405250810190610d1b9190613088565b610d259190613184565b90506000808360020160009054906101000a90046001600160a01b03166001600160a01b031663626e0f836040518163ffffffff1660e01b8152600401602060405180830381865afa158015610d7f573d6000803e3d6000fd5b505050506040513d601f19601f82011682018060405250810190610da39190613088565b9050610daf83826117dd565b809350819450505082846001016000828254610dcb91906130b7565b9091555050835482908590600090610de49084906130b7565b909155505050505050565b600080610dfa6117b9565b9050610e0881600601611e82565b91505090565b6000610e186117b9565b600301546001600160a01b0316919050565b7f9016d09d72d40fdae2fd8ceac6b6234c7706214fd39c1cd1e609a0528c199300546001600160a01b031690565b600080610e636117b9565b90508060030160009054906101000a90046001600160a01b03166001600160a01b03166346b32bbe6040518163ffffffff1660e01b8152600401600060405180830381600087803b158015610eb757600080fd5b505af1158015610ecb573d6000803e3d6000fd5b50506040805160018082528183019092523393506000925090602080830190803683370190505090508481600081518110610f0857610f08613197565b602002602001018181525050600080610f22858585611db7565b9150915060008211610f765760405162461bcd60e51b815260206004820152601f60248201527f476f7665726e616e63653a204e6f207265776172647320746f20636c61696d00604482015260640161071d565b600081600081518110610f8b57610f8b613197565b6020908102919091010151865481529050610fa860068701611e82565b60608201526002860154604051639a5b563f60e01b81526001600160a01b0390911690639a5b563f90610fe39088908c908690600401613231565b6020604051808303816000875af1158015611002573d6000803e3d6000fd5b505050506040513d601f19601f820116820180604052508101906110269190613088565b98975050505050505050565b60008061103d6117b9565b905034156110d3576110526020890189612cc4565b60058201546001600160a01b03908116911614611073578660200135611079565b87602001355b34146110d35760405162461bcd60e51b8152602060048201526024808201527f476f7665726e616e63653a20494e56414c49445f414d4f554e545f494e5f56416044820152634c55455360e01b606482015260840161071d565b6110e5610738368a90038a018a6130ca565b6110f7610738368990038901896130ca565b600060405180608001604052808760006003811061111757611117613197565b602002013581526020018760016003811061113457611134613197565b602002013581526020018760026003811061115157611151613197565b602002013581526020018360050160009054906101000a90046001600160a01b03166001600160a01b031681525090506111ed338360020160009054906101000a90046001600160a01b031684600001548a6111e88760040160009054906101000a90046001600160a01b03168f8036038101906111cf91906130ca565b8f8036038101906111e091906130ca565b8d8d8b611f31565b612028565b9998505050505050505050565b60006112046117b9565b600401546001600160a01b0316919050565b60006112206117b9565b60010154905090565b60006020860135158061124b575060003411801561124b575034866020013514155b1561126d57853460405163c99245ad60e01b815260040161071d929190613359565b60006112776117b9565b9050611281612892565b6112af611293368a90038a018a6130ca565b600484015460058501546001600160a01b039182169116611a24565b60006112c66112be8880613374565b8b89896120aa565b905060006112e56112da60208a018a613374565b8c60408b018a6120aa565b805183519192506001600160a01b039081169116036113465760405162461bcd60e51b815260206004820152601f60248201527f476f7665726e616e63653a20494e56414c49445f504154485f56414c55455300604482015260640161071d565b600484015461135f9083906001600160a01b031661223b565b60048401546113789082906001600160a01b031661223b565b60048401546113dd906001600160a01b0316838361139960408d018d613374565b60408051608081019091526020808f0135825281018e6001602060409182029290920182013583529082018f905260058d01546001600160a01b0316910152611f31565b6002850154855491945061102693503392506001600160a01b0316908a85612028565b611408611e8e565b6001600160a01b038116611432576000604051631e4fbdf760e01b815260040161071d91906129fc565b61143b81611ec0565b50565b60006114486117b9565b600201546001600160a01b0316919050565b6000611464612330565b805490915060ff600160401b82041615906001600160401b031660008115801561148b5750825b90506000826001600160401b031660011480156114a75750303b155b9050811580156114b5575080155b156114d35760405163f92ee8a960e01b815260040160405180910390fd5b845467ffffffffffffffff1916600117855583156114fd57845460ff60401b1916600160401b1785555b3361150781612359565b60006115116117b9565b8b516006820181905560208d015160078301819055604051630b77af1360e41b8152600481019290925260248201523060448201526001600160a01b038a16606482015290915073__$172d7a0aae9d6204681031754f967e7853$__9063b77af13090608401602060405180830381865af4158015611594573d6000803e3d6000fd5b505050506040513d601f19601f820116820180604052508101906115b891906131ad565b6002820180546001600160a01b03199081166001600160a01b03938416179091556004830180548216858416179055600583018054909116918b1691821790556116555760405162461bcd60e51b815260206004820152602860248201527f476f7665726e616e63653a20494e56414c49445f575241505045445f4e4154496044820152672b22afaa27a5a2a760c11b606482015260840161071d565b6001600160a01b038a166116a05760405162461bcd60e51b815260206004820152601260248201527124b73b30b634b21033b0b4b73d2a37b5b2b760711b604482015260640161071d565b6003810180546001600160a01b0319166001600160a01b038c811691909117909155600282015460405163bea7491160e01b81529082166004820152908916602482015273__$004e4ebd54719e1aef4f8faabb3c0d5c9f$__9063bea7491190604401602060405180830381865af4158015611720573d6000803e3d6000fd5b505050506040513d601f19601f8201168201806040525081019061174491906131ad565b601b9190910180546001600160a01b0319166001600160a01b039092169190911790555083156117ae57845460ff60401b19168555604051600181527fc7f505b2f371ae2175ee4913f4499e1f2633a7b5936321eed1cdaeb6115181d29060200160405180910390a15b505050505050505050565b7f8a4dda5430cdcd8aca8f2a075bbbae5f31557dc6b6b93555c9c43f674de00c0090565b6000808215611870576117ee6117b9565b60050154604051633c949c6360e01b8152600481018690526001600160a01b0390911690633c949c6390602401602060405180830381865afa158015611838573d6000803e3d6000fd5b505050506040513d601f19601f8201168201806040525081019061185c9190613088565b915061186d82600160801b8561236a565b90505b9250929050565b6000606084516001600160401b0381111561189457611894612abf565b6040519080825280602002602001820160405280156118cd57816020015b6118ba6128c0565b8152602001906001900390816118b25790505b50905060005b8551811015611a1a57846001600160a01b03166326ca8adb888884815181106118fe576118fe613197565b60200260200101516040518363ffffffff1660e01b81526004016119379291906001600160a01b03929092168252602082015260400190565b6101a060405180830381865afa158015611955573d6000803e3d6000fd5b505050506040513d601f19601f8201168201806040525081019061197991906133bd565b6060015182828151811061198f5761198f613197565b602002602001018190525060008282815181106119ae576119ae613197565b60200260200101516000015190506000818610156119cc57856119d6565b6119d68287613184565b9050611a048484815181106119ed576119ed613197565b60200260200101516080015182600160801b61236a565b611a0e90866130b7565b945050506001016118d3565b5094509492505050565b60008034118015611a4a5750816001600160a01b031684600001516001600160a01b0316145b90508015611a5757600084525b611a6384333085612437565b8015611a76576001600160a01b03821684525b611a80848461223b565b50505050565b60006002821080611ad957506001600160a01b0386168383611aa9600182613184565b818110611ab857611ab8613197565b9050602002016020810190611acd9190612cc4565b6001600160a01b031614155b80611b5f575084516001600160a01b03168383600081611afb57611afb613197565b9050602002016020810190611b109190612cc4565b6001600160a01b031614158015611b5f575083516001600160a01b03168383600081611b3e57611b3e613197565b9050602002016020810190611b539190612cc4565b6001600160a01b031614155b15611b815782826040516354da4f1960e01b815260040161071d929190613503565b604051638680fdeb60e01b815260009073__$bc9449f9a70e64213a5a9572d753eb9017$__90638680fdeb90611bbb908b906004016129fc565b602060405180830381865af4158015611bd8573d6000803e3d6000fd5b505050506040513d601f19601f82011682018060405250810190611bfc91906131ad565b86519091506001600160a01b03168484600081611c1b57611c1b613197565b9050602002016020810190611c309190612cc4565b6001600160a01b031614611c445784611c46565b855b60200151915060005b611c5a600185613184565b811015611d4a57816001600160a01b031663ca18ba94868684818110611c8257611c82613197565b9050602002016020810190611c979190612cc4565b8787611ca48660016130b7565b818110611cb357611cb3613197565b9050602002016020810190611cc89190612cc4565b6040516001600160e01b031960e085901b1681526001600160a01b03928316600482015291166024820152604481018690526064016020604051808303816000875af1158015611d1c573d6000803e3d6000fd5b505050506040513d601f19601f82011682018060405250810190611d409190613088565b9250600101611c4f565b50611d56600283613517565b9150600082116105fd5760405162461bcd60e51b815260206004820152602660248201527f476f7665726e616e63653a20494e56414c49445f434f4d50555445445f4c49516044820152655f56414c554560d01b606482015260840161071d565b60028301548354600091606091611ddb91869186916001600160a01b031690611877565b90925090508115611e7a5781856001016000828254611dfa9190613184565b9091555050600385015460405163a9059cbb60e01b81526001600160a01b038681166004830152602482018590529091169063a9059cbb906044016020604051808303816000875af1158015611e54573d6000803e3d6000fd5b505050506040513d601f19601f82011682018060405250810190611e78919061352e565b505b935093915050565b600061049182426125d7565b33611e97610e2a565b6001600160a01b031614610c91573360405163118cdaa760e01b815260040161071d91906129fc565b7f9016d09d72d40fdae2fd8ceac6b6234c7706214fd39c1cd1e609a0528c19930080546001600160a01b031981166001600160a01b03848116918217845560405192169182907f8be0079c531659141344cd1fd0a4f28419497f9722a3daafe3b4186f6b6457e090600090a3505050565b611f39612892565b815160208301516040808501519051635729518160e11b81526001600160a01b038b169363ae52a30293611f76938c938c93929190600401613550565b6080604051808303816000875af1158015611f95573d6000803e3d6000fd5b505050506040513d601f19601f82011682018060405250810190611fb99190613589565b6001600160a01b03166080850152604084015250506060820151611fe290889088888888611a86565b6060820152845186516001600160a01b03918216911610612006578451865161200b565b855185515b6001600160a01b0390811660208401521681529695505050505050565b604051630e05575160e31b81526000906001600160a01b0386169063702aba889061205d908990889088908890600401613205565b6020604051808303816000875af115801561207c573d6000803e3d6000fd5b505050506040513d601f19601f820116820180604052508101906120a09190613088565b9695505050505050565b6120b26128fb565b8235602084013560028710156120e1576120d1368790038701876130ca565b6020810192909252509050610a20565b6120ee6020870187612cc4565b6001600160a01b031683600001516001600160a01b0316036121275787876040516354da4f1960e01b815260040161071d929190613503565b8787612134600182613184565b81811061214357612143613197565b90506020020160208101906121589190612cc4565b6001600160a01b0316835261216b6117b9565b6004908101546040516338ed173960e01b81526001600160a01b03909116916338ed1739916121a691869186918e918e9130918d91016135c1565b6000604051808303816000875af11580156121c5573d6000803e3d6000fd5b505050506040513d6000823e601f3d908101601f191682016040526121ed91908101906135ff565b6121f8600189613184565b8151811061220857612208613197565b602002602001015160006002811061222257612222613197565b6020020151836020018181525050505095945050505050565b81604001516000036122c7578151602083015160405163095ea7b360e01b81526001600160a01b038481166004830152602482019290925291169063095ea7b3906044016020604051808303816000875af115801561229e573d6000803e3d6000fd5b505050506040513d601f19601f820116820180604052508101906122c2919061352e565b505050565b815160405163a22cb46560e01b81526001600160a01b038381166004830152600160248301529091169063a22cb46590604401600060405180830381600087803b15801561231457600080fd5b505af1158015612328573d6000803e3d6000fd5b505050505050565b6000807ff0c57e16840df040f15088dc2f81fe391c3923bec73e23a9662efc9c229c6a00610491565b61236161263e565b61143b81612663565b6000806000612379868661266b565b915091506000848061238d5761238d6136d1565b8688099050828111156123a8576123a5600183613184565b91505b6123b28184613184565b9250816000036123d0576123c685846136e7565b9350505050612430565b84821061241f5760405162461bcd60e51b815260206004820152601a60248201527f46756c6c4d6174683a2046554c4c4449565f4f564552464c4f57000000000000604482015260640161071d565b61242a8383876126ad565b93505050505b9392505050565b83516001600160a01b03166124ae5760208401516040516388d32dd760e01b81526001600160a01b038316916388d32dd7916124779086906004016129fc565b6000604051808303818588803b15801561249057600080fd5b505af11580156124a4573d6000803e3d6000fd5b5050505050611a80565b836040015160000361254357835160208501516040516323b872dd60e01b81526001600160a01b038681166004830152858116602483015260448201929092529116906323b872dd906064016020604051808303816000875af1158015612519573d6000803e3d6000fd5b505050506040513d601f19601f8201168201806040525081019061253d919061352e565b50611a80565b835160408086015160208701519151637921219560e11b81526001600160a01b03878116600483015286811660248301526044820192909252606481019290925260a06084830152600060a48301529091169063f242432a9060c401600060405180830381600087803b1580156125b957600080fd5b505af11580156125cd573d6000803e3d6000fd5b5050505050505050565b6000808360010154116126235760405162461bcd60e51b8152602060048201526014602482015273092dcecc2d8d2c8408ae0dec6d040d8cadccee8d60631b604482015260640161071d565b600183015483546126349084613184565b61243091906136e7565b612646612824565b610c9157604051631afcd79f60e31b815260040160405180910390fd5b61140861263e565b6000808060001984860990506126818486613517565b925061268d8382613184565b9150828110156126a5576126a2600183613184565b91505b509250929050565b6000806126bc831960016130b7565b831690506126ca81846136e7565b92506126d681866136e7565b9450806126e5811960016130b7565b6126ef91906136e7565b6126fa9060016130b7565b6127049085613517565b61270e90866130b7565b9450600161271c8185613517565b612727906002613184565b6127319082613517565b905061273d8185613517565b612748906002613184565b6127529082613517565b905061275e8185613517565b612769906002613184565b6127739082613517565b905061277f8185613517565b61278a906002613184565b6127949082613517565b90506127a08185613517565b6127ab906002613184565b6127b59082613517565b90506127c18185613517565b6127cc906002613184565b6127d69082613517565b90506127e28185613517565b6127ed906002613184565b6127f79082613517565b90506128038185613517565b61280e906002613184565b6128189082613517565b90506120a08187613517565b600061282e612330565b54600160401b900460ff16919050565b6040518060c0016040528060006001600160a01b031681526020016128616128fb565b815260200161286e6128fb565b81526020016000815260200160006001600160a01b03168152602001600081525090565b6040805160a08101825260008082526020820181905291810182905260608101829052608081019190915290565b6040518060c0016040528060008152602001600081526020016000815260200160008152602001600081526020016128f6612892565b905290565b604051806060016040528060006001600160a01b0316815260200160008152602001600081525090565b60006020828403121561293757600080fd5b81356001600160e01b03198116811461243057600080fd5b6001600160a01b038116811461143b57600080fd5b60008083601f84011261297657600080fd5b5081356001600160401b0381111561298d57600080fd5b6020830191508360208260051b850101111561187057600080fd5b6000806000604084860312156129bd57600080fd5b83356129c88161294f565b925060208401356001600160401b038111156129e357600080fd5b6129ef86828701612964565b9497909650939450505050565b6001600160a01b0391909116815260200190565b600080600060608486031215612a2557600080fd5b505081359360208301359350604090920135919050565b600060608284031215612a4e57600080fd5b50919050565b60008060008060006101008688031215612a6d57600080fd5b612a778787612a3c565b9450612a868760608801612a3c565b935060c08601356001600160401b03811115612aa157600080fd5b612aad88828901612964565b96999598509660e00135949350505050565b634e487b7160e01b600052604160045260246000fd5b604080519081016001600160401b0381118282101715612af757612af7612abf565b60405290565b604051606081016001600160401b0381118282101715612af757612af7612abf565b60405160c081016001600160401b0381118282101715612af757612af7612abf565b604051608081016001600160401b0381118282101715612af757612af7612abf565b60405160a081016001600160401b0381118282101715612af757612af7612abf565b604051601f8201601f191681016001600160401b0381118282101715612bad57612bad612abf565b604052919050565b60006001600160401b03821115612bce57612bce612abf565b5060051b60200190565b600082601f830112612be957600080fd5b8135612bfc612bf782612bb5565b612b85565b8082825260208201915060208360051b860101925085831115612c1e57600080fd5b602085015b83811015612c3b578035835260209283019201612c23565b5095945050505050565b600060208284031215612c5757600080fd5b81356001600160401b03811115612c6d57600080fd5b612c7984828501612bd8565b949350505050565b602080825282518282018190526000918401906040840190835b81811015612cb9578351835260209384019390920191600101612c9b565b509095945050505050565b600060208284031215612cd657600080fd5b81356124308161294f565b80516001600160a01b0316825260208082015190830152604090810151910152565b81516001600160a01b03168152602080830151610140830191612d2890840182612ce1565b506040830151612d3b6080840182612ce1565b50606083015160e083015260808301516001600160a01b031661010083015260a0909201516101209091015290565b600060208284031215612d7c57600080fd5b5035919050565b806060810183101561049157600080fd5b6000806000806000806101608789031215612dae57600080fd5b612db88888612a3c565b9550612dc78860608901612a3c565b945060c08701359350612ddd8860e08901612d83565b92506101408701356001600160401b03811115612df957600080fd5b612e0589828a01612964565b979a9699509497509295939492505050565b600082601f830112612e2857600080fd5b81356001600160401b03811115612e4157612e41612abf565b612e54601f8201601f1916602001612b85565b818152846020838601011115612e6957600080fd5b816020850160208301376000918101602001919091529392505050565b600080600080600060a08688031215612e9e57600080fd5b8535612ea98161294f565b94506020860135612eb98161294f565b935060408601356001600160401b03811115612ed457600080fd5b612ee088828901612bd8565b93505060608601356001600160401b03811115612efc57600080fd5b612f0888828901612bd8565b92505060808601356001600160401b03811115612f2457600080fd5b612f3088828901612e17565b9150509295509295909350565b60008060008060006101408688031215612f5657600080fd5b612f608787612a3c565b94506060860135935060808601356001600160401b03811115612f8257600080fd5b612f8e88828901612d83565b935050610120860187811115612fa357600080fd5b9497939650919460a001933592915050565b600080600080600060a08688031215612fcd57600080fd5b8535612fd88161294f565b94506020860135612fe88161294f565b9350604086013592506060860135915060808601356001600160401b03811115612f2457600080fd5b60008060008084860360a081121561302857600080fd5b604081121561303657600080fd5b5061303f612ad5565b85358152602080870135908201529350604085013561305d8161294f565b9250606085013561306d8161294f565b9150608085013561307d8161294f565b939692955090935050565b60006020828403121561309a57600080fd5b5051919050565b634e487b7160e01b600052601160045260246000fd5b80820180821115610491576104916130a1565b600060608284031280156130dd57600080fd5b506130e6612afd565b82356130f18161294f565b8152602083810135908201526040928301359281019290925250919050565b803561311b8161294f565b6001600160a01b0316825260208181013590830152604090810135910152565b60c081016131498285613110565b6124306060830184613110565b6000806040838503121561316957600080fd5b82516131748161294f565b6020939093015192949293505050565b81810381811115610491576104916130a1565b634e487b7160e01b600052603260045260246000fd5b6000602082840312156131bf57600080fd5b81516124308161294f565b80516001600160a01b039081168352602080830151821690840152604080830151908401526060808301519084015260809182015116910152565b6001600160a01b038516815260208101849052604081018390526101008101610a2060608301846131ca565b60006101808201905060018060a01b0385168252836020830152825160408301526020830151606083015260408301516080830152606083015160a0830152608083015160c083015260a083015161328c60e08401826131ca565b50949350505050565b6000606082840312156132a757600080fd5b6132af612afd565b905081516132bc8161294f565b81526020828101519082015260409182015191810191909152919050565b60006101408284031280156132ee57600080fd5b506132f7612b1f565b82516133028161294f565b81526133118460208501613295565b60208201526133238460808501613295565b604082015260e083015160608201526101008301516133418161294f565b6080820152610120929092015160a083015250919050565b608081016133678285613110565b8260608301529392505050565b6000808335601e1984360301811261338b57600080fd5b8301803591506001600160401b038211156133a557600080fd5b6020019150600581901b360382131561187057600080fd5b60008183036101a0811280156133d257600080fd5b5060006133dd612b41565b845181526020808601519082015260408086015190820152610140605f1984011215613407578182fd5b61340f612b1f565b6060868101518252608080880151602084015260a080890151604085015260c08901519284019290925260e08801519083015260ff1985011215613451578283fd5b613459612b63565b935061010086015161346a8161294f565b845261012086015161347b8161294f565b60208501526101408601516040850152610160860151606085015261018086015192506134a78361294f565b608084019290925260a082019290925260608201529392505050565b81835260208301925060008160005b84811015610bf25781356134e58161294f565b6001600160a01b0316865260209586019591909101906001016134d2565b602081526000612c796020830184866134c3565b8082028115828204841417610491576104916130a1565b60006020828403121561354057600080fd5b8151801515811461243057600080fd5b610120810161355f8288612ce1565b61356c6060830187612ce1565b8460c08301528360e0830152826101008301529695505050505050565b6000806000806080858703121561359f57600080fd5b8451602086015160408701516060880151929650909450925061307d8161294f565b86815285602082015260a0604082015260006135e160a0830186886134c3565b6001600160a01b039490941660608301525060800152949350505050565b60006020828403121561361157600080fd5b81516001600160401b0381111561362757600080fd5b8201601f8101841361363857600080fd5b8051613646612bf782612bb5565b8082825260208201915060208360061b85010192508683111561366857600080fd5b6020840193505b828410156120a05786601f85011261368657600080fd5b61368e612ad5565b8060408601898111156136a057600080fd5b865b818110156136ba5780518452602093840193016136a2565b50508352506040939093019260209091019061366f565b634e487b7160e01b600052601260045260246000fd5b60008261370457634e487b7160e01b600052601260045260246000fd5b50049056fea2646970667358221220fced338694823d26bceefbdedd2c59f8d244d74287902542bd102e4a0bb0ff7e64736f6c634300081c0033",
  "linkReferences": {
    "contracts/Governance.sol": {
      "GovernanceLib": [
        {
          "length": 20,
          "start": 1621
        }
      ]
    },
    "contracts/libraries/DeployGToken.sol": {
      "DeployGToken": [
        {
          "length": 20,
          "start": 5497
        }
      ]
    },
    "contracts/libraries/DeployLaunchPair.sol": {
      "DeployLaunchPair": [
        {
          "length": 20,
          "start": 5893
        }
      ]
    },
    "contracts/libraries/OracleLibrary.sol": {
      "OracleLibrary": [
        {
          "length": 20,
          "start": 7090
        }
      ]
    }
  },
  "deployedLinkReferences": {
    "contracts/Governance.sol": {
      "GovernanceLib": [
        {
          "length": 20,
          "start": 1590
        }
      ]
    },
    "contracts/libraries/DeployGToken.sol": {
      "DeployGToken": [
        {
          "length": 20,
          "start": 5466
        }
      ]
    },
    "contracts/libraries/DeployLaunchPair.sol": {
      "DeployLaunchPair": [
        {
          "length": 20,
          "start": 5862
        }
      ]
    },
    "contracts/libraries/OracleLibrary.sol": {
      "OracleLibrary": [
        {
          "length": 20,
          "start": 7059
        }
      ]
    }
  }
}