{
  "_format": "hh-sol-artifact-1",
  "contractName": "AMMLibrary",
  "sourceName": "contracts/libraries/AMMLibrary.sol",
  "abi": [
    {
      "inputs": [
        {
          "internalType": "address[]",
          "name": "path",
          "type": "address[]"
        }
      ],
      "name": "InvalidPath",
      "type": "error"
    },
    {
      "inputs": [
        {
          "internalType": "address",
          "name": "router",
          "type": "address"
        },
        {
          "internalType": "address",
          "name": "pairsBeacon",
          "type": "address"
        },
        {
          "internalType": "uint256",
          "name": "amountOut",
          "type": "uint256"
        },
        {
          "internalType": "address[]",
          "name": "path",
          "type": "address[]"
        }
      ],
      "name": "getAmountsIn",
      "outputs": [
        {
          "internalType": "uint256[2][]",
          "name": "amounts",
          "type": "uint256[2][]"
        }
      ],
      "stateMutability": "view",
      "type": "function"
    },
    {
      "inputs": [
        {
          "internalType": "address",
          "name": "router",
          "type": "address"
        },
        {
          "internalType": "address",
          "name": "pairsBeacon",
          "type": "address"
        },
        {
          "internalType": "uint256",
          "name": "amountIn",
          "type": "uint256"
        },
        {
          "internalType": "address[]",
          "name": "path",
          "type": "address[]"
        }
      ],
      "name": "getAmountsOut",
      "outputs": [
        {
          "internalType": "uint256[2][]",
          "name": "amounts",
          "type": "uint256[2][]"
        }
      ],
      "stateMutability": "view",
      "type": "function"
    },
    {
      "inputs": [
        {
          "internalType": "uint256",
          "name": "amountA",
          "type": "uint256"
        },
        {
          "internalType": "uint256",
          "name": "reserveA",
          "type": "uint256"
        },
        {
          "internalType": "uint256",
          "name": "reserveB",
          "type": "uint256"
        }
      ],
      "name": "quote",
      "outputs": [
        {
          "internalType": "uint256",
          "name": "amountB",
          "type": "uint256"
        }
      ],
      "stateMutability": "pure",
      "type": "function"
    }
  ],
  "bytecode": "0x611498610039600b82828239805160001a607314602c57634e487b7160e01b600052600060045260246000fd5b30600052607381538281f3fe730000000000000000000000000000000000000000301460806040526004361061004b5760003560e01c80638fabd82d14610050578063ad615dec14610079578063b3923a991461009a575b600080fd5b61006361005e366004610acb565b6100ad565b6040516100709190610bc6565b60405180910390f35b61008c610087366004610c31565b61024a565b604051908152602001610070565b6100636100a8366004610acb565b6102e4565b60606002825110156100dd57816040516354da4f1960e01b81526004016100d49190610c5d565b60405180910390fd5b815167ffffffffffffffff8111156100f7576100f7610ab5565b60405190808252806020026020018201604052801561013057816020015b61011d610a6e565b8152602001906001900390816101155790505b509050828160008151811061014757610147610c9e565b602002602001015160006002811061016157610161610c9e565b602002015260005b600183516101779190610cca565b8110156102415760008060006101cd898988878151811061019a5761019a610c9e565b6020026020010151898860016101b09190610ce3565b815181106101c0576101c0610c9e565b60200260200101516104a0565b92509250925061020f8585815181106101e8576101e8610c9e565b602002602001015160006002811061020257610202610c9e565b6020020151848484610574565b8561021b866001610ce3565b8151811061022b5761022b610c9e565b6020908102919091010152505050600101610169565b50949350505050565b600080841161029b5760405162461bcd60e51b815260206004820152601f60248201527f414d4d4c6962726172793a20494e53554646494349454e545f414d4f554e540060448201526064016100d4565b6000831180156102ab5750600082115b6102c75760405162461bcd60e51b81526004016100d490610cf6565b826102d28386610d38565b6102dc9190610d4f565b949350505050565b60606002825110156103335760405162461bcd60e51b81526020600482015260186024820152770829a9a98d2c4e4c2e4f27440929cac82989288bea082a8960431b60448201526064016100d4565b815167ffffffffffffffff81111561034d5761034d610ab5565b60405190808252806020026020018201604052801561038657816020015b610373610a6e565b81526020019060019003908161036b5790505b5090508281600183516103999190610cca565b815181106103a9576103a9610c9e565b60200260200101516000600281106103c3576103c3610c9e565b602002015281516000906103d990600190610cca565b90505b801561024157600080806104218989886103f7600189610cca565b8151811061040757610407610c9e565b60200260200101518988815181106101c0576101c0610c9e565b92509250925061046385858151811061043c5761043c610c9e565b602002602001015160006002811061045657610456610c9e565b60200201518484846106b0565b8561046f600187610cca565b8151811061047f5761047f610c9e565b6020026020010181905250505050808061049890610d71565b9150506103dc565b60008060006104b187878787610820565b905060006104bf868661098a565b509050600080836001600160a01b0316630902f1ac6040518163ffffffff1660e01b8152600401606060405180830381865afa158015610503573d6000803e3d6000fd5b505050506040513d601f19601f820116820180604052508101906105279190610d9f565b506001600160701b031691506001600160701b03169150826001600160a01b0316886001600160a01b03161461055e578082610561565b81815b909b909a50939850929650505050505050565b61057c610a6e565b600085116105da5760405162461bcd60e51b815260206004820152602560248201527f414d4d4c6962726172793a20494e53554646494349454e545f494e5055545f416044820152641353d5539560da1b60648201526084016100d4565b6000841180156105ea5750600083115b6106065760405162461bcd60e51b81526004016100d490610cf6565b60006106128487610d38565b905060006106208787610ce3565b905061062c8183610d4f565b808452604051630692877f60e41b81526004810191909152602481018690526001600160a01b0385169063692877f090604401602060405180830381865afa15801561067c573d6000803e3d6000fd5b505050506040513d601f19601f820116820180604052508101906106a09190610def565b6020840152509095945050505050565b6106b8610a6e565b600085116107175760405162461bcd60e51b815260206004820152602660248201527f414d4d4c6962726172793a20494e53554646494349454e545f4f55545055545f604482015265105353d5539560d21b60648201526084016100d4565b6000841180156107275750600083115b6107435760405162461bcd60e51b81526004016100d490610cf6565b604051630692877f60e41b815260048101869052602481018490526001600160a01b0383169063692877f090604401602060405180830381865afa15801561078f573d6000803e3d6000fd5b505050506040513d601f19601f820116820180604052508101906107b39190610def565b60208201819052600090612710906107cb9082610cca565b6107d59088610d38565b6107df9190610d4f565b905060006107ed8287610d38565b905060006107fb8387610cca565b90506108078183610d4f565b610812906001610ce3565b845250919695505050505050565b600080600061082f858561098a565b9150915060006040518060200161084590610a8c565b818103601f199081018352601f9091011660408181526001600160a01b03868116602484015285166044808401919091528151808403909101815260649092018152602080830180516001600160e01b031663485cc95560e01b17905290516108b2928b92909101610e2c565b60408051601f19818403018152908290526108d09291602001610e6e565b6040516020818303038152906040528051906020012090506000838360405160200161091b929190606092831b6001600160601b031990811682529190921b16601482015260280190565b60408051808303601f1901815282825280516020918201206001600160f81b03198285015260609c909c1b6001600160601b0319166021840152603583019b909b5260558083019490945280518083039094018452607590910190525080519701969096209695505050505050565b600080826001600160a01b0316846001600160a01b0316036109ee5760405162461bcd60e51b815260206004820152601f60248201527f414d4d4c6962726172793a204944454e544943414c5f4144445245535345530060448201526064016100d4565b826001600160a01b0316846001600160a01b031610610a0e578284610a11565b83835b90925090506001600160a01b038216610a675760405162461bcd60e51b8152602060048201526018602482015277414d4d4c6962726172793a205a45524f5f4144445245535360401b60448201526064016100d4565b9250929050565b60405180604001604052806002906020820280368337509192915050565b6105c580610e9e83390190565b80356001600160a01b0381168114610ab057600080fd5b919050565b634e487b7160e01b600052604160045260246000fd5b60008060008060808587031215610ae157600080fd5b610aea85610a99565b9350610af860208601610a99565b925060408501359150606085013567ffffffffffffffff811115610b1b57600080fd5b8501601f81018713610b2c57600080fd5b803567ffffffffffffffff811115610b4657610b46610ab5565b8060051b604051601f19603f830116810181811067ffffffffffffffff82111715610b7357610b73610ab5565b60405291825260208184018101929081018a841115610b9157600080fd5b6020850194505b83851015610bb757610ba985610a99565b815260209485019401610b98565b50969995985093965050505050565b602080825282518282018190526000918401906040840190835b81811015610c265783518360005b6002811015610c0d578251825260209283019290910190600101610bee565b5050506020939093019260409290920191600101610be0565b509095945050505050565b600080600060608486031215610c4657600080fd5b505081359360208301359350604090920135919050565b602080825282518282018190526000918401906040840190835b81811015610c265783516001600160a01b0316835260209384019390920191600101610c77565b634e487b7160e01b600052603260045260246000fd5b634e487b7160e01b600052601160045260246000fd5b81810381811115610cdd57610cdd610cb4565b92915050565b80820180821115610cdd57610cdd610cb4565b60208082526022908201527f414d4d4c6962726172793a20494e53554646494349454e545f4c495155494449604082015261545960f01b606082015260800190565b8082028115828204841417610cdd57610cdd610cb4565b600082610d6c57634e487b7160e01b600052601260045260246000fd5b500490565b600081610d8057610d80610cb4565b506000190190565b80516001600160701b0381168114610ab057600080fd5b600080600060608486031215610db457600080fd5b610dbd84610d88565b9250610dcb60208501610d88565b9150604084015163ffffffff81168114610de457600080fd5b809150509250925092565b600060208284031215610e0157600080fd5b5051919050565b60005b83811015610e23578181015183820152602001610e0b565b50506000910152565b60018060a01b03831681526040602082015260008251806040840152610e59816060850160208701610e08565b601f01601f1916919091016060019392505050565b60008351610e80818460208801610e08565b835190830190610e94818360208801610e08565b0194935050505056fe60a06040526040516105c53803806105c583398101604081905261002291610387565b61002c828261003e565b506001600160a01b0316608052610484565b610047826100fe565b6040516001600160a01b038316907f1cf3b03a6cf19fa2baba4df148e9dcabedea7f8a5c07840e207e5c089be95d3e90600090a28051156100f2576100ed826001600160a01b0316635c60da1b6040518163ffffffff1660e01b8152600401602060405180830381865afa1580156100c3573d6000803e3d6000fd5b505050506040513d601f19601f820116820180604052508101906100e7919061044d565b82610211565b505050565b6100fa610288565b5050565b806001600160a01b03163b60000361013957604051631933b43b60e21b81526001600160a01b03821660048201526024015b60405180910390fd5b807fa3f0ad74e5423aebfd80d3ef4346578335a9a72aeaee59ff6cb3582b35133d5080546001600160a01b0319166001600160a01b0392831617905560408051635c60da1b60e01b81529051600092841691635c60da1b9160048083019260209291908290030181865afa1580156101b5573d6000803e3d6000fd5b505050506040513d601f19601f820116820180604052508101906101d9919061044d565b9050806001600160a01b03163b6000036100fa57604051634c9c8ce360e01b81526001600160a01b0382166004820152602401610130565b6060600080846001600160a01b03168460405161022e9190610468565b600060405180830381855af49150503d8060008114610269576040519150601f19603f3d011682016040523d82523d6000602084013e61026e565b606091505b50909250905061027f8583836102a9565b95945050505050565b34156102a75760405163b398979f60e01b815260040160405180910390fd5b565b6060826102be576102b982610308565b610301565b81511580156102d557506001600160a01b0384163b155b156102fe57604051639996b31560e01b81526001600160a01b0385166004820152602401610130565b50805b9392505050565b8051156103185780518082602001fd5b60405163d6bda27560e01b815260040160405180910390fd5b80516001600160a01b038116811461034857600080fd5b919050565b634e487b7160e01b600052604160045260246000fd5b60005b8381101561037e578181015183820152602001610366565b50506000910152565b6000806040838503121561039a57600080fd5b6103a383610331565b60208401519092506001600160401b038111156103bf57600080fd5b8301601f810185136103d057600080fd5b80516001600160401b038111156103e9576103e961034d565b604051601f8201601f19908116603f011681016001600160401b03811182821017156104175761041761034d565b60405281815282820160200187101561042f57600080fd5b610440826020830160208601610363565b8093505050509250929050565b60006020828403121561045f57600080fd5b61030182610331565b6000825161047a818460208701610363565b9190910192915050565b60805161012761049e6000396000601e01526101276000f3fe6080604052600a600c565b005b60186014601a565b60a0565b565b60007f00000000000000000000000000000000000000000000000000000000000000006001600160a01b0316635c60da1b6040518163ffffffff1660e01b8152600401602060405180830381865afa1580156079573d6000803e3d6000fd5b505050506040513d601f19601f82011682018060405250810190609b919060c3565b905090565b3660008037600080366000845af43d6000803e80801560be573d6000f35b3d6000fd5b60006020828403121560d457600080fd5b81516001600160a01b038116811460ea57600080fd5b939250505056fea2646970667358221220ddb3cb6bf07de3d9ebf0ddfa1f251cc525f9b889ee5133b139d74f1e62fcd4ce64736f6c634300081c0033a26469706673582212201b4d53e801815bfb943b1f97d85d4a5f8cd1dbd7b15e1b1a970450f10c6047b364736f6c634300081c0033",
  "linkReferences": {},
  "deployedLinkReferences": {}
}