{
  "_format": "hh-sol-artifact-1",
  "contractName": "Router",
  "sourceName": "contracts/Router.sol",
  "abi": [
    {
      "inputs": [],
      "name": "CreatePairUnauthorized",
      "type": "error"
    },
    {
      "inputs": [],
      "name": "Expired",
      "type": "error"
    },
    {
      "inputs": [],
      "name": "IdenticalAddress",
      "type": "error"
    },
    {
      "inputs": [],
      "name": "InSufficientAAmount",
      "type": "error"
    },
    {
      "inputs": [],
      "name": "InSufficientBAmount",
      "type": "error"
    },
    {
      "inputs": [
        {
          "internalType": "address[]",
          "name": "path",
          "type": "address[]"
        },
        {
          "internalType": "uint256",
          "name": "amount",
          "type": "uint256"
        }
      ],
      "name": "InSufficientOutputAmount",
      "type": "error"
    },
    {
      "inputs": [],
      "name": "InvalidInitialization",
      "type": "error"
    },
    {
      "inputs": [
        {
          "internalType": "address[]",
          "name": "path",
          "type": "address[]"
        }
      ],
      "name": "InvalidPath",
      "type": "error"
    },
    {
      "inputs": [
        {
          "components": [
            {
              "internalType": "address",
              "name": "token",
              "type": "address"
            },
            {
              "internalType": "uint256",
              "name": "amount",
              "type": "uint256"
            },
            {
              "internalType": "uint256",
              "name": "nonce",
              "type": "uint256"
            }
          ],
          "internalType": "struct TokenPayment",
          "name": "payment",
          "type": "tuple"
        },
        {
          "internalType": "uint256",
          "name": "value",
          "type": "uint256"
        }
      ],
      "name": "InvalidPayment",
      "type": "error"
    },
    {
      "inputs": [],
      "name": "NotInitializing",
      "type": "error"
    },
    {
      "inputs": [
        {
          "internalType": "address",
          "name": "owner",
          "type": "address"
        }
      ],
      "name": "OwnableInvalidOwner",
      "type": "error"
    },
    {
      "inputs": [
        {
          "internalType": "address",
          "name": "account",
          "type": "address"
        }
      ],
      "name": "OwnableUnauthorizedAccount",
      "type": "error"
    },
    {
      "inputs": [],
      "name": "PairExists",
      "type": "error"
    },
    {
      "inputs": [
        {
          "internalType": "address",
          "name": "tokenA",
          "type": "address"
        },
        {
          "internalType": "address",
          "name": "tokenB",
          "type": "address"
        }
      ],
      "name": "PairNotListed",
      "type": "error"
    },
    {
      "inputs": [],
      "name": "ZeroAddress",
      "type": "error"
    },
    {
      "anonymous": false,
      "inputs": [
        {
          "indexed": false,
          "internalType": "uint64",
          "name": "version",
          "type": "uint64"
        }
      ],
      "name": "Initialized",
      "type": "event"
    },
    {
      "anonymous": false,
      "inputs": [
        {
          "indexed": true,
          "internalType": "address",
          "name": "previousOwner",
          "type": "address"
        },
        {
          "indexed": true,
          "internalType": "address",
          "name": "newOwner",
          "type": "address"
        }
      ],
      "name": "OwnershipTransferred",
      "type": "event"
    },
    {
      "anonymous": false,
      "inputs": [
        {
          "indexed": true,
          "internalType": "address",
          "name": "token0",
          "type": "address"
        },
        {
          "indexed": true,
          "internalType": "address",
          "name": "token1",
          "type": "address"
        },
        {
          "indexed": false,
          "internalType": "address",
          "name": "pair",
          "type": "address"
        },
        {
          "indexed": false,
          "internalType": "uint256",
          "name": "",
          "type": "uint256"
        }
      ],
      "name": "PairCreated",
      "type": "event"
    },
    {
      "anonymous": false,
      "inputs": [
        {
          "indexed": true,
          "internalType": "uint256",
          "name": "referrerId",
          "type": "uint256"
        },
        {
          "indexed": true,
          "internalType": "uint256",
          "name": "referralId",
          "type": "uint256"
        }
      ],
      "name": "ReferralAdded",
      "type": "event"
    },
    {
      "anonymous": false,
      "inputs": [
        {
          "indexed": true,
          "internalType": "address",
          "name": "receiver",
          "type": "address"
        },
        {
          "indexed": true,
          "internalType": "address",
          "name": "tokenIn",
          "type": "address"
        },
        {
          "indexed": true,
          "internalType": "address",
          "name": "tokenOut",
          "type": "address"
        },
        {
          "indexed": false,
          "internalType": "uint256",
          "name": "amountOut",
          "type": "uint256"
        },
        {
          "indexed": false,
          "internalType": "uint256",
          "name": "feePercentOut",
          "type": "uint256"
        }
      ],
      "name": "Swap",
      "type": "event"
    },
    {
      "anonymous": false,
      "inputs": [
        {
          "indexed": true,
          "internalType": "uint256",
          "name": "userId",
          "type": "uint256"
        },
        {
          "indexed": true,
          "internalType": "address",
          "name": "userAddress",
          "type": "address"
        },
        {
          "indexed": true,
          "internalType": "uint256",
          "name": "referrerId",
          "type": "uint256"
        }
      ],
      "name": "UserRegistered",
      "type": "event"
    },
    {
      "inputs": [
        {
          "components": [
            {
              "internalType": "address",
              "name": "token",
              "type": "address"
            },
            {
              "internalType": "uint256",
              "name": "amount",
              "type": "uint256"
            },
            {
              "internalType": "uint256",
              "name": "nonce",
              "type": "uint256"
            }
          ],
          "internalType": "struct TokenPayment",
          "name": "paymentA",
          "type": "tuple"
        },
        {
          "components": [
            {
              "internalType": "address",
              "name": "token",
              "type": "address"
            },
            {
              "internalType": "uint256",
              "name": "amount",
              "type": "uint256"
            },
            {
              "internalType": "uint256",
              "name": "nonce",
              "type": "uint256"
            }
          ],
          "internalType": "struct TokenPayment",
          "name": "paymentB",
          "type": "tuple"
        },
        {
          "internalType": "uint256",
          "name": "amountAMin",
          "type": "uint256"
        },
        {
          "internalType": "uint256",
          "name": "amountBMin",
          "type": "uint256"
        },
        {
          "internalType": "uint256",
          "name": "deadline",
          "type": "uint256"
        }
      ],
      "name": "addLiquidity",
      "outputs": [
        {
          "internalType": "uint256",
          "name": "amountA",
          "type": "uint256"
        },
        {
          "internalType": "uint256",
          "name": "amountB",
          "type": "uint256"
        },
        {
          "internalType": "uint256",
          "name": "liquidity",
          "type": "uint256"
        },
        {
          "internalType": "address",
          "name": "pair",
          "type": "address"
        }
      ],
      "stateMutability": "payable",
      "type": "function"
    },
    {
      "inputs": [
        {
          "internalType": "uint256",
          "name": "index",
          "type": "uint256"
        }
      ],
      "name": "allPairs",
      "outputs": [
        {
          "internalType": "address",
          "name": "",
          "type": "address"
        }
      ],
      "stateMutability": "view",
      "type": "function"
    },
    {
      "inputs": [],
      "name": "allPairsLength",
      "outputs": [
        {
          "internalType": "uint256",
          "name": "",
          "type": "uint256"
        }
      ],
      "stateMutability": "view",
      "type": "function"
    },
    {
      "inputs": [
        {
          "components": [
            {
              "internalType": "address",
              "name": "token",
              "type": "address"
            },
            {
              "internalType": "uint256",
              "name": "amount",
              "type": "uint256"
            },
            {
              "internalType": "uint256",
              "name": "nonce",
              "type": "uint256"
            }
          ],
          "internalType": "struct TokenPayment",
          "name": "paymentA",
          "type": "tuple"
        },
        {
          "components": [
            {
              "internalType": "address",
              "name": "token",
              "type": "address"
            },
            {
              "internalType": "uint256",
              "name": "amount",
              "type": "uint256"
            },
            {
              "internalType": "uint256",
              "name": "nonce",
              "type": "uint256"
            }
          ],
          "internalType": "struct TokenPayment",
          "name": "paymentB",
          "type": "tuple"
        }
      ],
      "name": "createPair",
      "outputs": [
        {
          "internalType": "address",
          "name": "pairAddress",
          "type": "address"
        },
        {
          "internalType": "uint256",
          "name": "liquidity",
          "type": "uint256"
        }
      ],
      "stateMutability": "payable",
      "type": "function"
    },
    {
      "inputs": [],
      "name": "feeTo",
      "outputs": [
        {
          "internalType": "address",
          "name": "",
          "type": "address"
        }
      ],
      "stateMutability": "view",
      "type": "function"
    },
    {
      "inputs": [],
      "name": "feeToSetter",
      "outputs": [
        {
          "internalType": "address",
          "name": "",
          "type": "address"
        }
      ],
      "stateMutability": "view",
      "type": "function"
    },
    {
      "inputs": [],
      "name": "getGovernance",
      "outputs": [
        {
          "internalType": "address",
          "name": "",
          "type": "address"
        }
      ],
      "stateMutability": "view",
      "type": "function"
    },
    {
      "inputs": [
        {
          "internalType": "address",
          "name": "tokenA",
          "type": "address"
        },
        {
          "internalType": "address",
          "name": "tokenB",
          "type": "address"
        }
      ],
      "name": "getPair",
      "outputs": [
        {
          "internalType": "address",
          "name": "",
          "type": "address"
        }
      ],
      "stateMutability": "view",
      "type": "function"
    },
    {
      "inputs": [],
      "name": "getPairsBeacon",
      "outputs": [
        {
          "internalType": "address",
          "name": "",
          "type": "address"
        }
      ],
      "stateMutability": "view",
      "type": "function"
    },
    {
      "inputs": [
        {
          "internalType": "address",
          "name": "userAddress",
          "type": "address"
        }
      ],
      "name": "getReferrals",
      "outputs": [
        {
          "components": [
            {
              "internalType": "uint256",
              "name": "id",
              "type": "uint256"
            },
            {
              "internalType": "address",
              "name": "referralAddress",
              "type": "address"
            }
          ],
          "internalType": "struct ReferralInfo[]",
          "name": "",
          "type": "tuple[]"
        }
      ],
      "stateMutability": "view",
      "type": "function"
    },
    {
      "inputs": [
        {
          "internalType": "address",
          "name": "userAddress",
          "type": "address"
        }
      ],
      "name": "getReferrer",
      "outputs": [
        {
          "internalType": "uint256",
          "name": "referrerId",
          "type": "uint256"
        },
        {
          "internalType": "address",
          "name": "referrerAddress",
          "type": "address"
        }
      ],
      "stateMutability": "view",
      "type": "function"
    },
    {
      "inputs": [
        {
          "internalType": "address",
          "name": "userAddress",
          "type": "address"
        }
      ],
      "name": "getUserId",
      "outputs": [
        {
          "internalType": "uint256",
          "name": "",
          "type": "uint256"
        }
      ],
      "stateMutability": "view",
      "type": "function"
    },
    {
      "inputs": [],
      "name": "getWrappedNativeToken",
      "outputs": [
        {
          "internalType": "address",
          "name": "",
          "type": "address"
        }
      ],
      "stateMutability": "view",
      "type": "function"
    },
    {
      "inputs": [
        {
          "internalType": "address",
          "name": "initialOwner",
          "type": "address"
        },
        {
          "internalType": "address",
          "name": "gainzToken",
          "type": "address"
        }
      ],
      "name": "initialize",
      "outputs": [],
      "stateMutability": "nonpayable",
      "type": "function"
    },
    {
      "inputs": [],
      "name": "owner",
      "outputs": [
        {
          "internalType": "address",
          "name": "",
          "type": "address"
        }
      ],
      "stateMutability": "view",
      "type": "function"
    },
    {
      "inputs": [],
      "name": "pairs",
      "outputs": [
        {
          "internalType": "address[]",
          "name": "",
          "type": "address[]"
        }
      ],
      "stateMutability": "view",
      "type": "function"
    },
    {
      "inputs": [
        {
          "internalType": "address",
          "name": "user",
          "type": "address"
        },
        {
          "internalType": "uint256",
          "name": "referrerId",
          "type": "uint256"
        }
      ],
      "name": "register",
      "outputs": [],
      "stateMutability": "nonpayable",
      "type": "function"
    },
    {
      "inputs": [
        {
          "internalType": "uint256",
          "name": "referrerId",
          "type": "uint256"
        },
        {
          "internalType": "bytes",
          "name": "swapData",
          "type": "bytes"
        }
      ],
      "name": "registerAndSwap",
      "outputs": [],
      "stateMutability": "payable",
      "type": "function"
    },
    {
      "inputs": [
        {
          "internalType": "address",
          "name": "tokenA",
          "type": "address"
        },
        {
          "internalType": "address",
          "name": "tokenB",
          "type": "address"
        },
        {
          "internalType": "uint256",
          "name": "liquidity",
          "type": "uint256"
        },
        {
          "internalType": "uint256",
          "name": "amountAMin",
          "type": "uint256"
        },
        {
          "internalType": "uint256",
          "name": "amountBMin",
          "type": "uint256"
        },
        {
          "internalType": "address",
          "name": "to",
          "type": "address"
        },
        {
          "internalType": "uint256",
          "name": "deadline",
          "type": "uint256"
        }
      ],
      "name": "removeLiquidity",
      "outputs": [
        {
          "internalType": "uint256",
          "name": "amountA",
          "type": "uint256"
        },
        {
          "internalType": "uint256",
          "name": "amountB",
          "type": "uint256"
        }
      ],
      "stateMutability": "nonpayable",
      "type": "function"
    },
    {
      "inputs": [],
      "name": "renounceOwnership",
      "outputs": [],
      "stateMutability": "nonpayable",
      "type": "function"
    },
    {
      "inputs": [
        {
          "internalType": "address",
          "name": "_feeTo",
          "type": "address"
        }
      ],
      "name": "setFeeTo",
      "outputs": [],
      "stateMutability": "nonpayable",
      "type": "function"
    },
    {
      "inputs": [
        {
          "internalType": "address",
          "name": "_feeToSetter",
          "type": "address"
        }
      ],
      "name": "setFeeToSetter",
      "outputs": [],
      "stateMutability": "nonpayable",
      "type": "function"
    },
    {
      "inputs": [],
      "name": "setPriceOracle",
      "outputs": [],
      "stateMutability": "nonpayable",
      "type": "function"
    },
    {
      "inputs": [
        {
          "internalType": "uint256",
          "name": "amountIn",
          "type": "uint256"
        },
        {
          "internalType": "uint256",
          "name": "amountOutMin",
          "type": "uint256"
        },
        {
          "internalType": "address[]",
          "name": "path",
          "type": "address[]"
        },
        {
          "internalType": "address",
          "name": "to",
          "type": "address"
        },
        {
          "internalType": "uint256",
          "name": "deadline",
          "type": "uint256"
        }
      ],
      "name": "swapExactTokensForTokens",
      "outputs": [
        {
          "internalType": "uint256[2][]",
          "name": "amounts",
          "type": "uint256[2][]"
        }
      ],
      "stateMutability": "payable",
      "type": "function"
    },
    {
      "inputs": [],
      "name": "totalUsers",
      "outputs": [
        {
          "internalType": "uint256",
          "name": "",
          "type": "uint256"
        }
      ],
      "stateMutability": "view",
      "type": "function"
    },
    {
      "inputs": [
        {
          "internalType": "address",
          "name": "newOwner",
          "type": "address"
        }
      ],
      "name": "transferOwnership",
      "outputs": [],
      "stateMutability": "nonpayable",
      "type": "function"
    },
    {
      "inputs": [
        {
          "internalType": "uint256",
          "name": "id",
          "type": "uint256"
        }
      ],
      "name": "userIdToAddress",
      "outputs": [
        {
          "internalType": "address",
          "name": "",
          "type": "address"
        }
      ],
      "stateMutability": "view",
      "type": "function"
    },
    {
      "stateMutability": "payable",
      "type": "receive"
    }
  ],
  "bytecode": "0x6080604052348015600f57600080fd5b5061567a8061001f6000396000f3fe60806040526004361061016f5760003560e01c80636d705ebb116100cc578063baa2abde1161007a578063baa2abde146103f7578063bff1f9e11461042c578063cb02f4b814610441578063e6a4390514610473578063f2fde38b14610493578063f46901ed146104b3578063ffb0a4a0146104d357600080fd5b80636d705ebb1461031c578063715018a61461033c5780638da5cb5b146103515780639a55ea8e14610366578063a2e74af61461037b578063ae52a3021461039b578063b1695201146103d757600080fd5b80632b956ff7116101295780632b956ff71461021a57806338ed17391461024857806341a0894d14610268578063485cc955146102955780634a9fefc7146102b5578063574f2ba3146102f2578063606e018c1461030757600080fd5b8062e720ff1461017b578063017e7e5814610190578063094b7415146101bb5780631d9478b6146101d05780631e3dd18b146101e5578063289b3c0d1461020557600080fd5b3661017657005b600080fd5b61018e610189366004611c6f565b6104f5565b005b34801561019c57600080fd5b506101a56105be565b6040516101b29190611ceb565b60405180910390f35b3480156101c757600080fd5b506101a56105d7565b3480156101dc57600080fd5b506101a56105f3565b3480156101f157600080fd5b506101a5610200366004611cff565b61060f565b34801561021157600080fd5b506101a5610648565b34801561022657600080fd5b5061023a610235366004611d3d565b610664565b6040519081526020016101b2565b61025b610256366004611d61565b610690565b6040516101b29190611e05565b34801561027457600080fd5b50610288610283366004611d3d565b61076b565b6040516101b29190611e70565b3480156102a157600080fd5b5061018e6102b0366004611ebd565b610808565b3480156102c157600080fd5b506102d56102d0366004611d3d565b610b4d565b604080519283526001600160a01b039091166020830152016101b2565b3480156102fe57600080fd5b5061023a610bea565b34801561031357600080fd5b506101a5610bfd565b34801561032857600080fd5b5061018e610337366004611ef6565b610c19565b34801561034857600080fd5b5061018e610cc8565b34801561035d57600080fd5b506101a5610cdc565b34801561037257600080fd5b5061018e610d0a565b34801561038757600080fd5b5061018e610396366004611d3d565b610e0e565b6103ae6103a9366004611ff7565b610e9c565b604080519485526020850193909352918301526001600160a01b031660608201526080016101b2565b3480156103e357600080fd5b506101a56103f2366004611cff565b610fcb565b34801561040357600080fd5b50610417610412366004612048565b610ff2565b604080519283526020830191909152016101b2565b34801561043857600080fd5b5061023a6111e9565b61045461044f3660046120bb565b6111f9565b604080516001600160a01b0390931683526020830191909152016101b2565b34801561047f57600080fd5b506101a561048e366004611ebd565b611522565b34801561049f57600080fd5b5061018e6104ae366004611d3d565b61155c565b3480156104bf57600080fd5b5061018e6104ce366004611d3d565b61159a565b3480156104df57600080fd5b506104e8611620565b6040516101b291906120f0565b6000546001600160a01b03161561050e5761050e612131565b600080546001600160a01b0319163390811790915561052d908461168b565b50600080306001600160a01b031634858560405161054c929190612147565b60006040518083038185875af1925050503d8060008114610589576040519150601f19603f3d011682016040523d82523d6000602084013e61058e565b606091505b5091509150816105a75780511561017657805160208201fd5b5050600080546001600160a01b0319169055505050565b60006105c861172f565b546001600160a01b0316919050565b60006105e161172f565b600101546001600160a01b0316919050565b60006105fd61172f565b600201546001600160a01b0316919050565b6000610619611753565b600101828154811061062d5761062d612157565b6000918252602090912001546001600160a01b031692915050565b600061065261172f565b600501546001600160a01b0316919050565b600061066e611777565b6001600160a01b03909216600090815260019290920160205250604090205490565b606081428110156106b457604051630407b05b60e31b815260040160405180910390fd5b73__$100f565cb7d318a59dd5997132ee716769$__63aaeaa1e7898989898960008054906101000a90046001600160a01b03166106ef6105f3565b6106f7610bfd565b6040518963ffffffff1660e01b815260040161071a98979695949392919061216d565b600060405180830381865af4158015610737573d6000803e3d6000fd5b505050506040513d6000823e601f3d908101601f1916820160405261075f9190810190612235565b98975050505050505050565b606073__$dd42bc3aae109a21b32e8d93591c60798d$__634c95b4da61078f611777565b6040516001600160e01b031960e084901b16815260048101919091526001600160a01b0385166024820152604401600060405180830381865af41580156107da573d6000803e3d6000fd5b505050506040513d6000823e601f3d908101601f191682016040526108029190810190612316565b92915050565b600061081261179a565b805490915060ff600160401b82041615906001600160401b03166000811580156108395750825b90506000826001600160401b031660011480156108555750303b155b905081158015610863575080155b156108815760405163f92ee8a960e01b815260040160405180910390fd5b845467ffffffffffffffff1916600117855583156108ab57845460ff60401b1916600160401b1785555b6108b4876117c3565b60006108be61172f565b90506108c8610cdc565b81546001600160a01b03919091166001600160a01b031991821681178355600183018054831690911790556003820180549091163317905561091060068201620151806117d4565b60405161091c90611c48565b604051809103906000f080158015610938573d6000803e3d6000fd5b5060038201546040516001600160a01b039091169061095690611c55565b6109619291906123d4565b604051809103906000f08015801561097d573d6000803e3d6000fd5b50600482810180546001600160a01b0319166001600160a01b039384161790556003830154604051631f34340560e11b815273__$84a8c10506c85ae3ca914a5eeeabeeb510$__93633e68680a936109db93909116918d91016123d4565b602060405180830381865af41580156109f8573d6000803e3d6000fd5b505050506040513d601f19601f82011682018060405250810190610a1c91906123ee565b6002820180546001600160a01b0319166001600160a01b03928316908117909155600383015460405163bd2632fd60e01b815260068501546004820152600785015460248201528a841660448201526064810192909252909116608482015273__$fa5fdc3f1d6f48689234302c30102a1d99$__9063bd2632fd9060a401602060405180830381865af4158015610ab7573d6000803e3d6000fd5b505050506040513d601f19601f82011682018060405250810190610adb91906123ee565b60059190910180546001600160a01b0319166001600160a01b039092169190911790558315610b4457845460ff60401b19168555604051600181527fc7f505b2f371ae2175ee4913f4499e1f2633a7b5936321eed1cdaeb6115181d29060200160405180910390a15b50505050505050565b60008073__$dd42bc3aae109a21b32e8d93591c60798d$__63db636864610b72611777565b6040516001600160e01b031960e084901b16815260048101919091526001600160a01b03861660248201526044016040805180830381865af4158015610bbc573d6000803e3d6000fd5b505050506040513d601f19601f82011682018060405250810190610be0919061240b565b9094909350915050565b6000610bf4611753565b60010154919050565b6000610c0761172f565b600401546001600160a01b0316919050565b610c2161172f565b60050160009054906101000a90046001600160a01b03166001600160a01b03166320d860026040518163ffffffff1660e01b8152600401602060405180830381865afa158015610c75573d6000803e3d6000fd5b505050506040513d601f19601f82011682018060405250810190610c9991906123ee565b6001600160a01b0316336001600160a01b031614610cb957610cb9612131565b610cc3828261168b565b505050565b610cd0611826565b610cda6000611858565b565b7f9016d09d72d40fdae2fd8ceac6b6234c7706214fd39c1cd1e609a0528c199300546001600160a01b031690565b73__$123fdf4830e7a9c7c8cf199bf771ab2d9f$__63efc81a8c6040518163ffffffff1660e01b8152600401602060405180830381865af4158015610d53573d6000803e3d6000fd5b505050506040513d601f19601f82011682018060405250810190610d7791906123ee565b6001600160a01b031673__$bc9449f9a70e64213a5a9572d753eb9017$__638680fdeb306040518263ffffffff1660e01b8152600401610db79190611ceb565b602060405180830381865af4158015610dd4573d6000803e3d6000fd5b505050506040513d601f19601f82011682018060405250810190610df891906123ee565b6001600160a01b031614610cda57610cda612131565b610e166105d7565b6001600160a01b0316336001600160a01b031614610e6f5760405162461bcd60e51b81526020600482015260116024820152702937baba32b91d102327a92124a22222a760791b60448201526064015b60405180910390fd5b80610e7861172f565b60010180546001600160a01b0319166001600160a01b039290921691909117905550565b6000806000808442811015610ec457604051630407b05b60e31b815260040160405180910390fd5b89518951610ed29190611522565b915073__$100f565cb7d318a59dd5997132ee716769$__634d510c958b8b8b8b87610efb6105f3565b6040805160e089901b6001600160e01b031916815287516001600160a01b0390811660048301526020808a0151602484015298830151604483015287518116606483015297870151608482015295015160a486015260c485019390935260e4840191909152831661010483015290911661012482015261014401606060405180830381865af4158015610f92573d6000803e3d6000fd5b505050506040513d601f19601f82011682018060405250810190610fb69190612431565b919c909b509099509197509095505050505050565b6000610fd5611777565b60009283526002016020525060409020546001600160a01b031690565b600080824281101561101757604051630407b05b60e31b815260040160405180910390fd5b60006110238b8b611522565b90506001600160a01b0381166110725760405162461bcd60e51b81526020600482015260146024820152732937baba32b91d1024a72b20a624a22fa820a4a960611b6044820152606401610e66565b6040516323b872dd60e01b81523360048201526001600160a01b03821660248201819052604482018b9052906323b872dd906064016020604051808303816000875af11580156110c6573d6000803e3d6000fd5b505050506040513d601f19601f820116820180604052508101906110ea919061246f565b50600080826001600160a01b03166389afcb44896040518263ffffffff1660e01b815260040161111a9190611ceb565b60408051808303816000875af1158015611138573d6000803e3d6000fd5b505050506040513d601f19601f8201168201806040525081019061115c919061248a565b91509150600061116c8e8e6118c9565b509050806001600160a01b03168e6001600160a01b03161461118f578183611192565b82825b90975095508a8710156111b757604051622a88fb60e01b815260040160405180910390fd5b898610156111d857604051632614d2b560e11b815260040160405180910390fd5b505050505097509795505050505050565b60006111f3611777565b54919050565b600080600061120661172f565b9050611210610cdc565b6001600160a01b0316336001600160a01b03161415801561123e575060058101546001600160a01b03163314155b1561125c57604051631d0dcaf960e01b815260040160405180910390fd5b600061126661172f565b6005015486516040516370ac221960e01b81526001600160a01b0390921692508291600091829184916370ac2219916112a29190600401611ceb565b61014060405180830381865afa1580156112c0573d6000803e3d6000fd5b505050506040513d601f19601f820116820180604052508101906112e491906124f3565b5189516040516370ac221960e01b81526001600160a01b039283169390931415935060009283928616916370ac2219916113219190600401611ceb565b61014060405180830381865afa15801561133f573d6000803e3d6000fd5b505050506040513d601f19601f8201168201806040525081019061136391906124f3565b516001600160a01b0316141590508115801561137d575080155b6113c95760405162461bcd60e51b815260206004820152601b60248201527f546f6b656e20616c726561647920696e204c61756e63685061697200000000006044820152606401610e66565b885188516113ec91906113da61172f565b600401546001600160a01b03166119ad565b965061140189896000806103a942600161258f565b50604051638680fdeb60e01b815290985073__$bc9449f9a70e64213a5a9572d753eb9017$__9250638680fdeb915061143e903090600401611ceb565b602060405180830381865af415801561145b573d6000803e3d6000fd5b505050506040513d601f19601f8201168201806040525081019061147f91906123ee565b89516001600160a01b03918216916352c28fab9116156114a0578a516114a8565b6114a86105f3565b8a516001600160a01b0316156114bf578a516114c7565b6114c76105f3565b6040518363ffffffff1660e01b81526004016114e49291906123d4565b600060405180830381600087803b1580156114fe57600080fd5b505af1158015611512573d6000803e3d6000fd5b5050505050505050509250929050565b600061152c611753565b6001600160a01b038085166000908152602092835260408082208684168352909352919091205416905092915050565b611564611826565b6001600160a01b03811661158e576000604051631e4fbdf760e01b8152600401610e669190611ceb565b61159781611858565b50565b6115a26105d7565b6001600160a01b0316336001600160a01b0316146115f65760405162461bcd60e51b81526020600482015260116024820152702937baba32b91d102327a92124a22222a760791b6044820152606401610e66565b806115ff61172f565b80546001600160a01b0319166001600160a01b039290921691909117905550565b606061162a611753565b60010180548060200260200160405190810160405280929190818152602001828054801561168157602002820191906000526020600020905b81546001600160a01b03168152600190910190602001808311611663575b5050505050905090565b600073__$dd42bc3aae109a21b32e8d93591c60798d$__634182e8196116af611777565b6040516001600160e01b031960e084901b16815260048101919091526001600160a01b038616602482015260448101859052606401606060405180830381865af4158015611701573d6000803e3d6000fd5b505050506040513d601f19601f8201168201806040525081019061172591906125b0565b5090949350505050565b7fae974aecfb7025a5d7fc4d7e9ba067575060084b22f04fa48d6bbae6c0d48d0090565b7fc4825425231a5778c376b527fa35b881155eeee14e05c41074ff3d19f04f4c0090565b7e38ec5cf8f0d1747ebb72ff0e651cf1b10ea4f74874fe0bde352ae49428c50090565b6000807ff0c57e16840df040f15088dc2f81fe391c3923bec73e23a9662efc9c229c6a00610802565b6117cb611c01565b61159781611c26565b42825560018201819055806118225760405162461bcd60e51b8152602060048201526014602482015273092dcecc2d8d2c8408ae0dec6d040d8cadccee8d60631b6044820152606401610e66565b5050565b3361182f610cdc565b6001600160a01b031614610cda573360405163118cdaa760e01b8152600401610e669190611ceb565b7f9016d09d72d40fdae2fd8ceac6b6234c7706214fd39c1cd1e609a0528c19930080546001600160a01b031981166001600160a01b03848116918217845560405192169182907f8be0079c531659141344cd1fd0a4f28419497f9722a3daafe3b4186f6b6457e090600090a3505050565b600080826001600160a01b0316846001600160a01b03160361192d5760405162461bcd60e51b815260206004820152601f60248201527f414d4d4c6962726172793a204944454e544943414c5f414444524553534553006044820152606401610e66565b826001600160a01b0316846001600160a01b03161061194d578284611950565b83835b90925090506001600160a01b0382166119a65760405162461bcd60e51b8152602060048201526018602482015277414d4d4c6962726172793a205a45524f5f4144445245535360401b6044820152606401610e66565b9250929050565b6000826001600160a01b0316846001600160a01b0316036119e15760405163065af08d60e01b815260040160405180910390fd5b600080846001600160a01b0316866001600160a01b031610611a04578486611a07565b85855b90925090506001600160a01b038216611a335760405163d92e233d60e01b815260040160405180910390fd5b6000611a3d611753565b6001600160a01b0384811660009081526020838152604080832087851684529091529020549192501615611a8457604051633d77e89160e01b815260040160405180910390fd5b6040516bffffffffffffffffffffffff19606085811b8216602084015284901b166034820152604801604051602081830303815290604052805190602001208563485cc95560e01b8585604051602401611adf9291906123d4565b60408051601f198184030181529181526020820180516001600160e01b03166001600160e01b0319909416939093179092529051611b1c90611c62565b611b279291906125ec565b8190604051809103906000f5905080158015611b47573d6000803e3d6000fd5b506001600160a01b0384811660008181526020858152604080832088861680855290835281842080546001600160a01b0319908116978916978817909155888452828520868652845282852080548216881790556001808a0180549182018155808752958590200180549091168717905592548151958652918501919091529397509290917f0d3648bd0f6ba80134a33ba9275ac585d9d315f0ad8355cddefde31afa28d0e9910160405180910390a35050509392505050565b611c09611c2e565b610cda57604051631afcd79f60e31b815260040160405180910390fd5b611564611c01565b6000611c3861179a565b54600160401b900460ff16919050565b6125fe8061264a83390190565b61043880614c4883390190565b6105c58061508083390190565b600080600060408486031215611c8457600080fd5b8335925060208401356001600160401b03811115611ca157600080fd5b8401601f81018613611cb257600080fd5b80356001600160401b03811115611cc857600080fd5b866020828401011115611cda57600080fd5b939660209190910195509293505050565b6001600160a01b0391909116815260200190565b600060208284031215611d1157600080fd5b5035919050565b6001600160a01b038116811461159757600080fd5b8035611d3881611d18565b919050565b600060208284031215611d4f57600080fd5b8135611d5a81611d18565b9392505050565b60008060008060008060a08789031215611d7a57600080fd5b863595506020870135945060408701356001600160401b03811115611d9e57600080fd5b8701601f81018913611daf57600080fd5b80356001600160401b03811115611dc557600080fd5b8960208260051b8401011115611dda57600080fd5b60209190910194509250611df060608801611d2d565b95989497509295919493608090920135925050565b602080825282518282018190526000918401906040840190835b81811015611e655783518360005b6002811015611e4c578251825260209283019290910190600101611e2d565b5050506020939093019260409290920191600101611e1f565b509095945050505050565b602080825282518282018190526000918401906040840190835b81811015611e65578351805184526020908101516001600160a01b03168185015290930192604090920191600101611e8a565b60008060408385031215611ed057600080fd5b8235611edb81611d18565b91506020830135611eeb81611d18565b809150509250929050565b60008060408385031215611f0957600080fd5b8235611f1481611d18565b946020939093013593505050565b634e487b7160e01b600052604160045260246000fd5b604051606081016001600160401b0381118282101715611f5a57611f5a611f22565b60405290565b604080519081016001600160401b0381118282101715611f5a57611f5a611f22565b604051601f8201601f191681016001600160401b0381118282101715611faa57611faa611f22565b604052919050565b600060608284031215611fc457600080fd5b611fcc611f38565b90508135611fd981611d18565b81526020828101359082015260409182013591810191909152919050565b6000806000806000610120868803121561201057600080fd5b61201a8787611fb2565b94506120298760608801611fb2565b949794965050505060c08301359260e081013592610100909101359150565b600080600080600080600060e0888a03121561206357600080fd5b873561206e81611d18565b9650602088013561207e81611d18565b955060408801359450606088013593506080880135925060a08801356120a381611d18565b96999598509396929591949193505060c09091013590565b60008060c083850312156120ce57600080fd5b6120d88484611fb2565b91506120e78460608501611fb2565b90509250929050565b602080825282518282018190526000918401906040840190835b81811015611e655783516001600160a01b031683526020938401939092019160010161210a565b634e487b7160e01b600052600160045260246000fd5b8183823760009101908152919050565b634e487b7160e01b600052603260045260246000fd5b8881526020810188905260e06040820181905281018690526000876101008301825b898110156121bf5782356121a281611d18565b6001600160a01b031682526020928301929091019060010161218f565b506001600160a01b038816606085015291506121d89050565b6001600160a01b03851660808301526001600160a01b03841660a08301526001600160a01b03831660c08301529998505050505050505050565b60006001600160401b0382111561222b5761222b611f22565b5060051b60200190565b60006020828403121561224757600080fd5b81516001600160401b0381111561225d57600080fd5b8201601f8101841361226e57600080fd5b805161228161227c82612212565b611f82565b8082825260208201915060208360061b8501019250868311156122a357600080fd5b6020840193505b8284101561230c5786601f8501126122c157600080fd5b6122c9611f60565b8060408601898111156122db57600080fd5b865b818110156122f55780518452602093840193016122dd565b5050835250604093909301926020909101906122aa565b9695505050505050565b60006020828403121561232857600080fd5b81516001600160401b0381111561233e57600080fd5b8201601f8101841361234f57600080fd5b805161235d61227c82612212565b8082825260208201915060208360061b85010192508683111561237f57600080fd5b6020840193505b8284101561230c576040848803121561239e57600080fd5b6123a6611f60565b8451815260208501516123b881611d18565b8060208301525080835250602082019150604084019350612386565b6001600160a01b0392831681529116602082015260400190565b60006020828403121561240057600080fd5b8151611d5a81611d18565b6000806040838503121561241e57600080fd5b82516020840151909250611eeb81611d18565b60008060006060848603121561244657600080fd5b5050815160208301516040909301519094929350919050565b80518015158114611d3857600080fd5b60006020828403121561248157600080fd5b611d5a8261245f565b6000806040838503121561249d57600080fd5b505080516020909101519092909150565b6000606082840312156124c057600080fd5b6124c8611f38565b905081516124d581611d18565b81526020828101519082015260409182015191810191909152919050565b600061014082840312801561250757600080fd5b5060405160c081016001600160401b038111828210171561252a5761252a611f22565b604052825161253881611d18565b815261254784602085016124ae565b602082015261255984608085016124ae565b604082015260e0830151606082015261010083015161257781611d18565b6080820152610120929092015160a083015250919050565b8082018082111561080257634e487b7160e01b600052601160045260246000fd5b6000806000606084860312156125c557600080fd5b835192506125d56020850161245f565b91506125e36040850161245f565b90509250925092565b60018060a01b0383168152604060208201526000825180604084015260005b81811015612628576020818601810151606086840101520161260b565b506000606082850101526060601f19601f830116840101915050939250505056fe6080604052348015600f57600080fd5b506125df8061001f6000396000f3fe608060405234801561001057600080fd5b50600436106101fb5760003560e01c8063692877f01161011a5780638da5cb5b116100ad578063ba9a7a561161007c578063ba9a7a5614610453578063d21220a71461045c578063dd62ed3e14610464578063f2fde38b14610477578063f887ea401461048a57600080fd5b80638da5cb5b1461040a57806395d89b4114610412578063a525ad3c14610437578063a9059cbb1461044057600080fd5b8063715018a6116100e9578063715018a6146103c7578063727682ad146103cf5780637ecebe00146103d757806389afcb44146103f757600080fd5b8063692877f01461037b5780636a6278421461038e5780636d9a640a146103a157806370a08231146103b457600080fd5b8063313ce5671161019257806352f7c9881161016157806352f7c9881461035057806357855e0e146103635780635909c0d51461036b5780635a3d54931461037357600080fd5b8063313ce567146103115780633644e5151461032b578063485cc955146103335780634f66a3221461034857600080fd5b80630dfe1681116101ce5780630dfe1681146102ac57806318160ddd146102c157806323b872dd146102d757806330adf81f146102ea57600080fd5b8063057dbb731461020057806306fdde03146102225780630902f1ac14610255578063095ea7b314610289575b600080fd5b610208610492565b604080519283526020830191909152015b60405180910390f35b6102486040518060400160405280600781526020016604761696e7a4c560cc1b81525081565b6040516102199190612192565b61025d6104b4565b604080516001600160701b03948516815293909216602084015263ffffffff1690820152606001610219565b61029c6102973660046121da565b6104f3565b6040519015158152602001610219565b6102b461050a565b6040516102199190612206565b6102c9610526565b604051908152602001610219565b61029c6102e536600461221a565b610538565b6102c97f6e71edae12b1b97f4d1f60370fef10105fa2faae0126114a169c64845d6126c981565b610319601281565b60405160ff9091168152602001610219565b6102c96105f4565b61034661034136600461225b565b610607565b005b6102c9602381565b61034661035e366004612294565b610769565b6102c9600581565b6102c96108bc565b6102c96108cf565b6102c9610389366004612294565b6108e2565b6102c961039c3660046122b6565b610a27565b6103466103af3660046122d3565b610cf7565b6102c96103c23660046122b6565b611262565b61034661128f565b6103466112a3565b6102c96103e53660046122b6565b60006020819052908152604090205481565b6102086104053660046122b6565b6112ff565b6102b4611676565b610248604051806040016040528060068152602001650474e5a2d4c560d41b81525081565b6102c961271081565b61029c61044e3660046121da565b6116a4565b6102c96103e881565b6102b46116b1565b6102c961047236600461225b565b6116cd565b6103466104853660046122b6565b611709565b6102b4611747565b600080600061049f611760565b90508060080154816009015492509250509091565b6000806000806104c2611760565b600301546001600160701b0380821696600160701b83049091169550600160e01b90910463ffffffff169350915050565b6000610500338484611784565b5060015b92915050565b6000610514611760565b600101546001600160a01b0316919050565b6000806105316117fa565b5492915050565b6000806105436117fa565b6001600160a01b03861660009081526002820160209081526040808320338452909152902054909150838110156105a257604051637dc7a0d960e11b815233600482015260248101829052604481018590526064015b60405180910390fd5b6001600160a01b03861660009081526002830160209081526040808320338452909152812080548692906105d7908490612322565b909155506105e8905086868661181d565b50600195945050505050565b60006105fe6117fa565b60030154905090565b60006106116118d1565b805490915060ff600160401b820416159067ffffffffffffffff166000811580156106395750825b905060008267ffffffffffffffff1660011480156106565750303b155b905081158015610664575080155b156106825760405163f92ee8a960e01b815260040160405180910390fd5b845467ffffffffffffffff1916600117855583156106ac57845460ff60401b1916600160401b1785555b6106b5336118fa565b6106bd61190b565b60006106c7611760565b8054336001600160a01b03199182161782556001808301805483166001600160a01b038d811691909117909155600284018054909316908b1617909155600782015560056008820155602360099091015550831561076057845460ff60401b19168555604051600181527fc7f505b2f371ae2175ee4913f4499e1f2633a7b5936321eed1cdaeb6115181d2906020015b60405180910390a15b50505050505050565b6107716119f1565b60058210156107c25760405162461bcd60e51b815260206004820152601d60248201527f506169723a206e65774d696e466565203c204d494e494d554d5f4645450000006044820152606401610599565b60238111156108135760405162461bcd60e51b815260206004820152601d60248201527f506169723a206e65774d6178466565203e204d4158494d554d5f4645450000006044820152606401610599565b808211156108635760405162461bcd60e51b815260206004820152601b60248201527f506169723a206e65774d696e466565203e206e65774d617846656500000000006044820152606401610599565b600061086d611760565b600881018490556009810183905560408051858152602081018590529192507f528d9479e9f9889a87a3c30c7f7ba537e5e59c4c85a37733b16e57c62df61302910160405180910390a1505050565b60006108c6611760565b60040154905090565b60006108d9611760565b60050154905090565b60008060006108ef6104b4565b506001600160701b031691506001600160701b031691508184148061091357508084145b6109575760405162461bcd60e51b8152602060048201526015602482015274506169723a20494e56414c49445f5245534552564560581b6044820152606401610599565b600080610962610492565b915091506000848714801561097657508385115b1561098c576109858486612322565b90506109ac565b838714801561099a57508484115b156109ac576109a98585612322565b90505b60006109b6610526565b9050600088826109c6858d612335565b6109d09190612348565b6109da9190612375565b90506000826109e98787612322565b6109f39084612348565b6109fd9190612375565b610a079087612335565b9050848111610a165780610a18565b845b9b9a5050505050505050505050565b600080610a32611760565b90508060070154600114610a585760405162461bcd60e51b815260040161059990612389565b60006007820155610a676119f1565b6000610a71611760565b9050600080610a7e6104b4565b5060018501546040516370a0823160e01b81529294509092506000916001600160a01b03909116906370a0823190610aba903090600401612206565b602060405180830381865afa158015610ad7573d6000803e3d6000fd5b505050506040513d601f19601f82011682018060405250810190610afb91906123af565b60028501546040516370a0823160e01b81529192506000916001600160a01b03909116906370a0823190610b33903090600401612206565b602060405180830381865afa158015610b50573d6000803e3d6000fd5b505050506040513d601f19601f82011682018060405250810190610b7491906123af565b90506000610b8b6001600160701b03861684612322565b90506000610ba26001600160701b03861684612322565b90506000610bae610526565b905080600003610beb576103e8610bcd610bc88486612348565b611a23565b610bd79190612322565b9950610be660006103e8611a93565b610c32565b610c2f6001600160701b038816610c028386612348565b610c0c9190612375565b6001600160701b038816610c208486612348565b610c2a9190612375565b611b2e565b99505b60008a11610c8e5760405162461bcd60e51b815260206004820152602360248201527f506169723a20494e53554646494349454e545f4c49515549444954595f4d494e60448201526215115160ea1b6064820152608401610599565b610c988b8b611a93565b610ca485858989611b46565b604080518481526020810184905233917f4c209b5fc8ad50758f13e2e1088ba56a560dff690a1c6fef26394f4c03821c4f910160405180910390a250505050505050506001816007018190555050919050565b6000610d01611760565b90508060070154600114610d275760405162461bcd60e51b815260040161059990612389565b60006007820155610d366119f1565b6000841180610d455750600083115b610d915760405162461bcd60e51b815260206004820181905260248201527f506169723a20494e53554646494349454e545f4f55545055545f414d4f554e546044820152606401610599565b6000610d9b611760565b9050600080610da86104b4565b5091509150816001600160701b031687108015610dcd5750806001600160701b031686105b610e195760405162461bcd60e51b815260206004820152601c60248201527f506169723a20494e53554646494349454e545f4c4951554944495459000000006044820152606401610599565b60018301546001600160a01b03868116911614801590610e49575060028301546001600160a01b03868116911614155b610e885760405162461bcd60e51b815260206004820152601060248201526f506169723a20494e56414c49445f544f60801b6044820152606401610599565b600080610e9e89856001600160701b0316611d36565b91509150600080610eb88a866001600160701b0316611d36565b90925090508315610edc576001870154610edc906001600160a01b03168a86611d83565b8115610efb576002870154610efb906001600160a01b03168a84611d83565b60018701546040516370a0823160e01b81526000916001600160a01b0316906370a0823190610f2e903090600401612206565b602060405180830381865afa158015610f4b573d6000803e3d6000fd5b505050506040513d601f19601f82011682018060405250810190610f6f91906123af565b60028901546040516370a0823160e01b81529192506000916001600160a01b03909116906370a0823190610fa7903090600401612206565b602060405180830381865afa158015610fc4573d6000803e3d6000fd5b505050506040513d601f19601f82011682018060405250810190610fe891906123af565b90506000610fff876001600160701b038b16612322565b831161100c576000611029565b61101f876001600160701b038b16612322565b6110299084612322565b90506000611040866001600160701b038b16612322565b831161104d57600061106a565b611060866001600160701b038b16612322565b61106a9084612322565b9050600082118061107b5750600081115b6110c75760405162461bcd60e51b815260206004820152601f60248201527f506169723a20494e53554646494349454e545f494e5055545f414d4f554e54006044820152606401610599565b60006110d38884612348565b6110df61271087612348565b6110e99190612322565b905060006110f78784612348565b61110361271087612348565b61110d9190612322565b905061111c60026127106124af565b6111326001600160701b03808e16908f16612348565b61113c9190612348565b6111468284612348565b101561117e5760405162461bcd60e51b8152602060048201526007602482015266506169723a204b60c81b6044820152606401610599565b60006111948d8d61118f8b8e612335565b611e96565b90506111a287878f8f611b46565b80156111dd5760006111b2611760565b60038101549091506111d6906001600160701b03600160701b820481169116612348565b6006909101555b8f6001600160a01b0316336001600160a01b03167fd78ad95fa46c994b6551d0da85fc275fe613ce37657fb8d5e3d130840159d82287878f8e60405161123c949392919093845260208401929092526040830152606082015260800190565b60405180910390a350505050505050505050505050506001816007018190555050505050565b60008061126d6117fa565b6001600160a01b03909316600090815260019093016020525050604090205490565b6112976119f1565b6112a16000611ff3565b565b60006112ad611760565b6005600882018190556023600983018190556040805192835260208301919091529192507f528d9479e9f9889a87a3c30c7f7ba537e5e59c4c85a37733b16e57c62df61302910160405180910390a150565b600080600061130c611760565b905080600701546001146113325760405162461bcd60e51b815260040161059990612389565b600060078201556113416119f1565b600061134b611760565b6003810154600182015460028301546040516370a0823160e01b81529394506001600160701b0380841694600160701b90940416926001600160a01b03928316929091169060009083906370a08231906113a9903090600401612206565b602060405180830381865afa1580156113c6573d6000803e3d6000fd5b505050506040513d601f19601f820116820180604052508101906113ea91906123af565b90506000826001600160a01b03166370a08231306040518263ffffffff1660e01b815260040161141a9190612206565b602060405180830381865afa158015611437573d6000803e3d6000fd5b505050506040513d601f19601f8201168201806040525081019061145b91906123af565b9050600061146830611262565b90506000611474610526565b9050806114818584612348565b61148b9190612375565b9b50806114988484612348565b6114a29190612375565b9a5060008c1180156114b4575060008b115b61150c5760405162461bcd60e51b815260206004820152602360248201527f506169723a20494e53554646494349454e545f4c49515549444954595f42555260448201526213915160ea1b6064820152608401610599565b6115163083612064565b611521868e8e611d83565b61152c858e8d611d83565b6040516370a0823160e01b81526001600160a01b038716906370a0823190611558903090600401612206565b602060405180830381865afa158015611575573d6000803e3d6000fd5b505050506040513d601f19601f8201168201806040525081019061159991906123af565b6040516370a0823160e01b81529094506001600160a01b038616906370a08231906115c8903090600401612206565b602060405180830381865afa1580156115e5573d6000803e3d6000fd5b505050506040513d601f19601f8201168201806040525081019061160991906123af565b925061161784848a8a611b46565b604080518d8152602081018d90526001600160a01b038f169133917fdccd412f0b1252819cb1fd330b93224ca42612892bb3f4f789976e6d81936496910160405180910390a35050505050505050506001816007018190555050915091565b7f9016d09d72d40fdae2fd8ceac6b6234c7706214fd39c1cd1e609a0528c199300546001600160a01b031690565b600061050033848461181d565b60006116bb611760565b600201546001600160a01b0316919050565b6000806116d86117fa565b6001600160a01b03948516600090815260029190910160209081526040808320959096168252939093525050205490565b6117116119f1565b6001600160a01b03811661173b576000604051631e4fbdf760e01b81526004016105999190612206565b61174481611ff3565b50565b6000611751611760565b546001600160a01b0316919050565b7f052a7ca952fd79e6951e1e37bbd8a7a728c978d413c271dcc4d73117e849020090565b600061178e6117fa565b6001600160a01b0385811660008181526002840160209081526040808320948916808452948252918290208790559051868152939450919290917f8c5be1e5ebec7d5bd14f71427d1e84f3dd0314c0f7b2291e5b200ac8c7c3b92591015b60405180910390a350505050565b7e53e124b05349f2255dde42e8688e7f08d28e98ecf44867b1f7ffaee445dc0090565b60006118276117fa565b6001600160a01b0385166000908152600182016020526040812080549293508492909190611856908490612322565b90915550506001600160a01b038316600090815260018201602052604081208054849290611885908490612335565b92505081905550826001600160a01b0316846001600160a01b03167fddf252ad1be2c89b69c2b068fc378daa952ba7f163c4a11628f55a4df523b3ef846040516117ec91815260200190565b6000807ff0c57e16840df040f15088dc2f81fe391c3923bec73e23a9662efc9c229c6a00610504565b6119026120f9565b6117448161211e565b6119136120f9565b600061191d6117fa565b604080518082018252600781526604761696e7a4c560cc1b6020918201528151808301835260018152603160f81b9082015281517f8b73c3c69bb8fe3d512ecc4cf759cc79239f7b179b0ffacaa9a75d522b39400f818301527f3fb61ded361c07ba91021890b6c1942e15f6e77bae5a8ee01fc14755f936976f818401527fc89efdaa54c0f20c7adf612882df0950f5a951637e0307cdcb4c672f298b8bc660608201524660808201523060a0808301919091528351808303909101815260c0909101909252815191012060039091015550565b336119fa611676565b6001600160a01b0316146112a1573360405163118cdaa760e01b81526004016105999190612206565b60006003821115611a845750806000611a3d600283612375565b611a48906001612335565b90505b81811015611a7e57905080600281611a638186612375565b611a6d9190612335565b611a779190612375565b9050611a4b565b50919050565b8115611a8e575060015b919050565b6000611a9d6117fa565b905081816000016000828254611ab39190612335565b90915550506001600160a01b038316600090815260018201602052604081208054849290611ae2908490612335565b90915550506040518281526001600160a01b038416906000907fddf252ad1be2c89b69c2b068fc378daa952ba7f163c4a11628f55a4df523b3ef906020015b60405180910390a3505050565b6000818310611b3d5781611b3f565b825b9392505050565b6000611b50611760565b90506001600160701b038511801590611b7057506001600160701b038411155b611bad5760405162461bcd60e51b815260206004820152600e60248201526d506169723a204f564552464c4f5760901b6044820152606401610599565b6000611bbe640100000000426124be565b6003830154909150600090611be090600160e01b900463ffffffff16836124d2565b905060008163ffffffff16118015611c0057506001600160701b03851615155b8015611c1457506001600160701b03841615155b15611ca7578063ffffffff16611c3c86611c2d87612126565b6001600160e01b03169061213f565b6001600160e01b0316611c4f9190612348565b836004016000828254611c629190612335565b909155505063ffffffff8116611c7b85611c2d88612126565b6001600160e01b0316611c8e9190612348565b836005016000828254611ca19190612335565b90915550505b60038301805463ffffffff8416600160e01b026001600160e01b036001600160701b038a8116600160701b9081026001600160e01b03199095168d83161794909417918216831794859055604080519382169282169290921783529290930490911660208201527f1c411e9a96e071241c2f21f7726b17ae89e3cab4c78be50e062b03a9fffbbad19101610757565b60008083600003611d4c57508290506000611d7c565b611d5684846108e2565b9050612710611d658282612322565b611d6f9086612348565b611d799190612375565b91505b9250929050565b604080516001600160a01b038481166024830152604480830185905283518084039091018152606490920183526020820180516001600160e01b031663a9059cbb60e01b1790529151600092839290871691611ddf91906124ee565b6000604051808303816000865af19150503d8060008114611e1c576040519150601f19603f3d011682016040523d82523d6000602084013e611e21565b606091505b5091509150818015611e4b575080511580611e4b575080806020019051810190611e4b919061250a565b611e8f5760405162461bcd60e51b815260206004820152601560248201527414185a5c8e881514905394d1915497d19052531151605a1b6044820152606401610599565b5050505050565b600080611ea1611760565b905060008160000160009054906101000a90046001600160a01b03166001600160a01b031663017e7e586040518163ffffffff1660e01b8152600401602060405180830381865afa158015611efa573d6000803e3d6000fd5b505050506040513d601f19601f82011682018060405250810190611f1e919061252c565b60068301546001600160a01b0382161580159550919250908490611f425750600085115b15611fdb576000611f62610bc86001600160701b03808a16908b16612348565b90506000611f6f83611a23565b905080821115611fd4576000611f858284612322565b611f8d610526565b611f979190612348565b9050600082611fa68a86612348565b611fb09190612335565b90506000611fbe8284612375565b90508015611fd057611fd08782611a93565b5050505b5050611fe9565b8015611fe957600060068401555b5050509392505050565b7f9016d09d72d40fdae2fd8ceac6b6234c7706214fd39c1cd1e609a0528c19930080546001600160a01b031981166001600160a01b03848116918217845560405192169182907f8be0079c531659141344cd1fd0a4f28419497f9722a3daafe3b4186f6b6457e090600090a3505050565b600061206e6117fa565b6001600160a01b038416600090815260018201602052604081208054929350849290919061209d908490612322565b90915550508054829082906000906120b6908490612322565b90915550506040518281526000906001600160a01b038516907fddf252ad1be2c89b69c2b068fc378daa952ba7f163c4a11628f55a4df523b3ef90602001611b21565b612101612154565b6112a157604051631afcd79f60e31b815260040160405180910390fd5b6117116120f9565b6000610504600160701b6001600160701b038416612549565b6000611b3f6001600160701b0383168461257a565b600061215e6118d1565b54600160401b900460ff16919050565b60005b83811015612189578181015183820152602001612171565b50506000910152565b60208152600082518060208401526121b181604085016020870161216e565b601f01601f19169190910160400192915050565b6001600160a01b038116811461174457600080fd5b600080604083850312156121ed57600080fd5b82356121f8816121c5565b946020939093013593505050565b6001600160a01b0391909116815260200190565b60008060006060848603121561222f57600080fd5b833561223a816121c5565b9250602084013561224a816121c5565b929592945050506040919091013590565b6000806040838503121561226e57600080fd5b8235612279816121c5565b91506020830135612289816121c5565b809150509250929050565b600080604083850312156122a757600080fd5b50508035926020909101359150565b6000602082840312156122c857600080fd5b8135611b3f816121c5565b6000806000606084860312156122e857600080fd5b83359250602084013591506040840135612301816121c5565b809150509250925092565b634e487b7160e01b600052601160045260246000fd5b818103818111156105045761050461230c565b808201808211156105045761050461230c565b80820281158282048414176105045761050461230c565b634e487b7160e01b600052601260045260246000fd5b6000826123845761238461235f565b500490565b6020808252600c908201526b14185a5c8e881313d0d2d15160a21b604082015260600190565b6000602082840312156123c157600080fd5b5051919050565b6001815b6001841115612403578085048111156123e7576123e761230c565b60018416156123f557908102905b60019390931c9280026123cc565b935093915050565b60008261241a57506001610504565b8161242757506000610504565b816001811461243d576002811461244757612463565b6001915050610504565b60ff8411156124585761245861230c565b50506001821b610504565b5060208310610133831016604e8410600b8410161715612486575081810a610504565b61249360001984846123c8565b80600019048211156124a7576124a761230c565b029392505050565b6000611b3f60ff84168361240b565b6000826124cd576124cd61235f565b500690565b63ffffffff82811682821603908111156105045761050461230c565b6000825161250081846020870161216e565b9190910192915050565b60006020828403121561251c57600080fd5b81518015158114611b3f57600080fd5b60006020828403121561253e57600080fd5b8151611b3f816121c5565b6001600160e01b038181168382168181029092169181830481148215176125725761257261230c565b505092915050565b60006001600160e01b038316806125935761259361235f565b6001600160e01b0392909216919091049291505056fea26469706673582212204493c4ee8b4abb3390601ad63dcc5828961eecc17a534c7d5503713bce965dec64736f6c634300081c0033608060405234801561001057600080fd5b5060405161043838038061043883398101604081905261002f91610165565b806001600160a01b03811661005f57604051631e4fbdf760e01b8152600060048201526024015b60405180910390fd5b61006881610079565b50610072826100c9565b5050610198565b600080546001600160a01b038381166001600160a01b0319831681178455604051919092169283917f8be0079c531659141344cd1fd0a4f28419497f9722a3daafe3b4186f6b6457e09190a35050565b806001600160a01b03163b6000036100ff5760405163211eb15960e21b81526001600160a01b0382166004820152602401610056565b600180546001600160a01b0319166001600160a01b0383169081179091556040517fbc7cd75a20ee27fd9adebab32041f755214dbc6bffa90cc0225b39da2e5c2d3b90600090a250565b80516001600160a01b038116811461016057600080fd5b919050565b6000806040838503121561017857600080fd5b61018183610149565b915061018f60208401610149565b90509250929050565b610291806101a76000396000f3fe608060405234801561001057600080fd5b50600436106100575760003560e01c80633659cfe61461005c5780635c60da1b14610071578063715018a61461009a5780638da5cb5b146100a2578063f2fde38b146100b3575b600080fd5b61006f61006a36600461022b565b6100c6565b005b6001546001600160a01b03165b6040516001600160a01b03909116815260200160405180910390f35b61006f6100da565b6000546001600160a01b031661007e565b61006f6100c136600461022b565b6100ee565b6100ce61012e565b6100d78161015b565b50565b6100e261012e565b6100ec60006101db565b565b6100f661012e565b6001600160a01b03811661012557604051631e4fbdf760e01b8152600060048201526024015b60405180910390fd5b6100d7816101db565b6000546001600160a01b031633146100ec5760405163118cdaa760e01b815233600482015260240161011c565b806001600160a01b03163b6000036101915760405163211eb15960e21b81526001600160a01b038216600482015260240161011c565b600180546001600160a01b0319166001600160a01b0383169081179091556040517fbc7cd75a20ee27fd9adebab32041f755214dbc6bffa90cc0225b39da2e5c2d3b90600090a250565b600080546001600160a01b038381166001600160a01b0319831681178455604051919092169283917f8be0079c531659141344cd1fd0a4f28419497f9722a3daafe3b4186f6b6457e09190a35050565b60006020828403121561023d57600080fd5b81356001600160a01b038116811461025457600080fd5b939250505056fea264697066735822122084787c76a0a120f9cac015a702d769873b98bf9a9f9f8598172ef7a6b2428b9164736f6c634300081c003360a06040526040516105c53803806105c583398101604081905261002291610387565b61002c828261003e565b506001600160a01b0316608052610484565b610047826100fe565b6040516001600160a01b038316907f1cf3b03a6cf19fa2baba4df148e9dcabedea7f8a5c07840e207e5c089be95d3e90600090a28051156100f2576100ed826001600160a01b0316635c60da1b6040518163ffffffff1660e01b8152600401602060405180830381865afa1580156100c3573d6000803e3d6000fd5b505050506040513d601f19601f820116820180604052508101906100e7919061044d565b82610211565b505050565b6100fa610288565b5050565b806001600160a01b03163b60000361013957604051631933b43b60e21b81526001600160a01b03821660048201526024015b60405180910390fd5b807fa3f0ad74e5423aebfd80d3ef4346578335a9a72aeaee59ff6cb3582b35133d5080546001600160a01b0319166001600160a01b0392831617905560408051635c60da1b60e01b81529051600092841691635c60da1b9160048083019260209291908290030181865afa1580156101b5573d6000803e3d6000fd5b505050506040513d601f19601f820116820180604052508101906101d9919061044d565b9050806001600160a01b03163b6000036100fa57604051634c9c8ce360e01b81526001600160a01b0382166004820152602401610130565b6060600080846001600160a01b03168460405161022e9190610468565b600060405180830381855af49150503d8060008114610269576040519150601f19603f3d011682016040523d82523d6000602084013e61026e565b606091505b50909250905061027f8583836102a9565b95945050505050565b34156102a75760405163b398979f60e01b815260040160405180910390fd5b565b6060826102be576102b982610308565b610301565b81511580156102d557506001600160a01b0384163b155b156102fe57604051639996b31560e01b81526001600160a01b0385166004820152602401610130565b50805b9392505050565b8051156103185780518082602001fd5b60405163d6bda27560e01b815260040160405180910390fd5b80516001600160a01b038116811461034857600080fd5b919050565b634e487b7160e01b600052604160045260246000fd5b60005b8381101561037e578181015183820152602001610366565b50506000910152565b6000806040838503121561039a57600080fd5b6103a383610331565b60208401519092506001600160401b038111156103bf57600080fd5b8301601f810185136103d057600080fd5b80516001600160401b038111156103e9576103e961034d565b604051601f8201601f19908116603f011681016001600160401b03811182821017156104175761041761034d565b60405281815282820160200187101561042f57600080fd5b610440826020830160208601610363565b8093505050509250929050565b60006020828403121561045f57600080fd5b61030182610331565b6000825161047a818460208701610363565b9190910192915050565b60805161012761049e6000396000601e01526101276000f3fe6080604052600a600c565b005b60186014601a565b60a0565b565b60007f00000000000000000000000000000000000000000000000000000000000000006001600160a01b0316635c60da1b6040518163ffffffff1660e01b8152600401602060405180830381865afa1580156079573d6000803e3d6000fd5b505050506040513d601f19601f82011682018060405250810190609b919060c3565b905090565b3660008037600080366000845af43d6000803e80801560be573d6000f35b3d6000fd5b60006020828403121560d457600080fd5b81516001600160a01b038116811460ea57600080fd5b939250505056fea2646970667358221220ddb3cb6bf07de3d9ebf0ddfa1f251cc525f9b889ee5133b139d74f1e62fcd4ce64736f6c634300081c0033a26469706673582212209a401d0af321267d3ba3fe4669bd2a4ac347bc7ef879e90b1a42252ab22f0d7264736f6c634300081c0033",
  "linkReferences": {
    "contracts/Router.sol": {
      "RouterLib": [
        {
          "length": 20,
          "start": 1749
        },
        {
          "length": 20,
          "start": 3829
        }
      ]
    },
    "contracts/abstracts/UserModule.sol": {
      "UserModuleLib": [
        {
          "length": 20,
          "start": 1934
        },
        {
          "length": 20,
          "start": 2929
        },
        {
          "length": 20,
          "start": 5806
        }
      ]
    },
    "contracts/libraries/DeployGovernance.sol": {
      "DeployGovernance": [
        {
          "length": 20,
          "start": 2716
        }
      ]
    },
    "contracts/libraries/DeployPriceOracle.sol": {
      "DeployPriceOracle": [
        {
          "length": 20,
          "start": 3371
        }
      ]
    },
    "contracts/libraries/DeployWNTV.sol": {
      "DeployWNTV": [
        {
          "length": 20,
          "start": 2512
        }
      ]
    },
    "contracts/libraries/OracleLibrary.sol": {
      "OracleLibrary": [
        {
          "length": 20,
          "start": 3489
        },
        {
          "length": 20,
          "start": 5171
        }
      ]
    }
  },
  "deployedLinkReferences": {
    "contracts/Router.sol": {
      "RouterLib": [
        {
          "length": 20,
          "start": 1718
        },
        {
          "length": 20,
          "start": 3798
        }
      ]
    },
    "contracts/abstracts/UserModule.sol": {
      "UserModuleLib": [
        {
          "length": 20,
          "start": 1903
        },
        {
          "length": 20,
          "start": 2898
        },
        {
          "length": 20,
          "start": 5775
        }
      ]
    },
    "contracts/libraries/DeployGovernance.sol": {
      "DeployGovernance": [
        {
          "length": 20,
          "start": 2685
        }
      ]
    },
    "contracts/libraries/DeployPriceOracle.sol": {
      "DeployPriceOracle": [
        {
          "length": 20,
          "start": 3340
        }
      ]
    },
    "contracts/libraries/DeployWNTV.sol": {
      "DeployWNTV": [
        {
          "length": 20,
          "start": 2481
        }
      ]
    },
    "contracts/libraries/OracleLibrary.sol": {
      "OracleLibrary": [
        {
          "length": 20,
          "start": 3458
        },
        {
          "length": 20,
          "start": 5140
        }
      ]
    }
  }
}