{
  "_format": "hh-sol-artifact-1",
  "contractName": "GainzInfo",
  "sourceName": "contracts/tokens/Gainz/GainzInfo.sol",
  "abi": [
    {
      "inputs": [],
      "name": "DECIMALS",
      "outputs": [
        {
          "internalType": "uint256",
          "name": "",
          "type": "uint256"
        }
      ],
      "stateMutability": "view",
      "type": "function"
    },
    {
      "inputs": [],
      "name": "ECOSYSTEM_DISTRIBUTION_FUNDS",
      "outputs": [
        {
          "internalType": "uint256",
          "name": "",
          "type": "uint256"
        }
      ],
      "stateMutability": "view",
      "type": "function"
    },
    {
      "inputs": [],
      "name": "ICO_FUNDS",
      "outputs": [
        {
          "internalType": "uint256",
          "name": "",
          "type": "uint256"
        }
      ],
      "stateMutability": "view",
      "type": "function"
    },
    {
      "inputs": [],
      "name": "MAX_SUPPLY",
      "outputs": [
        {
          "internalType": "uint256",
          "name": "",
          "type": "uint256"
        }
      ],
      "stateMutability": "view",
      "type": "function"
    },
    {
      "inputs": [],
      "name": "ONE",
      "outputs": [
        {
          "internalType": "uint256",
          "name": "",
          "type": "uint256"
        }
      ],
      "stateMutability": "view",
      "type": "function"
    }
  ],
  "bytecode": "0x6102c6610039600b82828239805160001a607314602c57634e487b7160e01b600052600060045260246000fd5b30600052607381538281f3fe73000000000000000000000000000000000000000030146080604052600436106100615760003560e01c80630236a3fe14610066578063127893cc146100805780632e0f26251461008857806332cb6b0c14610090578063c2ee3a0814610098575b600080fd5b61006e6100a0565b60405190815260200160405180910390f35b61006e6100cd565b61006e601281565b61006e61011b565b61006e610135565b6100ac6012600a610240565b6100b99062d04850610253565b6100ca906607fd10d7c82f0b61026a565b81565b6100d96012600a610240565b6100e69062d04850610253565b6100f7906607fd10d7c82f0b61026a565b6101036012600a610240565b610111906301406f40610253565b6100ca919061027d565b6101276012600a610240565b6100ca906301406f40610253565b6100ca6012600a610240565b634e487b7160e01b600052601160045260246000fd5b6001815b60018411156101925780850481111561017657610176610141565b600184161561018457908102905b60019390931c92800261015b565b935093915050565b6000826101a95750600161023a565b816101b65750600061023a565b81600181146101cc57600281146101d6576101f2565b600191505061023a565b60ff8411156101e7576101e7610141565b50506001821b61023a565b5060208310610133831016604e8410600b8410161715610215575081810a61023a565b6102226000198484610157565b806000190482111561023657610236610141565b0290505b92915050565b600061024c838361019a565b9392505050565b808202811582820484141761023a5761023a610141565b8082018082111561023a5761023a610141565b8181038181111561023a5761023a61014156fea26469706673582212201716010f42fc6f484ea4038e21470a60cbf47db10d1cffc6cbb255f5f4375b3e64736f6c634300081c0033",
  "linkReferences": {},
  "deployedLinkReferences": {}
}