{
  "_format": "hh-sol-artifact-1",
  "contractName": "TestGainz",
  "sourceName": "contracts/test/TestERC20.sol",
  "abi": [
    {
      "inputs": [
        {
          "internalType": "address",
          "name": "spender",
          "type": "address"
        },
        {
          "internalType": "uint256",
          "name": "allowance",
          "type": "uint256"
        },
        {
          "internalType": "uint256",
          "name": "needed",
          "type": "uint256"
        }
      ],
      "name": "ERC20InsufficientAllowance",
      "type": "error"
    },
    {
      "inputs": [
        {
          "internalType": "address",
          "name": "sender",
          "type": "address"
        },
        {
          "internalType": "uint256",
          "name": "balance",
          "type": "uint256"
        },
        {
          "internalType": "uint256",
          "name": "needed",
          "type": "uint256"
        }
      ],
      "name": "ERC20InsufficientBalance",
      "type": "error"
    },
    {
      "inputs": [
        {
          "internalType": "address",
          "name": "approver",
          "type": "address"
        }
      ],
      "name": "ERC20InvalidApprover",
      "type": "error"
    },
    {
      "inputs": [
        {
          "internalType": "address",
          "name": "receiver",
          "type": "address"
        }
      ],
      "name": "ERC20InvalidReceiver",
      "type": "error"
    },
    {
      "inputs": [
        {
          "internalType": "address",
          "name": "sender",
          "type": "address"
        }
      ],
      "name": "ERC20InvalidSender",
      "type": "error"
    },
    {
      "inputs": [
        {
          "internalType": "address",
          "name": "spender",
          "type": "address"
        }
      ],
      "name": "ERC20InvalidSpender",
      "type": "error"
    },
    {
      "inputs": [],
      "name": "InvalidInitialization",
      "type": "error"
    },
    {
      "inputs": [],
      "name": "NotInitializing",
      "type": "error"
    },
    {
      "inputs": [
        {
          "internalType": "address",
          "name": "owner",
          "type": "address"
        }
      ],
      "name": "OwnableInvalidOwner",
      "type": "error"
    },
    {
      "inputs": [
        {
          "internalType": "address",
          "name": "account",
          "type": "address"
        }
      ],
      "name": "OwnableUnauthorizedAccount",
      "type": "error"
    },
    {
      "inputs": [
        {
          "internalType": "int256",
          "name": "x",
          "type": "int256"
        }
      ],
      "name": "PRBMathSD59x18__Exp2InputTooBig",
      "type": "error"
    },
    {
      "inputs": [
        {
          "internalType": "int256",
          "name": "x",
          "type": "int256"
        }
      ],
      "name": "PRBMathSD59x18__LogInputTooSmall",
      "type": "error"
    },
    {
      "inputs": [],
      "name": "PRBMathSD59x18__MulInputTooSmall",
      "type": "error"
    },
    {
      "inputs": [
        {
          "internalType": "uint256",
          "name": "rAbs",
          "type": "uint256"
        }
      ],
      "name": "PRBMathSD59x18__MulOverflow",
      "type": "error"
    },
    {
      "inputs": [
        {
          "internalType": "uint256",
          "name": "prod1",
          "type": "uint256"
        }
      ],
      "name": "PRBMath__MulDivFixedPointOverflow",
      "type": "error"
    },
    {
      "inputs": [
        {
          "internalType": "uint256",
          "name": "number",
          "type": "uint256"
        }
      ],
      "name": "ToInt256CastOverflow",
      "type": "error"
    },
    {
      "inputs": [
        {
          "internalType": "int256",
          "name": "number",
          "type": "int256"
        }
      ],
      "name": "ToUint256CastOverflow",
      "type": "error"
    },
    {
      "anonymous": false,
      "inputs": [
        {
          "indexed": true,
          "internalType": "address",
          "name": "owner",
          "type": "address"
        },
        {
          "indexed": true,
          "internalType": "address",
          "name": "spender",
          "type": "address"
        },
        {
          "indexed": false,
          "internalType": "uint256",
          "name": "value",
          "type": "uint256"
        }
      ],
      "name": "Approval",
      "type": "event"
    },
    {
      "anonymous": false,
      "inputs": [
        {
          "indexed": false,
          "internalType": "uint64",
          "name": "version",
          "type": "uint64"
        }
      ],
      "name": "Initialized",
      "type": "event"
    },
    {
      "anonymous": false,
      "inputs": [
        {
          "indexed": true,
          "internalType": "address",
          "name": "previousOwner",
          "type": "address"
        },
        {
          "indexed": true,
          "internalType": "address",
          "name": "newOwner",
          "type": "address"
        }
      ],
      "name": "OwnershipTransferred",
      "type": "event"
    },
    {
      "anonymous": false,
      "inputs": [
        {
          "indexed": true,
          "internalType": "address",
          "name": "from",
          "type": "address"
        },
        {
          "indexed": true,
          "internalType": "address",
          "name": "to",
          "type": "address"
        },
        {
          "indexed": false,
          "internalType": "uint256",
          "name": "value",
          "type": "uint256"
        }
      ],
      "name": "Transfer",
      "type": "event"
    },
    {
      "inputs": [
        {
          "internalType": "address",
          "name": "owner",
          "type": "address"
        },
        {
          "internalType": "address",
          "name": "spender",
          "type": "address"
        }
      ],
      "name": "allowance",
      "outputs": [
        {
          "internalType": "uint256",
          "name": "",
          "type": "uint256"
        }
      ],
      "stateMutability": "view",
      "type": "function"
    },
    {
      "inputs": [
        {
          "internalType": "address",
          "name": "spender",
          "type": "address"
        },
        {
          "internalType": "uint256",
          "name": "value",
          "type": "uint256"
        }
      ],
      "name": "approve",
      "outputs": [
        {
          "internalType": "bool",
          "name": "",
          "type": "bool"
        }
      ],
      "stateMutability": "nonpayable",
      "type": "function"
    },
    {
      "inputs": [
        {
          "internalType": "address",
          "name": "account",
          "type": "address"
        }
      ],
      "name": "balanceOf",
      "outputs": [
        {
          "internalType": "uint256",
          "name": "",
          "type": "uint256"
        }
      ],
      "stateMutability": "view",
      "type": "function"
    },
    {
      "inputs": [
        {
          "internalType": "uint256",
          "name": "value",
          "type": "uint256"
        }
      ],
      "name": "burn",
      "outputs": [],
      "stateMutability": "nonpayable",
      "type": "function"
    },
    {
      "inputs": [
        {
          "internalType": "address",
          "name": "account",
          "type": "address"
        },
        {
          "internalType": "uint256",
          "name": "value",
          "type": "uint256"
        }
      ],
      "name": "burnFrom",
      "outputs": [],
      "stateMutability": "nonpayable",
      "type": "function"
    },
    {
      "inputs": [],
      "name": "decimals",
      "outputs": [
        {
          "internalType": "uint8",
          "name": "",
          "type": "uint8"
        }
      ],
      "stateMutability": "view",
      "type": "function"
    },
    {
      "inputs": [],
      "name": "initialize",
      "outputs": [],
      "stateMutability": "nonpayable",
      "type": "function"
    },
    {
      "inputs": [
        {
          "internalType": "address",
          "name": "to",
          "type": "address"
        },
        {
          "internalType": "uint256",
          "name": "amt",
          "type": "uint256"
        }
      ],
      "name": "mint",
      "outputs": [],
      "stateMutability": "nonpayable",
      "type": "function"
    },
    {
      "inputs": [
        {
          "internalType": "address",
          "name": "owner",
          "type": "address"
        },
        {
          "internalType": "address",
          "name": "spender",
          "type": "address"
        },
        {
          "internalType": "uint256",
          "name": "amt",
          "type": "uint256"
        }
      ],
      "name": "mintApprove",
      "outputs": [],
      "stateMutability": "nonpayable",
      "type": "function"
    },
    {
      "inputs": [],
      "name": "mintGainz",
      "outputs": [],
      "stateMutability": "nonpayable",
      "type": "function"
    },
    {
      "inputs": [],
      "name": "name",
      "outputs": [
        {
          "internalType": "string",
          "name": "",
          "type": "string"
        }
      ],
      "stateMutability": "view",
      "type": "function"
    },
    {
      "inputs": [],
      "name": "owner",
      "outputs": [
        {
          "internalType": "address",
          "name": "",
          "type": "address"
        }
      ],
      "stateMutability": "view",
      "type": "function"
    },
    {
      "inputs": [],
      "name": "renounceOwnership",
      "outputs": [],
      "stateMutability": "nonpayable",
      "type": "function"
    },
    {
      "inputs": [
        {
          "internalType": "address",
          "name": "governance",
          "type": "address"
        }
      ],
      "name": "runInit",
      "outputs": [],
      "stateMutability": "nonpayable",
      "type": "function"
    },
    {
      "inputs": [
        {
          "internalType": "address",
          "name": "to",
          "type": "address"
        },
        {
          "internalType": "string",
          "name": "_entityName",
          "type": "string"
        }
      ],
      "name": "sendGainz",
      "outputs": [
        {
          "internalType": "uint256",
          "name": "amount",
          "type": "uint256"
        }
      ],
      "stateMutability": "nonpayable",
      "type": "function"
    },
    {
      "inputs": [],
      "name": "stakersGainzToEmit",
      "outputs": [
        {
          "internalType": "uint256",
          "name": "toEmit",
          "type": "uint256"
        }
      ],
      "stateMutability": "view",
      "type": "function"
    },
    {
      "inputs": [],
      "name": "symbol",
      "outputs": [
        {
          "internalType": "string",
          "name": "",
          "type": "string"
        }
      ],
      "stateMutability": "view",
      "type": "function"
    },
    {
      "inputs": [],
      "name": "totalSupply",
      "outputs": [
        {
          "internalType": "uint256",
          "name": "",
          "type": "uint256"
        }
      ],
      "stateMutability": "view",
      "type": "function"
    },
    {
      "inputs": [
        {
          "internalType": "address",
          "name": "to",
          "type": "address"
        },
        {
          "internalType": "uint256",
          "name": "value",
          "type": "uint256"
        }
      ],
      "name": "transfer",
      "outputs": [
        {
          "internalType": "bool",
          "name": "",
          "type": "bool"
        }
      ],
      "stateMutability": "nonpayable",
      "type": "function"
    },
    {
      "inputs": [
        {
          "internalType": "address",
          "name": "from",
          "type": "address"
        },
        {
          "internalType": "address",
          "name": "to",
          "type": "address"
        },
        {
          "internalType": "uint256",
          "name": "value",
          "type": "uint256"
        }
      ],
      "name": "transferFrom",
      "outputs": [
        {
          "internalType": "bool",
          "name": "",
          "type": "bool"
        }
      ],
      "stateMutability": "nonpayable",
      "type": "function"
    },
    {
      "inputs": [
        {
          "internalType": "address",
          "name": "newOwner",
          "type": "address"
        }
      ],
      "name": "transferOwnership",
      "outputs": [],
      "stateMutability": "nonpayable",
      "type": "function"
    }
  ],
  "bytecode": "0x6080604052348015600f57600080fd5b506128728061001f6000396000f3fe608060405234801561001057600080fd5b50600436106101375760003560e01c806346b32bbe116100b85780638da5cb5b1161007c5780638da5cb5b1461024957806395d89b411461025e578063a9059cbb14610266578063dd62ed3e14610279578063e0324e591461028c578063f2fde38b1461029f57600080fd5b806346b32bbe1461020b57806370a0823114610213578063715018a61461022657806379cc67901461022e5780638129fc1c1461024157600080fd5b806323b872dd116100ff57806323b872dd146101bb57806329290c77146101ce578063313ce567146101d657806340c10f19146101e557806342966c68146101f857600080fd5b806306fdde031461013c578063095ea7b31461015a57806311c006171461017d57806318160ddd1461019e5780631bad9d4b146101a6575b600080fd5b6101446102b2565b6040516101519190612269565b60405180910390f35b61016d6101683660046122b3565b610353565b6040519015158152602001610151565b61019061018b366004612324565b61036d565b604051908152602001610151565b610190610497565b6101b96101b43660046123cf565b6104ac565b005b61016d6101c93660046123ea565b610634565b610190610658565b60405160128152602001610151565b6101b96101f33660046122b3565b6106bb565b6101b9610206366004612427565b6106c9565b6101b96106d6565b6101906102213660046123cf565b610811565b6101b961083c565b6101b961023c3660046122b3565b610850565b6101b9610865565b610251610a2f565b6040516101519190612440565b610144610a5d565b61016d6102743660046122b3565b610a7a565b610190610287366004612454565b610a88565b6101b961029a3660046123ea565b610ac4565b6101b96102ad3660046123cf565b610ad9565b606060006102be610b14565b90508060030180546102cf9061247e565b80601f01602080910402602001604051908101604052809291908181526020018280546102fb9061247e565b80156103485780601f1061031d57610100808354040283529160200191610348565b820191906000526020600020905b81548152906001019060200180831161032b57829003601f168201915b505050505091505090565b600033610361818585610b38565b60019150505b92915050565b6000610377610b45565b6000610381610b77565b905060008360405160200161039691906124b8565b6040516020818303038152906040528051906020012090506040516020016103c890637465616d60e01b815260040190565b6040516020818303038152906040528051906020012081036103f6576004820180546000909155925061047e565b604051650cee4deeee8d60d31b6020820152602601604051602081830303815290604052805190602001208103610439576005820180546000909155925061047e565b6040516b6c6971496e63656e7469766560a01b6020820152602c0160405160208183030381529060405280519060200120810361047e57600782018054600090915592505b821561048f5761048f308685610b9b565b505092915050565b6000806104a2610b14565b6002015492915050565b6104b4610b45565b60006104be610b77565b90506001600160a01b03821661050d5760405162461bcd60e51b815260206004820152600f60248201526e496e76616c6964204164647265737360881b60448201526064015b60405180910390fd5b4260028201556003810180546001600160a01b0384166001600160a01b0319909116811790915560408051600481526024810182526020810180516001600160e01b03166358152d0760e01b17905290516000928392909161056f91906124b8565b6000604051808303816000865af19150503d80600081146105ac576040519150601f19603f3d011682016040523d82523d6000602084013e6105b1565b606091505b50915091508180156105c4575060008151115b61060a5760405162461bcd60e51b8152602060048201526017602482015276125b9d985b1a590811dbdd995c9b985b98d94810d85b1b604a1b6044820152606401610504565b8080602001905181019061061e91906124d4565b8051845560200151600190930192909255505050565b600033610642858285610bfa565b61064d858585610b9b565b506001949350505050565b6000610662610c61565b91506106b29050610671610b77565b60408051608081018252600483015481526005830154602082015260068301549181019190915260079091015460608201526106ac83610d18565b90610e11565b60400151905090565b6106c58282610ea2565b5050565b6106d33382610ed8565b50565b60006106e0610b77565b905060006106ec610c61565b600284019190915590506000819003610703575050565b61071961070f82610d18565b6004840190610f0e565b6003820154600683015461073a9130916001600160a01b0390911690610b9b565b600060068301819055600383015460408051600481526024810182526020810180516001600160e01b03166374afd3f760e01b17905290516001600160a01b039092169161078891906124b8565b6000604051808303816000865af19150503d80600081146107c5576040519150601f19603f3d011682016040523d82523d6000602084013e6107ca565b606091505b505090508061080c5760405162461bcd60e51b815260206004820152600e60248201526d155b98589b19481d1bc81b5a5b9d60921b6044820152606401610504565b505050565b60008061081c610b14565b6001600160a01b0390931660009081526020939093525050604090205490565b610844610b45565b61084e6000610f85565b565b61085b823383610bfa565b6106c58282610ed8565b600061086f610ff6565b805490915060ff600160401b820416159067ffffffffffffffff166000811580156108975750825b905060008267ffffffffffffffff1660011480156108b45750303b155b9050811580156108c2575080155b156108e05760405163f92ee8a960e01b815260040160405180910390fd5b845467ffffffffffffffff19166001178555831561090a57845460ff60401b1916600160401b1785555b6109546040518060400160405280600b81526020016a23b0b4b73d102a37b5b2b760a91b8152506040518060400160405280600581526020016423b0b4b73d60d91b81525061101f565b61095d33611031565b6109b43361096d6012600a612622565b61097a9062d0485061262e565b61098b906607fd10d7c82f0b612645565b6109976012600a612622565b6109a5906301406f4061262e565b6109af9190612658565b610ea2565b6109e2306109c46012600a612622565b6109d19062d0485061262e565b6109af906607fd10d7c82f0b612645565b8315610a2857845460ff60401b19168555604051600181527fc7f505b2f371ae2175ee4913f4499e1f2633a7b5936321eed1cdaeb6115181d29060200160405180910390a15b5050505050565b7f9016d09d72d40fdae2fd8ceac6b6234c7706214fd39c1cd1e609a0528c199300546001600160a01b031690565b60606000610a69610b14565b90508060040180546102cf9061247e565b600033610361818585610b9b565b600080610a93610b14565b6001600160a01b03948516600090815260019190910160209081526040808320959096168252939093525050205490565b610ace8382610ea2565b61080c838383610b38565b610ae1610b45565b6001600160a01b038116610b0b576000604051631e4fbdf760e01b81526004016105049190612440565b6106d381610f85565b7f52c63247e1f47db19d5ce0460030c497f067ca4cebf71ba98eeadabe20bace0090565b61080c8383836001611042565b33610b4e610a2f565b6001600160a01b03161461084e573360405163118cdaa760e01b81526004016105049190612440565b7f134accceb8ccd8549f1b5f4bf51d65d2512a1d4b87f29353424fe2bf01de7f0090565b6001600160a01b038316610bc5576000604051634b637e8f60e11b81526004016105049190612440565b6001600160a01b038216610bef57600060405163ec442f0560e01b81526004016105049190612440565b61080c838383611126565b6000610c068484610a88565b9050600019811015610c5b5781811015610c4c57604051637dc7a0d960e11b81526001600160a01b03841660048201526024810182905260448101839052606401610504565b610c5b84848484036000611042565b50505050565b6000806000610c6e610b77565b600281015493509050804280851015610d11576000610c8d8387611261565b9050610c9a8187846112cf565b94506000610ca78461145c565b905081811115610d0b5760006001610cbf8484612658565b610cc99190612658565b90508015610cf257610ce5610cdf846001612645565b83611468565b610cef9088612645565b96505b610cfd8289866112cf565b610d079088612645565b9650505b82965050505b5050509091565b610d436040518060800160405280600081526020016000815260200160008152602001600081525090565b6000612710610d54611b588261266b565b610d649063ffffffff168561262e565b610d6e919061269d565b90506000612710610d816103e88461262e565b610d8b919061269d565b90506000612710610d9e6101f48561262e565b610da8919061269d565b90506000612710610dbb6105dc8661262e565b610dc5919061269d565b9050600081610dd48486612645565b610dde9190612645565b610de89088612658565b604080516080810182529586526020860194909452928401929092526060830152509392505050565b610e3c6040518060800160405280600081526020016000815260200160008152602001600081525090565b815183518490610e4d908390612645565b9052506020808301519084018051610e66908390612645565b9052506040808301519084018051610e7f908390612645565b9052506060808301519084018051610e98908390612645565b9052509192915050565b6001600160a01b038216610ecc57600060405163ec442f0560e01b81526004016105049190612440565b6106c560008383611126565b6001600160a01b038216610f02576000604051634b637e8f60e11b81526004016105049190612440565b6106c582600083611126565b805182548390600090610f22908490612645565b90915550506020810151600183018054600090610f40908490612645565b90915550506040810151600283018054600090610f5e908490612645565b90915550506060810151600383018054600090610f7c908490612645565b90915550505050565b7f9016d09d72d40fdae2fd8ceac6b6234c7706214fd39c1cd1e609a0528c19930080546001600160a01b031981166001600160a01b03848116918217845560405192169182907f8be0079c531659141344cd1fd0a4f28419497f9722a3daafe3b4186f6b6457e090600090a3505050565b6000807ff0c57e16840df040f15088dc2f81fe391c3923bec73e23a9662efc9c229c6a00610367565b61102761154d565b6106c58282611572565b61103961154d565b6106d3816115a3565b600061104c610b14565b90506001600160a01b03851661107857600060405163e602df0560e01b81526004016105049190612440565b6001600160a01b0384166110a2576000604051634a1406b160e11b81526004016105049190612440565b6001600160a01b03808616600090815260018301602090815260408083209388168352929052208390558115610a2857836001600160a01b0316856001600160a01b03167f8c5be1e5ebec7d5bd14f71427d1e84f3dd0314c0f7b2291e5b200ac8c7c3b9258560405161111791815260200190565b60405180910390a35050505050565b6000611130610b14565b90506001600160a01b03841661115f57818160020160008282546111549190612645565b909155506111d19050565b6001600160a01b038416600090815260208290526040902054828110156111b25760405163391434e360e21b81526001600160a01b03861660048201526024810182905260448101849052606401610504565b6001600160a01b03851660009081526020839052604090209083900390555b6001600160a01b0383166111ef57600281018054839003905561120e565b6001600160a01b03831660009081526020829052604090208054830190555b826001600160a01b0316846001600160a01b03167fddf252ad1be2c89b69c2b068fc378daa952ba7f163c4a11628f55a4df523b3ef8460405161125391815260200190565b60405180910390a350505050565b6000808360010154116112ad5760405162461bcd60e51b8152602060048201526014602482015273092dcecc2d8d2c8408ae0dec6d040d8cadccee8d60631b6044820152606401610504565b600183015483546112be9084612658565b6112c8919061269d565b9392505050565b600082821161133e5760405162461bcd60e51b815260206004820152603560248201527f4761696e7a2e5f636f6d7075746545646765456d697373696f6e733a20496e766044820152740616c69642063757272656e7454696d657374616d7605c1b6064820152608401610504565b6000611348610b77565b604080518082019091528154815260018201546020820152909150600090819061137290886115ab565b915091506000808684111580156113895750828711155b156113a8578691508388111561139f57876113a1565b835b9050611437565b8784111580156113b85750828811155b156113d757828711156113cb57826113cd565b865b9150879050611437565b60405162461bcd60e51b815260206004820152602f60248201527f4761696e7a2e5f636f6d7075746545646765456d697373696f6e733a20496e7660448201526e616c69642074696d657374616d707360881b6064820152608401610504565b61144f896114458385612658565b60018801546115f1565b9998505050505050505050565b60006103678242611261565b60008282116114d95760405162461bcd60e51b815260206004820152603760248201527f4761696e7a456d697373696f6e3a2065706f6368456e64206d7573742062652060448201527619dc99585d195c881d1a185b88195c1bd8da14dd185c9d604a1b6064820152608401610504565b60006114e48461161a565b905060006114f18461161a565b90506000611506670de000cd866f8000611647565b61151083856126b1565b611523906893fa92954c28c89b946126d8565b61152d9190612708565b905061154361153e826000196126d8565b611679565b9695505050505050565b6115556116a3565b61084e57604051631afcd79f60e31b815260040160405180910390fd5b61157a61154d565b6000611584610b14565b905060038101611594848261277d565b5060048101610c5b838261277d565b610ae161154d565b6000808360200151836115be919061262e565b84516115ca9190612645565b915060018460200151836115de9190612645565b6115e89190612658565b90509250929050565b600081836115fe866116bd565b611608919061262e565b611612919061269d565b949350505050565b6000610367670de000cd866f800061164261163d85670de0b6b3a764000061262e565b6116f1565b61171e565b60006714057b7ef767814f670de0b6b3a764000061166484611760565b028161167257611672612687565b0592915050565b60008082121561169f57604051635afb78ad60e11b815260048101839052602401610504565b5090565b60006116ad610ff6565b54600160401b900460ff16919050565b6000610367670de0b6b3a76400006116d48461161a565b6116e7906893fa92954c28c89b946126d8565b61153e9190612708565b60006001600160ff1b0382111561169f5760405163322efb3360e21b815260048101839052602401610504565b60008260000361174657811561173557600061173f565b670de0b6b3a76400005b9050610367565b6112c861175b61175585611760565b84611845565b61190a565b60008082136117855760405163309fa7dd60e11b815260048101839052602401610504565b6000670de0b6b3a7640000831261179e575060016117b8565b6000199050826ec097ce7bc90715b34b9f10000000000492505b60006117cd670de0b6b3a764000085056119a4565b670de0b6b3a764000081029350905083811d670de0b6b3a763ffff1981016117f757505002919050565b6706f05b59d3b200005b600081131561183c57670de0b6b3a7640000828002059150671bc16d674ec800008212611834579384019360019190911d905b60011d611801565b50505002919050565b6000600160ff1b83148061185c5750600160ff1b82145b1561187a57604051630d01a11b60e21b815260040160405180910390fd5b6000806000851261188b5784611890565b846000035b9150600084126118a057836118a5565b836000035b905060006118b38383611a83565b90506001600160ff1b038111156118e05760405163bf79e8d960e01b815260048101829052602401610504565b6000198087139086138082186001146118f957826118fe565b826000035b98975050505050505050565b6000808212156119575768033dd1780914b971141982121561192e57506000919050565b61193a8260000361190a565b6ec097ce7bc90715b34b9f10000000008161167257611672612687565b680a688906bd8b00000082126119835760405163e69458f960e01b815260048101839052602401610504565b670de0b6b3a7640000604083901b0461199b81611b49565b9150505b919050565b6000600160801b82106119c457608091821c916119c19082612645565b90505b600160401b82106119e257604091821c916119df9082612645565b90505b6401000000008210611a0157602091821c916119fe9082612645565b90505b620100008210611a1e57601091821c91611a1b9082612645565b90505b6101008210611a3a57600891821c91611a379082612645565b90505b60108210611a5557600491821c91611a529082612645565b90505b60048210611a7057600291821c91611a6d9082612645565b90505b6002821061199f57610367600182612645565b60008080600019848609848602925082811083820303915050670de0b6b3a76400008110611ac75760405163698d9a0160e11b815260048101829052602401610504565b600080670de0b6b3a764000086880991506706f05b59d3b1ffff8211905082600003611b055780670de0b6b3a7640000850401945050505050610367565b620400008285030493909111909103600160ee1b02919091177faccb18165bd6fe31ae1cf318dc5b51eee0e1ba569b88cd74c1773b91fac106690201905092915050565b600160bf1b678000000000000000821615611b6d5768016a09e667f3bcc9090260401c5b674000000000000000821615611b8c576801306fe0a31b7152df0260401c5b672000000000000000821615611bab576801172b83c7d517adce0260401c5b671000000000000000821615611bca5768010b5586cf9890f62a0260401c5b670800000000000000821615611be9576801059b0d31585743ae0260401c5b670400000000000000821615611c0857680102c9a3e778060ee70260401c5b670200000000000000821615611c275768010163da9fb33356d80260401c5b670100000000000000821615611c4657680100b1afa5abcbed610260401c5b6680000000000000821615611c645768010058c86da1c09ea20260401c5b6640000000000000821615611c82576801002c605e2e8cec500260401c5b6620000000000000821615611ca057680100162f3904051fa10260401c5b6610000000000000821615611cbe576801000b175effdc76ba0260401c5b6608000000000000821615611cdc57680100058ba01fb9f96d0260401c5b6604000000000000821615611cfa5768010002c5cc37da94920260401c5b6602000000000000821615611d18576801000162e525ee05470260401c5b6601000000000000821615611d365768010000b17255775c040260401c5b65800000000000821615611d53576801000058b91b5bc9ae0260401c5b65400000000000821615611d7057680100002c5c89d5ec6d0260401c5b65200000000000821615611d8d5768010000162e43f4f8310260401c5b65100000000000821615611daa57680100000b1721bcfc9a0260401c5b65080000000000821615611dc75768010000058b90cf1e6e0260401c5b65040000000000821615611de4576801000002c5c863b73f0260401c5b65020000000000821615611e0157680100000162e430e5a20260401c5b65010000000000821615611e1e576801000000b1721835510260401c5b648000000000821615611e3a57680100000058b90c0b490260401c5b644000000000821615611e565768010000002c5c8601cc0260401c5b642000000000821615611e72576801000000162e42fff00260401c5b641000000000821615611e8e5768010000000b17217fbb0260401c5b640800000000821615611eaa576801000000058b90bfce0260401c5b640400000000821615611ec657680100000002c5c85fe30260401c5b640200000000821615611ee25768010000000162e42ff10260401c5b640100000000821615611efe57680100000000b17217f80260401c5b6380000000821615611f195768010000000058b90bfc0260401c5b6340000000821615611f34576801000000002c5c85fe0260401c5b6320000000821615611f4f57680100000000162e42ff0260401c5b6310000000821615611f6a576801000000000b17217f0260401c5b6308000000821615611f8557680100000000058b90c00260401c5b6304000000821615611fa05768010000000002c5c8600260401c5b6302000000821615611fbb576801000000000162e4300260401c5b6301000000821615611fd65768010000000000b172180260401c5b62800000821615611ff0576801000000000058b90c0260401c5b6240000082161561200a57680100000000002c5c860260401c5b622000008216156120245768010000000000162e430260401c5b6210000082161561203e57680100000000000b17210260401c5b620800008216156120585768010000000000058b910260401c5b62040000821615612072576801000000000002c5c80260401c5b6202000082161561208c57680100000000000162e40260401c5b620100008216156120a6576801000000000000b1720260401c5b6180008216156120bf57680100000000000058b90260401c5b6140008216156120d85768010000000000002c5d0260401c5b6120008216156120f1576801000000000000162e0260401c5b61100082161561210a5768010000000000000b170260401c5b610800821615612123576801000000000000058c0260401c5b61040082161561213c57680100000000000002c60260401c5b61020082161561215557680100000000000001630260401c5b61010082161561216e57680100000000000000b10260401c5b608082161561218657680100000000000000590260401c5b604082161561219e576801000000000000002c0260401c5b60208216156121b657680100000000000000160260401c5b60108216156121ce576801000000000000000b0260401c5b60088216156121e657680100000000000000060260401c5b60048216156121fe57680100000000000000030260401c5b600282161561221657680100000000000000010260401c5b600182161561222e57680100000000000000010260401c5b670de0b6b3a76400000260409190911c60bf031c90565b60005b83811015612260578181015183820152602001612248565b50506000910152565b6020815260008251806020840152612288816040850160208701612245565b601f01601f19169190910160400192915050565b80356001600160a01b038116811461199f57600080fd5b600080604083850312156122c657600080fd5b6122cf8361229c565b946020939093013593505050565b634e487b7160e01b600052604160045260246000fd5b604051601f8201601f1916810167ffffffffffffffff8111828210171561231c5761231c6122dd565b604052919050565b6000806040838503121561233757600080fd5b6123408361229c565b9150602083013567ffffffffffffffff81111561235c57600080fd5b8301601f8101851361236d57600080fd5b803567ffffffffffffffff811115612387576123876122dd565b61239a601f8201601f19166020016122f3565b8181528660208385010111156123af57600080fd5b816020840160208301376000602083830101528093505050509250929050565b6000602082840312156123e157600080fd5b6112c88261229c565b6000806000606084860312156123ff57600080fd5b6124088461229c565b92506124166020850161229c565b929592945050506040919091013590565b60006020828403121561243957600080fd5b5035919050565b6001600160a01b0391909116815260200190565b6000806040838503121561246757600080fd5b6124708361229c565b91506115e86020840161229c565b600181811c9082168061249257607f821691505b6020821081036124b257634e487b7160e01b600052602260045260246000fd5b50919050565b600082516124ca818460208701612245565b9190910192915050565b600060408284031280156124e757600080fd5b506040805190810167ffffffffffffffff8111828210171561250b5761250b6122dd565b604052825181526020928301519281019290925250919050565b634e487b7160e01b600052601160045260246000fd5b6001815b60018411156125765780850481111561255a5761255a612525565b600184161561256857908102905b60019390931c92800261253f565b935093915050565b60008261258d57506001610367565b8161259a57506000610367565b81600181146125b057600281146125ba576125d6565b6001915050610367565b60ff8411156125cb576125cb612525565b50506001821b610367565b5060208310610133831016604e8410600b84101617156125f9575081810a610367565b612606600019848461253b565b806000190482111561261a5761261a612525565b029392505050565b60006112c8838361257e565b808202811582820484141761036757610367612525565b8082018082111561036757610367612525565b8181038181111561036757610367612525565b63ffffffff828116828216039081111561036757610367612525565b634e487b7160e01b600052601260045260246000fd5b6000826126ac576126ac612687565b500490565b81810360008312801583831316838312821617156126d1576126d1612525565b5092915050565b80820260008212600160ff1b841416156126f4576126f4612525565b818105831482151761036757610367612525565b60008261271757612717612687565b600160ff1b82146000198414161561273157612731612525565b500590565b601f82111561080c57806000526020600020601f840160051c8101602085101561275d5750805b601f840160051c820191505b81811015610a285760008155600101612769565b815167ffffffffffffffff811115612797576127976122dd565b6127ab816127a5845461247e565b84612736565b6020601f8211600181146127df57600083156127c75750848201515b600019600385901b1c1916600184901b178455610a28565b600084815260208120601f198516915b8281101561280f57878501518255602094850194600190920191016127ef565b508482101561282d5786840151600019600387901b60f8161c191681555b50505050600190811b0190555056fea2646970667358221220a5afd7c62bac31fdaa108015ee59ea7c0b4672cfa0dab7d678f4e07f7db9d13464736f6c634300081c0033",
  "linkReferences": {},
  "deployedLinkReferences": {}
}