{
  "_format": "hh-sol-artifact-1",
  "contractName": "TestERC20",
  "sourceName": "contracts/test/TestERC20.sol",
  "abi": [
    {
      "inputs": [
        {
          "internalType": "string",
          "name": "name_",
          "type": "string"
        },
        {
          "internalType": "string",
          "name": "symbol_",
          "type": "string"
        },
        {
          "internalType": "uint8",
          "name": "decimals_",
          "type": "uint8"
        }
      ],
      "stateMutability": "nonpayable",
      "type": "constructor"
    },
    {
      "inputs": [
        {
          "internalType": "address",
          "name": "spender",
          "type": "address"
        },
        {
          "internalType": "uint256",
          "name": "allowance",
          "type": "uint256"
        },
        {
          "internalType": "uint256",
          "name": "needed",
          "type": "uint256"
        }
      ],
      "name": "ERC20InsufficientAllowance",
      "type": "error"
    },
    {
      "inputs": [
        {
          "internalType": "address",
          "name": "sender",
          "type": "address"
        },
        {
          "internalType": "uint256",
          "name": "balance",
          "type": "uint256"
        },
        {
          "internalType": "uint256",
          "name": "needed",
          "type": "uint256"
        }
      ],
      "name": "ERC20InsufficientBalance",
      "type": "error"
    },
    {
      "inputs": [
        {
          "internalType": "address",
          "name": "approver",
          "type": "address"
        }
      ],
      "name": "ERC20InvalidApprover",
      "type": "error"
    },
    {
      "inputs": [
        {
          "internalType": "address",
          "name": "receiver",
          "type": "address"
        }
      ],
      "name": "ERC20InvalidReceiver",
      "type": "error"
    },
    {
      "inputs": [
        {
          "internalType": "address",
          "name": "sender",
          "type": "address"
        }
      ],
      "name": "ERC20InvalidSender",
      "type": "error"
    },
    {
      "inputs": [
        {
          "internalType": "address",
          "name": "spender",
          "type": "address"
        }
      ],
      "name": "ERC20InvalidSpender",
      "type": "error"
    },
    {
      "inputs": [
        {
          "internalType": "address",
          "name": "owner",
          "type": "address"
        }
      ],
      "name": "OwnableInvalidOwner",
      "type": "error"
    },
    {
      "inputs": [
        {
          "internalType": "address",
          "name": "account",
          "type": "address"
        }
      ],
      "name": "OwnableUnauthorizedAccount",
      "type": "error"
    },
    {
      "anonymous": false,
      "inputs": [
        {
          "indexed": true,
          "internalType": "address",
          "name": "owner",
          "type": "address"
        },
        {
          "indexed": true,
          "internalType": "address",
          "name": "spender",
          "type": "address"
        },
        {
          "indexed": false,
          "internalType": "uint256",
          "name": "value",
          "type": "uint256"
        }
      ],
      "name": "Approval",
      "type": "event"
    },
    {
      "anonymous": false,
      "inputs": [
        {
          "indexed": true,
          "internalType": "address",
          "name": "previousOwner",
          "type": "address"
        },
        {
          "indexed": true,
          "internalType": "address",
          "name": "newOwner",
          "type": "address"
        }
      ],
      "name": "OwnershipTransferred",
      "type": "event"
    },
    {
      "anonymous": false,
      "inputs": [
        {
          "indexed": true,
          "internalType": "address",
          "name": "from",
          "type": "address"
        },
        {
          "indexed": true,
          "internalType": "address",
          "name": "to",
          "type": "address"
        },
        {
          "indexed": false,
          "internalType": "uint256",
          "name": "value",
          "type": "uint256"
        }
      ],
      "name": "Transfer",
      "type": "event"
    },
    {
      "inputs": [
        {
          "internalType": "address",
          "name": "owner",
          "type": "address"
        },
        {
          "internalType": "address",
          "name": "spender",
          "type": "address"
        }
      ],
      "name": "allowance",
      "outputs": [
        {
          "internalType": "uint256",
          "name": "",
          "type": "uint256"
        }
      ],
      "stateMutability": "view",
      "type": "function"
    },
    {
      "inputs": [
        {
          "internalType": "address",
          "name": "spender",
          "type": "address"
        },
        {
          "internalType": "uint256",
          "name": "value",
          "type": "uint256"
        }
      ],
      "name": "approve",
      "outputs": [
        {
          "internalType": "bool",
          "name": "",
          "type": "bool"
        }
      ],
      "stateMutability": "nonpayable",
      "type": "function"
    },
    {
      "inputs": [
        {
          "internalType": "address",
          "name": "account",
          "type": "address"
        }
      ],
      "name": "balanceOf",
      "outputs": [
        {
          "internalType": "uint256",
          "name": "",
          "type": "uint256"
        }
      ],
      "stateMutability": "view",
      "type": "function"
    },
    {
      "inputs": [
        {
          "internalType": "uint256",
          "name": "value",
          "type": "uint256"
        }
      ],
      "name": "burn",
      "outputs": [],
      "stateMutability": "nonpayable",
      "type": "function"
    },
    {
      "inputs": [
        {
          "internalType": "address",
          "name": "account",
          "type": "address"
        },
        {
          "internalType": "uint256",
          "name": "value",
          "type": "uint256"
        }
      ],
      "name": "burnFrom",
      "outputs": [],
      "stateMutability": "nonpayable",
      "type": "function"
    },
    {
      "inputs": [],
      "name": "decimals",
      "outputs": [
        {
          "internalType": "uint8",
          "name": "",
          "type": "uint8"
        }
      ],
      "stateMutability": "view",
      "type": "function"
    },
    {
      "inputs": [
        {
          "internalType": "address",
          "name": "to",
          "type": "address"
        },
        {
          "internalType": "uint256",
          "name": "amt",
          "type": "uint256"
        }
      ],
      "name": "mint",
      "outputs": [],
      "stateMutability": "nonpayable",
      "type": "function"
    },
    {
      "inputs": [
        {
          "internalType": "address",
          "name": "owner",
          "type": "address"
        },
        {
          "internalType": "address",
          "name": "spender",
          "type": "address"
        },
        {
          "internalType": "uint256",
          "name": "amt",
          "type": "uint256"
        }
      ],
      "name": "mintApprove",
      "outputs": [],
      "stateMutability": "nonpayable",
      "type": "function"
    },
    {
      "inputs": [],
      "name": "name",
      "outputs": [
        {
          "internalType": "string",
          "name": "",
          "type": "string"
        }
      ],
      "stateMutability": "view",
      "type": "function"
    },
    {
      "inputs": [],
      "name": "owner",
      "outputs": [
        {
          "internalType": "address",
          "name": "",
          "type": "address"
        }
      ],
      "stateMutability": "view",
      "type": "function"
    },
    {
      "inputs": [],
      "name": "renounceOwnership",
      "outputs": [],
      "stateMutability": "nonpayable",
      "type": "function"
    },
    {
      "inputs": [],
      "name": "symbol",
      "outputs": [
        {
          "internalType": "string",
          "name": "",
          "type": "string"
        }
      ],
      "stateMutability": "view",
      "type": "function"
    },
    {
      "inputs": [],
      "name": "totalSupply",
      "outputs": [
        {
          "internalType": "uint256",
          "name": "",
          "type": "uint256"
        }
      ],
      "stateMutability": "view",
      "type": "function"
    },
    {
      "inputs": [
        {
          "internalType": "address",
          "name": "to",
          "type": "address"
        },
        {
          "internalType": "uint256",
          "name": "value",
          "type": "uint256"
        }
      ],
      "name": "transfer",
      "outputs": [
        {
          "internalType": "bool",
          "name": "",
          "type": "bool"
        }
      ],
      "stateMutability": "nonpayable",
      "type": "function"
    },
    {
      "inputs": [
        {
          "internalType": "address",
          "name": "from",
          "type": "address"
        },
        {
          "internalType": "address",
          "name": "to",
          "type": "address"
        },
        {
          "internalType": "uint256",
          "name": "value",
          "type": "uint256"
        }
      ],
      "name": "transferFrom",
      "outputs": [
        {
          "internalType": "bool",
          "name": "",
          "type": "bool"
        }
      ],
      "stateMutability": "nonpayable",
      "type": "function"
    },
    {
      "inputs": [
        {
          "internalType": "address",
          "name": "newOwner",
          "type": "address"
        }
      ],
      "name": "transferOwnership",
      "outputs": [],
      "stateMutability": "nonpayable",
      "type": "function"
    }
  ],
  "bytecode": "0x60a060405234801561001057600080fd5b50604051610ed6380380610ed683398101604081905261002f91610317565b338383600361003e8382610423565b50600461004b8282610423565b5050506001600160a01b03811661007d57604051631e4fbdf760e01b8152600060048201526024015b60405180910390fd5b610086816100a8565b5060ff81166080526100a033678ac7230489e800006100fa565b505050610508565b600580546001600160a01b038381166001600160a01b0319831681179093556040519116919082907f8be0079c531659141344cd1fd0a4f28419497f9722a3daafe3b4186f6b6457e090600090a35050565b6001600160a01b0382166101245760405163ec442f0560e01b815260006004820152602401610074565b61013060008383610134565b5050565b6001600160a01b03831661015f57806002600082825461015491906104e1565b909155506101d19050565b6001600160a01b038316600090815260208190526040902054818110156101b25760405163391434e360e21b81526001600160a01b03851660048201526024810182905260448101839052606401610074565b6001600160a01b03841660009081526020819052604090209082900390555b6001600160a01b0382166101ed5760028054829003905561020c565b6001600160a01b03821660009081526020819052604090208054820190555b816001600160a01b0316836001600160a01b03167fddf252ad1be2c89b69c2b068fc378daa952ba7f163c4a11628f55a4df523b3ef8360405161025191815260200190565b60405180910390a3505050565b634e487b7160e01b600052604160045260246000fd5b600082601f83011261028557600080fd5b81516001600160401b0381111561029e5761029e61025e565b604051601f8201601f19908116603f011681016001600160401b03811182821017156102cc576102cc61025e565b6040528181528382016020018510156102e457600080fd5b60005b82811015610303576020818601810151838301820152016102e7565b506000918101602001919091529392505050565b60008060006060848603121561032c57600080fd5b83516001600160401b0381111561034257600080fd5b61034e86828701610274565b602086015190945090506001600160401b0381111561036c57600080fd5b61037886828701610274565b925050604084015160ff8116811461038f57600080fd5b809150509250925092565b600181811c908216806103ae57607f821691505b6020821081036103ce57634e487b7160e01b600052602260045260246000fd5b50919050565b601f82111561041e57806000526020600020601f840160051c810160208510156103fb5750805b601f840160051c820191505b8181101561041b5760008155600101610407565b50505b505050565b81516001600160401b0381111561043c5761043c61025e565b6104508161044a845461039a565b846103d4565b6020601f821160018114610484576000831561046c5750848201515b600019600385901b1c1916600184901b17845561041b565b600084815260208120601f198516915b828110156104b45787850151825560209485019460019092019101610494565b50848210156104d25786840151600019600387901b60f8161c191681555b50505050600190811b01905550565b8082018082111561050257634e487b7160e01b600052601160045260246000fd5b92915050565b6080516109b6610520600039600050506109b66000f3fe608060405234801561001057600080fd5b50600436106101005760003560e01c8063715018a611610097578063a9059cbb11610066578063a9059cbb14610207578063dd62ed3e1461021a578063e0324e591461022d578063f2fde38b1461024057600080fd5b8063715018a6146101cb57806379cc6790146101d35780638da5cb5b146101e657806395d89b41146101ff57600080fd5b8063313ce567116100d3578063313ce5671461016b57806340c10f191461017a57806342966c681461018f57806370a08231146101a257600080fd5b806306fdde0314610105578063095ea7b31461012357806318160ddd1461014657806323b872dd14610158575b600080fd5b61010d610253565b60405161011a91906107d2565b60405180910390f35b61013661013136600461083c565b6102e5565b604051901515815260200161011a565b6002545b60405190815260200161011a565b610136610166366004610866565b6102ff565b6040516012815260200161011a565b61018d61018836600461083c565b610323565b005b61018d61019d3660046108a3565b610339565b61014a6101b03660046108bc565b6001600160a01b031660009081526020819052604090205490565b61018d610346565b61018d6101e136600461083c565b61035a565b6005546001600160a01b031660405161011a91906108de565b61010d61036f565b61013661021536600461083c565b61037e565b61014a6102283660046108f2565b61038c565b61018d61023b366004610866565b6103b7565b61018d61024e3660046108bc565b6103d1565b60606003805461026290610925565b80601f016020809104026020016040519081016040528092919081815260200182805461028e90610925565b80156102db5780601f106102b0576101008083540402835291602001916102db565b820191906000526020600020905b8154815290600101906020018083116102be57829003601f168201915b5050505050905090565b6000336102f3818585610415565b60019150505b92915050565b60003361030d858285610422565b610318858585610489565b506001949350505050565b61032b6104e8565b6103358282610515565b5050565b610343338261054b565b50565b61034e6104e8565b6103586000610581565b565b610365823383610422565b610335828261054b565b60606004805461026290610925565b6000336102f3818585610489565b6001600160a01b03918216600090815260016020908152604080832093909416825291909152205490565b6103c18382610515565b6103cc838383610415565b505050565b6103d96104e8565b6001600160a01b03811661040c576000604051631e4fbdf760e01b815260040161040391906108de565b60405180910390fd5b61034381610581565b6103cc83838360016105d3565b600061042e848461038c565b9050600019811015610483578181101561047457604051637dc7a0d960e11b81526001600160a01b03841660048201526024810182905260448101839052606401610403565b610483848484840360006105d3565b50505050565b6001600160a01b0383166104b3576000604051634b637e8f60e11b815260040161040391906108de565b6001600160a01b0382166104dd57600060405163ec442f0560e01b815260040161040391906108de565b6103cc8383836106a8565b6005546001600160a01b03163314610358573360405163118cdaa760e01b815260040161040391906108de565b6001600160a01b03821661053f57600060405163ec442f0560e01b815260040161040391906108de565b610335600083836106a8565b6001600160a01b038216610575576000604051634b637e8f60e11b815260040161040391906108de565b610335826000836106a8565b600580546001600160a01b038381166001600160a01b0319831681179093556040519116919082907f8be0079c531659141344cd1fd0a4f28419497f9722a3daafe3b4186f6b6457e090600090a35050565b6001600160a01b0384166105fd57600060405163e602df0560e01b815260040161040391906108de565b6001600160a01b038316610627576000604051634a1406b160e11b815260040161040391906108de565b6001600160a01b038085166000908152600160209081526040808320938716835292905220829055801561048357826001600160a01b0316846001600160a01b03167f8c5be1e5ebec7d5bd14f71427d1e84f3dd0314c0f7b2291e5b200ac8c7c3b9258460405161069a91815260200190565b60405180910390a350505050565b6001600160a01b0383166106d35780600260008282546106c8919061095f565b909155506107459050565b6001600160a01b038316600090815260208190526040902054818110156107265760405163391434e360e21b81526001600160a01b03851660048201526024810182905260448101839052606401610403565b6001600160a01b03841660009081526020819052604090209082900390555b6001600160a01b03821661076157600280548290039055610780565b6001600160a01b03821660009081526020819052604090208054820190555b816001600160a01b0316836001600160a01b03167fddf252ad1be2c89b69c2b068fc378daa952ba7f163c4a11628f55a4df523b3ef836040516107c591815260200190565b60405180910390a3505050565b602081526000825180602084015260005b8181101561080057602081860181015160408684010152016107e3565b506000604082850101526040601f19601f83011684010191505092915050565b80356001600160a01b038116811461083757600080fd5b919050565b6000806040838503121561084f57600080fd5b61085883610820565b946020939093013593505050565b60008060006060848603121561087b57600080fd5b61088484610820565b925061089260208501610820565b929592945050506040919091013590565b6000602082840312156108b557600080fd5b5035919050565b6000602082840312156108ce57600080fd5b6108d782610820565b9392505050565b6001600160a01b0391909116815260200190565b6000806040838503121561090557600080fd5b61090e83610820565b915061091c60208401610820565b90509250929050565b600181811c9082168061093957607f821691505b60208210810361095957634e487b7160e01b600052602260045260246000fd5b50919050565b808201808211156102f957634e487b7160e01b600052601160045260246000fdfea264697066735822122017b5db3f9eff05f7d831a5b9fda020c7af52d49e785a3dc92109a52d42b6a5ac64736f6c634300081c0033",
  "linkReferences": {},
  "deployedLinkReferences": {}
}