{
  "_format": "hh-sol-artifact-1",
  "contractName": "Pair",
  "sourceName": "contracts/Pair.sol",
  "abi": [
    {
      "inputs": [
        {
          "internalType": "address",
          "name": "spender",
          "type": "address"
        },
        {
          "internalType": "uint256",
          "name": "allowance",
          "type": "uint256"
        },
        {
          "internalType": "uint256",
          "name": "needed",
          "type": "uint256"
        }
      ],
      "name": "ERC20InsufficientAllowance",
      "type": "error"
    },
    {
      "inputs": [
        {
          "internalType": "address",
          "name": "sender",
          "type": "address"
        },
        {
          "internalType": "uint256",
          "name": "balance",
          "type": "uint256"
        },
        {
          "internalType": "uint256",
          "name": "needed",
          "type": "uint256"
        }
      ],
      "name": "ERC20InsufficientBalance",
      "type": "error"
    },
    {
      "inputs": [
        {
          "internalType": "address",
          "name": "approver",
          "type": "address"
        }
      ],
      "name": "ERC20InvalidApprover",
      "type": "error"
    },
    {
      "inputs": [
        {
          "internalType": "address",
          "name": "receiver",
          "type": "address"
        }
      ],
      "name": "ERC20InvalidReceiver",
      "type": "error"
    },
    {
      "inputs": [
        {
          "internalType": "address",
          "name": "sender",
          "type": "address"
        }
      ],
      "name": "ERC20InvalidSender",
      "type": "error"
    },
    {
      "inputs": [
        {
          "internalType": "address",
          "name": "spender",
          "type": "address"
        }
      ],
      "name": "ERC20InvalidSpender",
      "type": "error"
    },
    {
      "inputs": [],
      "name": "InvalidInitialization",
      "type": "error"
    },
    {
      "inputs": [],
      "name": "NotInitializing",
      "type": "error"
    },
    {
      "inputs": [
        {
          "internalType": "address",
          "name": "owner",
          "type": "address"
        }
      ],
      "name": "OwnableInvalidOwner",
      "type": "error"
    },
    {
      "inputs": [
        {
          "internalType": "address",
          "name": "account",
          "type": "address"
        }
      ],
      "name": "OwnableUnauthorizedAccount",
      "type": "error"
    },
    {
      "anonymous": false,
      "inputs": [
        {
          "indexed": true,
          "internalType": "address",
          "name": "owner",
          "type": "address"
        },
        {
          "indexed": true,
          "internalType": "address",
          "name": "spender",
          "type": "address"
        },
        {
          "indexed": false,
          "internalType": "uint256",
          "name": "value",
          "type": "uint256"
        }
      ],
      "name": "Approval",
      "type": "event"
    },
    {
      "anonymous": false,
      "inputs": [
        {
          "indexed": true,
          "internalType": "address",
          "name": "sender",
          "type": "address"
        },
        {
          "indexed": false,
          "internalType": "uint256",
          "name": "amount0",
          "type": "uint256"
        },
        {
          "indexed": false,
          "internalType": "uint256",
          "name": "amount1",
          "type": "uint256"
        },
        {
          "indexed": true,
          "internalType": "address",
          "name": "to",
          "type": "address"
        }
      ],
      "name": "Burn",
      "type": "event"
    },
    {
      "anonymous": false,
      "inputs": [
        {
          "indexed": false,
          "internalType": "uint256",
          "name": "minFee",
          "type": "uint256"
        },
        {
          "indexed": false,
          "internalType": "uint256",
          "name": "maxFee",
          "type": "uint256"
        }
      ],
      "name": "FeeUpdated",
      "type": "event"
    },
    {
      "anonymous": false,
      "inputs": [
        {
          "indexed": false,
          "internalType": "uint64",
          "name": "version",
          "type": "uint64"
        }
      ],
      "name": "Initialized",
      "type": "event"
    },
    {
      "anonymous": false,
      "inputs": [
        {
          "indexed": true,
          "internalType": "address",
          "name": "sender",
          "type": "address"
        },
        {
          "indexed": false,
          "internalType": "uint256",
          "name": "amount0",
          "type": "uint256"
        },
        {
          "indexed": false,
          "internalType": "uint256",
          "name": "amount1",
          "type": "uint256"
        }
      ],
      "name": "Mint",
      "type": "event"
    },
    {
      "anonymous": false,
      "inputs": [
        {
          "indexed": true,
          "internalType": "address",
          "name": "previousOwner",
          "type": "address"
        },
        {
          "indexed": true,
          "internalType": "address",
          "name": "newOwner",
          "type": "address"
        }
      ],
      "name": "OwnershipTransferred",
      "type": "event"
    },
    {
      "anonymous": false,
      "inputs": [
        {
          "indexed": true,
          "internalType": "address",
          "name": "sender",
          "type": "address"
        },
        {
          "indexed": false,
          "internalType": "uint256",
          "name": "amount0In",
          "type": "uint256"
        },
        {
          "indexed": false,
          "internalType": "uint256",
          "name": "amount1In",
          "type": "uint256"
        },
        {
          "indexed": false,
          "internalType": "uint256",
          "name": "amount0Out",
          "type": "uint256"
        },
        {
          "indexed": false,
          "internalType": "uint256",
          "name": "amount1Out",
          "type": "uint256"
        },
        {
          "indexed": true,
          "internalType": "address",
          "name": "to",
          "type": "address"
        }
      ],
      "name": "Swap",
      "type": "event"
    },
    {
      "anonymous": false,
      "inputs": [
        {
          "indexed": false,
          "internalType": "uint112",
          "name": "reserve0",
          "type": "uint112"
        },
        {
          "indexed": false,
          "internalType": "uint112",
          "name": "reserve1",
          "type": "uint112"
        }
      ],
      "name": "Sync",
      "type": "event"
    },
    {
      "anonymous": false,
      "inputs": [
        {
          "indexed": true,
          "internalType": "address",
          "name": "from",
          "type": "address"
        },
        {
          "indexed": true,
          "internalType": "address",
          "name": "to",
          "type": "address"
        },
        {
          "indexed": false,
          "internalType": "uint256",
          "name": "value",
          "type": "uint256"
        }
      ],
      "name": "Transfer",
      "type": "event"
    },
    {
      "inputs": [],
      "name": "DOMAIN_SEPARATOR",
      "outputs": [
        {
          "internalType": "bytes32",
          "name": "",
          "type": "bytes32"
        }
      ],
      "stateMutability": "view",
      "type": "function"
    },
    {
      "inputs": [],
      "name": "FEE_BASIS_POINTS",
      "outputs": [
        {
          "internalType": "uint256",
          "name": "",
          "type": "uint256"
        }
      ],
      "stateMutability": "view",
      "type": "function"
    },
    {
      "inputs": [],
      "name": "MAXIMUM_FEE",
      "outputs": [
        {
          "internalType": "uint256",
          "name": "",
          "type": "uint256"
        }
      ],
      "stateMutability": "view",
      "type": "function"
    },
    {
      "inputs": [],
      "name": "MINIMUM_FEE",
      "outputs": [
        {
          "internalType": "uint256",
          "name": "",
          "type": "uint256"
        }
      ],
      "stateMutability": "view",
      "type": "function"
    },
    {
      "inputs": [],
      "name": "MINIMUM_LIQUIDITY",
      "outputs": [
        {
          "internalType": "uint256",
          "name": "",
          "type": "uint256"
        }
      ],
      "stateMutability": "view",
      "type": "function"
    },
    {
      "inputs": [],
      "name": "PERMIT_TYPEHASH",
      "outputs": [
        {
          "internalType": "bytes32",
          "name": "",
          "type": "bytes32"
        }
      ],
      "stateMutability": "view",
      "type": "function"
    },
    {
      "inputs": [
        {
          "internalType": "address",
          "name": "owner",
          "type": "address"
        },
        {
          "internalType": "address",
          "name": "spender",
          "type": "address"
        }
      ],
      "name": "allowance",
      "outputs": [
        {
          "internalType": "uint256",
          "name": "",
          "type": "uint256"
        }
      ],
      "stateMutability": "view",
      "type": "function"
    },
    {
      "inputs": [
        {
          "internalType": "address",
          "name": "spender",
          "type": "address"
        },
        {
          "internalType": "uint256",
          "name": "value",
          "type": "uint256"
        }
      ],
      "name": "approve",
      "outputs": [
        {
          "internalType": "bool",
          "name": "",
          "type": "bool"
        }
      ],
      "stateMutability": "nonpayable",
      "type": "function"
    },
    {
      "inputs": [
        {
          "internalType": "address",
          "name": "account",
          "type": "address"
        }
      ],
      "name": "balanceOf",
      "outputs": [
        {
          "internalType": "uint256",
          "name": "",
          "type": "uint256"
        }
      ],
      "stateMutability": "view",
      "type": "function"
    },
    {
      "inputs": [
        {
          "internalType": "address",
          "name": "to",
          "type": "address"
        }
      ],
      "name": "burn",
      "outputs": [
        {
          "internalType": "uint256",
          "name": "amount0",
          "type": "uint256"
        },
        {
          "internalType": "uint256",
          "name": "amount1",
          "type": "uint256"
        }
      ],
      "stateMutability": "nonpayable",
      "type": "function"
    },
    {
      "inputs": [
        {
          "internalType": "uint256",
          "name": "amount",
          "type": "uint256"
        },
        {
          "internalType": "uint256",
          "name": "reserve",
          "type": "uint256"
        }
      ],
      "name": "calculateFeePercent",
      "outputs": [
        {
          "internalType": "uint256",
          "name": "",
          "type": "uint256"
        }
      ],
      "stateMutability": "view",
      "type": "function"
    },
    {
      "inputs": [],
      "name": "decimals",
      "outputs": [
        {
          "internalType": "uint8",
          "name": "",
          "type": "uint8"
        }
      ],
      "stateMutability": "view",
      "type": "function"
    },
    {
      "inputs": [],
      "name": "feePercents",
      "outputs": [
        {
          "internalType": "uint256",
          "name": "",
          "type": "uint256"
        },
        {
          "internalType": "uint256",
          "name": "",
          "type": "uint256"
        }
      ],
      "stateMutability": "view",
      "type": "function"
    },
    {
      "inputs": [],
      "name": "getReserves",
      "outputs": [
        {
          "internalType": "uint112",
          "name": "",
          "type": "uint112"
        },
        {
          "internalType": "uint112",
          "name": "",
          "type": "uint112"
        },
        {
          "internalType": "uint32",
          "name": "",
          "type": "uint32"
        }
      ],
      "stateMutability": "view",
      "type": "function"
    },
    {
      "inputs": [
        {
          "internalType": "address",
          "name": "_token0",
          "type": "address"
        },
        {
          "internalType": "address",
          "name": "_token1",
          "type": "address"
        }
      ],
      "name": "initialize",
      "outputs": [],
      "stateMutability": "nonpayable",
      "type": "function"
    },
    {
      "inputs": [
        {
          "internalType": "address",
          "name": "to",
          "type": "address"
        }
      ],
      "name": "mint",
      "outputs": [
        {
          "internalType": "uint256",
          "name": "liquidity",
          "type": "uint256"
        }
      ],
      "stateMutability": "nonpayable",
      "type": "function"
    },
    {
      "inputs": [],
      "name": "name",
      "outputs": [
        {
          "internalType": "string",
          "name": "",
          "type": "string"
        }
      ],
      "stateMutability": "view",
      "type": "function"
    },
    {
      "inputs": [
        {
          "internalType": "address",
          "name": "",
          "type": "address"
        }
      ],
      "name": "nonces",
      "outputs": [
        {
          "internalType": "uint256",
          "name": "",
          "type": "uint256"
        }
      ],
      "stateMutability": "view",
      "type": "function"
    },
    {
      "inputs": [],
      "name": "owner",
      "outputs": [
        {
          "internalType": "address",
          "name": "",
          "type": "address"
        }
      ],
      "stateMutability": "view",
      "type": "function"
    },
    {
      "inputs": [],
      "name": "price0CumulativeLast",
      "outputs": [
        {
          "internalType": "uint256",
          "name": "",
          "type": "uint256"
        }
      ],
      "stateMutability": "view",
      "type": "function"
    },
    {
      "inputs": [],
      "name": "price1CumulativeLast",
      "outputs": [
        {
          "internalType": "uint256",
          "name": "",
          "type": "uint256"
        }
      ],
      "stateMutability": "view",
      "type": "function"
    },
    {
      "inputs": [],
      "name": "renounceOwnership",
      "outputs": [],
      "stateMutability": "nonpayable",
      "type": "function"
    },
    {
      "inputs": [],
      "name": "resetFee",
      "outputs": [],
      "stateMutability": "nonpayable",
      "type": "function"
    },
    {
      "inputs": [],
      "name": "router",
      "outputs": [
        {
          "internalType": "address",
          "name": "",
          "type": "address"
        }
      ],
      "stateMutability": "view",
      "type": "function"
    },
    {
      "inputs": [
        {
          "internalType": "uint256",
          "name": "newMinFee",
          "type": "uint256"
        },
        {
          "internalType": "uint256",
          "name": "newMaxFee",
          "type": "uint256"
        }
      ],
      "name": "setFee",
      "outputs": [],
      "stateMutability": "nonpayable",
      "type": "function"
    },
    {
      "inputs": [
        {
          "internalType": "uint256",
          "name": "amount0Out",
          "type": "uint256"
        },
        {
          "internalType": "uint256",
          "name": "amount1Out",
          "type": "uint256"
        },
        {
          "internalType": "address",
          "name": "to",
          "type": "address"
        }
      ],
      "name": "swap",
      "outputs": [],
      "stateMutability": "nonpayable",
      "type": "function"
    },
    {
      "inputs": [],
      "name": "symbol",
      "outputs": [
        {
          "internalType": "string",
          "name": "",
          "type": "string"
        }
      ],
      "stateMutability": "view",
      "type": "function"
    },
    {
      "inputs": [],
      "name": "token0",
      "outputs": [
        {
          "internalType": "address",
          "name": "",
          "type": "address"
        }
      ],
      "stateMutability": "view",
      "type": "function"
    },
    {
      "inputs": [],
      "name": "token1",
      "outputs": [
        {
          "internalType": "address",
          "name": "",
          "type": "address"
        }
      ],
      "stateMutability": "view",
      "type": "function"
    },
    {
      "inputs": [],
      "name": "totalSupply",
      "outputs": [
        {
          "internalType": "uint256",
          "name": "",
          "type": "uint256"
        }
      ],
      "stateMutability": "view",
      "type": "function"
    },
    {
      "inputs": [
        {
          "internalType": "address",
          "name": "to",
          "type": "address"
        },
        {
          "internalType": "uint256",
          "name": "value",
          "type": "uint256"
        }
      ],
      "name": "transfer",
      "outputs": [
        {
          "internalType": "bool",
          "name": "",
          "type": "bool"
        }
      ],
      "stateMutability": "nonpayable",
      "type": "function"
    },
    {
      "inputs": [
        {
          "internalType": "address",
          "name": "from",
          "type": "address"
        },
        {
          "internalType": "address",
          "name": "to",
          "type": "address"
        },
        {
          "internalType": "uint256",
          "name": "value",
          "type": "uint256"
        }
      ],
      "name": "transferFrom",
      "outputs": [
        {
          "internalType": "bool",
          "name": "",
          "type": "bool"
        }
      ],
      "stateMutability": "nonpayable",
      "type": "function"
    },
    {
      "inputs": [
        {
          "internalType": "address",
          "name": "newOwner",
          "type": "address"
        }
      ],
      "name": "transferOwnership",
      "outputs": [],
      "stateMutability": "nonpayable",
      "type": "function"
    }
  ],
  "bytecode": "0x6080604052348015600f57600080fd5b506125df8061001f6000396000f3fe608060405234801561001057600080fd5b50600436106101fb5760003560e01c8063692877f01161011a5780638da5cb5b116100ad578063ba9a7a561161007c578063ba9a7a5614610453578063d21220a71461045c578063dd62ed3e14610464578063f2fde38b14610477578063f887ea401461048a57600080fd5b80638da5cb5b1461040a57806395d89b4114610412578063a525ad3c14610437578063a9059cbb1461044057600080fd5b8063715018a6116100e9578063715018a6146103c7578063727682ad146103cf5780637ecebe00146103d757806389afcb44146103f757600080fd5b8063692877f01461037b5780636a6278421461038e5780636d9a640a146103a157806370a08231146103b457600080fd5b8063313ce5671161019257806352f7c9881161016157806352f7c9881461035057806357855e0e146103635780635909c0d51461036b5780635a3d54931461037357600080fd5b8063313ce567146103115780633644e5151461032b578063485cc955146103335780634f66a3221461034857600080fd5b80630dfe1681116101ce5780630dfe1681146102ac57806318160ddd146102c157806323b872dd146102d757806330adf81f146102ea57600080fd5b8063057dbb731461020057806306fdde03146102225780630902f1ac14610255578063095ea7b314610289575b600080fd5b610208610492565b604080519283526020830191909152015b60405180910390f35b6102486040518060400160405280600781526020016604761696e7a4c560cc1b81525081565b6040516102199190612192565b61025d6104b4565b604080516001600160701b03948516815293909216602084015263ffffffff1690820152606001610219565b61029c6102973660046121da565b6104f3565b6040519015158152602001610219565b6102b461050a565b6040516102199190612206565b6102c9610526565b604051908152602001610219565b61029c6102e536600461221a565b610538565b6102c97f6e71edae12b1b97f4d1f60370fef10105fa2faae0126114a169c64845d6126c981565b610319601281565b60405160ff9091168152602001610219565b6102c96105f4565b61034661034136600461225b565b610607565b005b6102c9602381565b61034661035e366004612294565b610769565b6102c9600581565b6102c96108bc565b6102c96108cf565b6102c9610389366004612294565b6108e2565b6102c961039c3660046122b6565b610a27565b6103466103af3660046122d3565b610cf7565b6102c96103c23660046122b6565b611262565b61034661128f565b6103466112a3565b6102c96103e53660046122b6565b60006020819052908152604090205481565b6102086104053660046122b6565b6112ff565b6102b4611676565b610248604051806040016040528060068152602001650474e5a2d4c560d41b81525081565b6102c961271081565b61029c61044e3660046121da565b6116a4565b6102c96103e881565b6102b46116b1565b6102c961047236600461225b565b6116cd565b6103466104853660046122b6565b611709565b6102b4611747565b600080600061049f611760565b90508060080154816009015492509250509091565b6000806000806104c2611760565b600301546001600160701b0380821696600160701b83049091169550600160e01b90910463ffffffff169350915050565b6000610500338484611784565b5060015b92915050565b6000610514611760565b600101546001600160a01b0316919050565b6000806105316117fa565b5492915050565b6000806105436117fa565b6001600160a01b03861660009081526002820160209081526040808320338452909152902054909150838110156105a257604051637dc7a0d960e11b815233600482015260248101829052604481018590526064015b60405180910390fd5b6001600160a01b03861660009081526002830160209081526040808320338452909152812080548692906105d7908490612322565b909155506105e8905086868661181d565b50600195945050505050565b60006105fe6117fa565b60030154905090565b60006106116118d1565b805490915060ff600160401b820416159067ffffffffffffffff166000811580156106395750825b905060008267ffffffffffffffff1660011480156106565750303b155b905081158015610664575080155b156106825760405163f92ee8a960e01b815260040160405180910390fd5b845467ffffffffffffffff1916600117855583156106ac57845460ff60401b1916600160401b1785555b6106b5336118fa565b6106bd61190b565b60006106c7611760565b8054336001600160a01b03199182161782556001808301805483166001600160a01b038d811691909117909155600284018054909316908b1617909155600782015560056008820155602360099091015550831561076057845460ff60401b19168555604051600181527fc7f505b2f371ae2175ee4913f4499e1f2633a7b5936321eed1cdaeb6115181d2906020015b60405180910390a15b50505050505050565b6107716119f1565b60058210156107c25760405162461bcd60e51b815260206004820152601d60248201527f506169723a206e65774d696e466565203c204d494e494d554d5f4645450000006044820152606401610599565b60238111156108135760405162461bcd60e51b815260206004820152601d60248201527f506169723a206e65774d6178466565203e204d4158494d554d5f4645450000006044820152606401610599565b808211156108635760405162461bcd60e51b815260206004820152601b60248201527f506169723a206e65774d696e466565203e206e65774d617846656500000000006044820152606401610599565b600061086d611760565b600881018490556009810183905560408051858152602081018590529192507f528d9479e9f9889a87a3c30c7f7ba537e5e59c4c85a37733b16e57c62df61302910160405180910390a1505050565b60006108c6611760565b60040154905090565b60006108d9611760565b60050154905090565b60008060006108ef6104b4565b506001600160701b031691506001600160701b031691508184148061091357508084145b6109575760405162461bcd60e51b8152602060048201526015602482015274506169723a20494e56414c49445f5245534552564560581b6044820152606401610599565b600080610962610492565b915091506000848714801561097657508385115b1561098c576109858486612322565b90506109ac565b838714801561099a57508484115b156109ac576109a98585612322565b90505b60006109b6610526565b9050600088826109c6858d612335565b6109d09190612348565b6109da9190612375565b90506000826109e98787612322565b6109f39084612348565b6109fd9190612375565b610a079087612335565b9050848111610a165780610a18565b845b9b9a5050505050505050505050565b600080610a32611760565b90508060070154600114610a585760405162461bcd60e51b815260040161059990612389565b60006007820155610a676119f1565b6000610a71611760565b9050600080610a7e6104b4565b5060018501546040516370a0823160e01b81529294509092506000916001600160a01b03909116906370a0823190610aba903090600401612206565b602060405180830381865afa158015610ad7573d6000803e3d6000fd5b505050506040513d601f19601f82011682018060405250810190610afb91906123af565b60028501546040516370a0823160e01b81529192506000916001600160a01b03909116906370a0823190610b33903090600401612206565b602060405180830381865afa158015610b50573d6000803e3d6000fd5b505050506040513d601f19601f82011682018060405250810190610b7491906123af565b90506000610b8b6001600160701b03861684612322565b90506000610ba26001600160701b03861684612322565b90506000610bae610526565b905080600003610beb576103e8610bcd610bc88486612348565b611a23565b610bd79190612322565b9950610be660006103e8611a93565b610c32565b610c2f6001600160701b038816610c028386612348565b610c0c9190612375565b6001600160701b038816610c208486612348565b610c2a9190612375565b611b2e565b99505b60008a11610c8e5760405162461bcd60e51b815260206004820152602360248201527f506169723a20494e53554646494349454e545f4c49515549444954595f4d494e60448201526215115160ea1b6064820152608401610599565b610c988b8b611a93565b610ca485858989611b46565b604080518481526020810184905233917f4c209b5fc8ad50758f13e2e1088ba56a560dff690a1c6fef26394f4c03821c4f910160405180910390a250505050505050506001816007018190555050919050565b6000610d01611760565b90508060070154600114610d275760405162461bcd60e51b815260040161059990612389565b60006007820155610d366119f1565b6000841180610d455750600083115b610d915760405162461bcd60e51b815260206004820181905260248201527f506169723a20494e53554646494349454e545f4f55545055545f414d4f554e546044820152606401610599565b6000610d9b611760565b9050600080610da86104b4565b5091509150816001600160701b031687108015610dcd5750806001600160701b031686105b610e195760405162461bcd60e51b815260206004820152601c60248201527f506169723a20494e53554646494349454e545f4c4951554944495459000000006044820152606401610599565b60018301546001600160a01b03868116911614801590610e49575060028301546001600160a01b03868116911614155b610e885760405162461bcd60e51b815260206004820152601060248201526f506169723a20494e56414c49445f544f60801b6044820152606401610599565b600080610e9e89856001600160701b0316611d36565b91509150600080610eb88a866001600160701b0316611d36565b90925090508315610edc576001870154610edc906001600160a01b03168a86611d83565b8115610efb576002870154610efb906001600160a01b03168a84611d83565b60018701546040516370a0823160e01b81526000916001600160a01b0316906370a0823190610f2e903090600401612206565b602060405180830381865afa158015610f4b573d6000803e3d6000fd5b505050506040513d601f19601f82011682018060405250810190610f6f91906123af565b60028901546040516370a0823160e01b81529192506000916001600160a01b03909116906370a0823190610fa7903090600401612206565b602060405180830381865afa158015610fc4573d6000803e3d6000fd5b505050506040513d601f19601f82011682018060405250810190610fe891906123af565b90506000610fff876001600160701b038b16612322565b831161100c576000611029565b61101f876001600160701b038b16612322565b6110299084612322565b90506000611040866001600160701b038b16612322565b831161104d57600061106a565b611060866001600160701b038b16612322565b61106a9084612322565b9050600082118061107b5750600081115b6110c75760405162461bcd60e51b815260206004820152601f60248201527f506169723a20494e53554646494349454e545f494e5055545f414d4f554e54006044820152606401610599565b60006110d38884612348565b6110df61271087612348565b6110e99190612322565b905060006110f78784612348565b61110361271087612348565b61110d9190612322565b905061111c60026127106124af565b6111326001600160701b03808e16908f16612348565b61113c9190612348565b6111468284612348565b101561117e5760405162461bcd60e51b8152602060048201526007602482015266506169723a204b60c81b6044820152606401610599565b60006111948d8d61118f8b8e612335565b611e96565b90506111a287878f8f611b46565b80156111dd5760006111b2611760565b60038101549091506111d6906001600160701b03600160701b820481169116612348565b6006909101555b8f6001600160a01b0316336001600160a01b03167fd78ad95fa46c994b6551d0da85fc275fe613ce37657fb8d5e3d130840159d82287878f8e60405161123c949392919093845260208401929092526040830152606082015260800190565b60405180910390a350505050505050505050505050506001816007018190555050505050565b60008061126d6117fa565b6001600160a01b03909316600090815260019093016020525050604090205490565b6112976119f1565b6112a16000611ff3565b565b60006112ad611760565b6005600882018190556023600983018190556040805192835260208301919091529192507f528d9479e9f9889a87a3c30c7f7ba537e5e59c4c85a37733b16e57c62df61302910160405180910390a150565b600080600061130c611760565b905080600701546001146113325760405162461bcd60e51b815260040161059990612389565b600060078201556113416119f1565b600061134b611760565b6003810154600182015460028301546040516370a0823160e01b81529394506001600160701b0380841694600160701b90940416926001600160a01b03928316929091169060009083906370a08231906113a9903090600401612206565b602060405180830381865afa1580156113c6573d6000803e3d6000fd5b505050506040513d601f19601f820116820180604052508101906113ea91906123af565b90506000826001600160a01b03166370a08231306040518263ffffffff1660e01b815260040161141a9190612206565b602060405180830381865afa158015611437573d6000803e3d6000fd5b505050506040513d601f19601f8201168201806040525081019061145b91906123af565b9050600061146830611262565b90506000611474610526565b9050806114818584612348565b61148b9190612375565b9b50806114988484612348565b6114a29190612375565b9a5060008c1180156114b4575060008b115b61150c5760405162461bcd60e51b815260206004820152602360248201527f506169723a20494e53554646494349454e545f4c49515549444954595f42555260448201526213915160ea1b6064820152608401610599565b6115163083612064565b611521868e8e611d83565b61152c858e8d611d83565b6040516370a0823160e01b81526001600160a01b038716906370a0823190611558903090600401612206565b602060405180830381865afa158015611575573d6000803e3d6000fd5b505050506040513d601f19601f8201168201806040525081019061159991906123af565b6040516370a0823160e01b81529094506001600160a01b038616906370a08231906115c8903090600401612206565b602060405180830381865afa1580156115e5573d6000803e3d6000fd5b505050506040513d601f19601f8201168201806040525081019061160991906123af565b925061161784848a8a611b46565b604080518d8152602081018d90526001600160a01b038f169133917fdccd412f0b1252819cb1fd330b93224ca42612892bb3f4f789976e6d81936496910160405180910390a35050505050505050506001816007018190555050915091565b7f9016d09d72d40fdae2fd8ceac6b6234c7706214fd39c1cd1e609a0528c199300546001600160a01b031690565b600061050033848461181d565b60006116bb611760565b600201546001600160a01b0316919050565b6000806116d86117fa565b6001600160a01b03948516600090815260029190910160209081526040808320959096168252939093525050205490565b6117116119f1565b6001600160a01b03811661173b576000604051631e4fbdf760e01b81526004016105999190612206565b61174481611ff3565b50565b6000611751611760565b546001600160a01b0316919050565b7f052a7ca952fd79e6951e1e37bbd8a7a728c978d413c271dcc4d73117e849020090565b600061178e6117fa565b6001600160a01b0385811660008181526002840160209081526040808320948916808452948252918290208790559051868152939450919290917f8c5be1e5ebec7d5bd14f71427d1e84f3dd0314c0f7b2291e5b200ac8c7c3b92591015b60405180910390a350505050565b7e53e124b05349f2255dde42e8688e7f08d28e98ecf44867b1f7ffaee445dc0090565b60006118276117fa565b6001600160a01b0385166000908152600182016020526040812080549293508492909190611856908490612322565b90915550506001600160a01b038316600090815260018201602052604081208054849290611885908490612335565b92505081905550826001600160a01b0316846001600160a01b03167fddf252ad1be2c89b69c2b068fc378daa952ba7f163c4a11628f55a4df523b3ef846040516117ec91815260200190565b6000807ff0c57e16840df040f15088dc2f81fe391c3923bec73e23a9662efc9c229c6a00610504565b6119026120f9565b6117448161211e565b6119136120f9565b600061191d6117fa565b604080518082018252600781526604761696e7a4c560cc1b6020918201528151808301835260018152603160f81b9082015281517f8b73c3c69bb8fe3d512ecc4cf759cc79239f7b179b0ffacaa9a75d522b39400f818301527f3fb61ded361c07ba91021890b6c1942e15f6e77bae5a8ee01fc14755f936976f818401527fc89efdaa54c0f20c7adf612882df0950f5a951637e0307cdcb4c672f298b8bc660608201524660808201523060a0808301919091528351808303909101815260c0909101909252815191012060039091015550565b336119fa611676565b6001600160a01b0316146112a1573360405163118cdaa760e01b81526004016105999190612206565b60006003821115611a845750806000611a3d600283612375565b611a48906001612335565b90505b81811015611a7e57905080600281611a638186612375565b611a6d9190612335565b611a779190612375565b9050611a4b565b50919050565b8115611a8e575060015b919050565b6000611a9d6117fa565b905081816000016000828254611ab39190612335565b90915550506001600160a01b038316600090815260018201602052604081208054849290611ae2908490612335565b90915550506040518281526001600160a01b038416906000907fddf252ad1be2c89b69c2b068fc378daa952ba7f163c4a11628f55a4df523b3ef906020015b60405180910390a3505050565b6000818310611b3d5781611b3f565b825b9392505050565b6000611b50611760565b90506001600160701b038511801590611b7057506001600160701b038411155b611bad5760405162461bcd60e51b815260206004820152600e60248201526d506169723a204f564552464c4f5760901b6044820152606401610599565b6000611bbe640100000000426124be565b6003830154909150600090611be090600160e01b900463ffffffff16836124d2565b905060008163ffffffff16118015611c0057506001600160701b03851615155b8015611c1457506001600160701b03841615155b15611ca7578063ffffffff16611c3c86611c2d87612126565b6001600160e01b03169061213f565b6001600160e01b0316611c4f9190612348565b836004016000828254611c629190612335565b909155505063ffffffff8116611c7b85611c2d88612126565b6001600160e01b0316611c8e9190612348565b836005016000828254611ca19190612335565b90915550505b60038301805463ffffffff8416600160e01b026001600160e01b036001600160701b038a8116600160701b9081026001600160e01b03199095168d83161794909417918216831794859055604080519382169282169290921783529290930490911660208201527f1c411e9a96e071241c2f21f7726b17ae89e3cab4c78be50e062b03a9fffbbad19101610757565b60008083600003611d4c57508290506000611d7c565b611d5684846108e2565b9050612710611d658282612322565b611d6f9086612348565b611d799190612375565b91505b9250929050565b604080516001600160a01b038481166024830152604480830185905283518084039091018152606490920183526020820180516001600160e01b031663a9059cbb60e01b1790529151600092839290871691611ddf91906124ee565b6000604051808303816000865af19150503d8060008114611e1c576040519150601f19603f3d011682016040523d82523d6000602084013e611e21565b606091505b5091509150818015611e4b575080511580611e4b575080806020019051810190611e4b919061250a565b611e8f5760405162461bcd60e51b815260206004820152601560248201527414185a5c8e881514905394d1915497d19052531151605a1b6044820152606401610599565b5050505050565b600080611ea1611760565b905060008160000160009054906101000a90046001600160a01b03166001600160a01b031663017e7e586040518163ffffffff1660e01b8152600401602060405180830381865afa158015611efa573d6000803e3d6000fd5b505050506040513d601f19601f82011682018060405250810190611f1e919061252c565b60068301546001600160a01b0382161580159550919250908490611f425750600085115b15611fdb576000611f62610bc86001600160701b03808a16908b16612348565b90506000611f6f83611a23565b905080821115611fd4576000611f858284612322565b611f8d610526565b611f979190612348565b9050600082611fa68a86612348565b611fb09190612335565b90506000611fbe8284612375565b90508015611fd057611fd08782611a93565b5050505b5050611fe9565b8015611fe957600060068401555b5050509392505050565b7f9016d09d72d40fdae2fd8ceac6b6234c7706214fd39c1cd1e609a0528c19930080546001600160a01b031981166001600160a01b03848116918217845560405192169182907f8be0079c531659141344cd1fd0a4f28419497f9722a3daafe3b4186f6b6457e090600090a3505050565b600061206e6117fa565b6001600160a01b038416600090815260018201602052604081208054929350849290919061209d908490612322565b90915550508054829082906000906120b6908490612322565b90915550506040518281526000906001600160a01b038516907fddf252ad1be2c89b69c2b068fc378daa952ba7f163c4a11628f55a4df523b3ef90602001611b21565b612101612154565b6112a157604051631afcd79f60e31b815260040160405180910390fd5b6117116120f9565b6000610504600160701b6001600160701b038416612549565b6000611b3f6001600160701b0383168461257a565b600061215e6118d1565b54600160401b900460ff16919050565b60005b83811015612189578181015183820152602001612171565b50506000910152565b60208152600082518060208401526121b181604085016020870161216e565b601f01601f19169190910160400192915050565b6001600160a01b038116811461174457600080fd5b600080604083850312156121ed57600080fd5b82356121f8816121c5565b946020939093013593505050565b6001600160a01b0391909116815260200190565b60008060006060848603121561222f57600080fd5b833561223a816121c5565b9250602084013561224a816121c5565b929592945050506040919091013590565b6000806040838503121561226e57600080fd5b8235612279816121c5565b91506020830135612289816121c5565b809150509250929050565b600080604083850312156122a757600080fd5b50508035926020909101359150565b6000602082840312156122c857600080fd5b8135611b3f816121c5565b6000806000606084860312156122e857600080fd5b83359250602084013591506040840135612301816121c5565b809150509250925092565b634e487b7160e01b600052601160045260246000fd5b818103818111156105045761050461230c565b808201808211156105045761050461230c565b80820281158282048414176105045761050461230c565b634e487b7160e01b600052601260045260246000fd5b6000826123845761238461235f565b500490565b6020808252600c908201526b14185a5c8e881313d0d2d15160a21b604082015260600190565b6000602082840312156123c157600080fd5b5051919050565b6001815b6001841115612403578085048111156123e7576123e761230c565b60018416156123f557908102905b60019390931c9280026123cc565b935093915050565b60008261241a57506001610504565b8161242757506000610504565b816001811461243d576002811461244757612463565b6001915050610504565b60ff8411156124585761245861230c565b50506001821b610504565b5060208310610133831016604e8410600b8410161715612486575081810a610504565b61249360001984846123c8565b80600019048211156124a7576124a761230c565b029392505050565b6000611b3f60ff84168361240b565b6000826124cd576124cd61235f565b500690565b63ffffffff82811682821603908111156105045761050461230c565b6000825161250081846020870161216e565b9190910192915050565b60006020828403121561251c57600080fd5b81518015158114611b3f57600080fd5b60006020828403121561253e57600080fd5b8151611b3f816121c5565b6001600160e01b038181168382168181029092169181830481148215176125725761257261230c565b505092915050565b60006001600160e01b038316806125935761259361235f565b6001600160e01b0392909216919091049291505056fea26469706673582212204493c4ee8b4abb3390601ad63dcc5828961eecc17a534c7d5503713bce965dec64736f6c634300081c0033",
  "linkReferences": {},
  "deployedLinkReferences": {}
}