{
  "_format": "hh-sol-artifact-1",
  "contractName": "WNTV",
  "sourceName": "contracts/tokens/WNTV.sol",
  "abi": [
    {
      "inputs": [
        {
          "internalType": "address",
          "name": "spender",
          "type": "address"
        },
        {
          "internalType": "uint256",
          "name": "allowance",
          "type": "uint256"
        },
        {
          "internalType": "uint256",
          "name": "needed",
          "type": "uint256"
        }
      ],
      "name": "ERC20InsufficientAllowance",
      "type": "error"
    },
    {
      "inputs": [
        {
          "internalType": "address",
          "name": "sender",
          "type": "address"
        },
        {
          "internalType": "uint256",
          "name": "balance",
          "type": "uint256"
        },
        {
          "internalType": "uint256",
          "name": "needed",
          "type": "uint256"
        }
      ],
      "name": "ERC20InsufficientBalance",
      "type": "error"
    },
    {
      "inputs": [
        {
          "internalType": "address",
          "name": "approver",
          "type": "address"
        }
      ],
      "name": "ERC20InvalidApprover",
      "type": "error"
    },
    {
      "inputs": [
        {
          "internalType": "address",
          "name": "receiver",
          "type": "address"
        }
      ],
      "name": "ERC20InvalidReceiver",
      "type": "error"
    },
    {
      "inputs": [
        {
          "internalType": "address",
          "name": "sender",
          "type": "address"
        }
      ],
      "name": "ERC20InvalidSender",
      "type": "error"
    },
    {
      "inputs": [
        {
          "internalType": "address",
          "name": "spender",
          "type": "address"
        }
      ],
      "name": "ERC20InvalidSpender",
      "type": "error"
    },
    {
      "inputs": [],
      "name": "InvalidInitialization",
      "type": "error"
    },
    {
      "inputs": [],
      "name": "NotInitializing",
      "type": "error"
    },
    {
      "inputs": [
        {
          "internalType": "address",
          "name": "owner",
          "type": "address"
        }
      ],
      "name": "OwnableInvalidOwner",
      "type": "error"
    },
    {
      "inputs": [
        {
          "internalType": "address",
          "name": "account",
          "type": "address"
        }
      ],
      "name": "OwnableUnauthorizedAccount",
      "type": "error"
    },
    {
      "anonymous": false,
      "inputs": [
        {
          "indexed": true,
          "internalType": "address",
          "name": "owner",
          "type": "address"
        },
        {
          "indexed": true,
          "internalType": "address",
          "name": "spender",
          "type": "address"
        },
        {
          "indexed": false,
          "internalType": "uint256",
          "name": "value",
          "type": "uint256"
        }
      ],
      "name": "Approval",
      "type": "event"
    },
    {
      "anonymous": false,
      "inputs": [
        {
          "indexed": true,
          "internalType": "address",
          "name": "user",
          "type": "address"
        },
        {
          "indexed": false,
          "internalType": "uint256",
          "name": "amount",
          "type": "uint256"
        }
      ],
      "name": "Deposited",
      "type": "event"
    },
    {
      "anonymous": false,
      "inputs": [
        {
          "indexed": false,
          "internalType": "uint64",
          "name": "version",
          "type": "uint64"
        }
      ],
      "name": "Initialized",
      "type": "event"
    },
    {
      "anonymous": false,
      "inputs": [
        {
          "indexed": true,
          "internalType": "address",
          "name": "previousOwner",
          "type": "address"
        },
        {
          "indexed": true,
          "internalType": "address",
          "name": "newOwner",
          "type": "address"
        }
      ],
      "name": "OwnershipTransferred",
      "type": "event"
    },
    {
      "anonymous": false,
      "inputs": [
        {
          "indexed": false,
          "internalType": "uint256",
          "name": "newTarget",
          "type": "uint256"
        }
      ],
      "name": "TargetSupplyUpdated",
      "type": "event"
    },
    {
      "anonymous": false,
      "inputs": [
        {
          "indexed": true,
          "internalType": "address",
          "name": "from",
          "type": "address"
        },
        {
          "indexed": true,
          "internalType": "address",
          "name": "to",
          "type": "address"
        },
        {
          "indexed": false,
          "internalType": "uint256",
          "name": "value",
          "type": "uint256"
        }
      ],
      "name": "Transfer",
      "type": "event"
    },
    {
      "anonymous": false,
      "inputs": [
        {
          "indexed": true,
          "internalType": "address",
          "name": "user",
          "type": "address"
        },
        {
          "indexed": false,
          "internalType": "uint256",
          "name": "amount",
          "type": "uint256"
        }
      ],
      "name": "WithdrawalCompleted",
      "type": "event"
    },
    {
      "anonymous": false,
      "inputs": [
        {
          "indexed": true,
          "internalType": "address",
          "name": "user",
          "type": "address"
        },
        {
          "indexed": false,
          "internalType": "uint256",
          "name": "amount",
          "type": "uint256"
        },
        {
          "indexed": false,
          "internalType": "uint256",
          "name": "readyTimestamp",
          "type": "uint256"
        }
      ],
      "name": "WithdrawalRequested",
      "type": "event"
    },
    {
      "anonymous": false,
      "inputs": [
        {
          "indexed": true,
          "internalType": "address",
          "name": "aggregator",
          "type": "address"
        }
      ],
      "name": "YuzuAggregatorUpdated",
      "type": "event"
    },
    {
      "inputs": [
        {
          "internalType": "address",
          "name": "owner",
          "type": "address"
        },
        {
          "internalType": "address",
          "name": "spender",
          "type": "address"
        }
      ],
      "name": "allowance",
      "outputs": [
        {
          "internalType": "uint256",
          "name": "",
          "type": "uint256"
        }
      ],
      "stateMutability": "view",
      "type": "function"
    },
    {
      "inputs": [
        {
          "internalType": "address",
          "name": "spender",
          "type": "address"
        },
        {
          "internalType": "uint256",
          "name": "value",
          "type": "uint256"
        }
      ],
      "name": "approve",
      "outputs": [
        {
          "internalType": "bool",
          "name": "",
          "type": "bool"
        }
      ],
      "stateMutability": "nonpayable",
      "type": "function"
    },
    {
      "inputs": [
        {
          "internalType": "address",
          "name": "account",
          "type": "address"
        }
      ],
      "name": "balanceOf",
      "outputs": [
        {
          "internalType": "uint256",
          "name": "",
          "type": "uint256"
        }
      ],
      "stateMutability": "view",
      "type": "function"
    },
    {
      "inputs": [],
      "name": "completeWithdrawal",
      "outputs": [],
      "stateMutability": "nonpayable",
      "type": "function"
    },
    {
      "inputs": [],
      "name": "decimals",
      "outputs": [
        {
          "internalType": "uint8",
          "name": "",
          "type": "uint8"
        }
      ],
      "stateMutability": "view",
      "type": "function"
    },
    {
      "inputs": [],
      "name": "getTargetSupply",
      "outputs": [
        {
          "internalType": "uint256",
          "name": "",
          "type": "uint256"
        }
      ],
      "stateMutability": "view",
      "type": "function"
    },
    {
      "inputs": [
        {
          "internalType": "address",
          "name": "initialOwner",
          "type": "address"
        }
      ],
      "name": "initialize",
      "outputs": [],
      "stateMutability": "nonpayable",
      "type": "function"
    },
    {
      "inputs": [],
      "name": "name",
      "outputs": [
        {
          "internalType": "string",
          "name": "",
          "type": "string"
        }
      ],
      "stateMutability": "view",
      "type": "function"
    },
    {
      "inputs": [],
      "name": "owner",
      "outputs": [
        {
          "internalType": "address",
          "name": "",
          "type": "address"
        }
      ],
      "stateMutability": "view",
      "type": "function"
    },
    {
      "inputs": [],
      "name": "pendingWithdrawals",
      "outputs": [
        {
          "internalType": "uint256",
          "name": "",
          "type": "uint256"
        }
      ],
      "stateMutability": "view",
      "type": "function"
    },
    {
      "inputs": [
        {
          "internalType": "address",
          "name": "owner",
          "type": "address"
        }
      ],
      "name": "receiveFor",
      "outputs": [],
      "stateMutability": "payable",
      "type": "function"
    },
    {
      "inputs": [
        {
          "internalType": "address",
          "name": "owner",
          "type": "address"
        },
        {
          "internalType": "address",
          "name": "spender",
          "type": "address"
        }
      ],
      "name": "receiveForSpender",
      "outputs": [],
      "stateMutability": "payable",
      "type": "function"
    },
    {
      "inputs": [],
      "name": "renounceOwnership",
      "outputs": [],
      "stateMutability": "nonpayable",
      "type": "function"
    },
    {
      "inputs": [
        {
          "internalType": "uint256",
          "name": "amount",
          "type": "uint256"
        }
      ],
      "name": "scaleEmission",
      "outputs": [
        {
          "internalType": "uint256",
          "name": "scaled",
          "type": "uint256"
        }
      ],
      "stateMutability": "view",
      "type": "function"
    },
    {
      "inputs": [
        {
          "internalType": "uint256",
          "name": "newTarget",
          "type": "uint256"
        }
      ],
      "name": "setTargetSupply",
      "outputs": [],
      "stateMutability": "nonpayable",
      "type": "function"
    },
    {
      "inputs": [
        {
          "internalType": "address",
          "name": "_yuzuAggregator",
          "type": "address"
        }
      ],
      "name": "setYuzuAggregator",
      "outputs": [],
      "stateMutability": "nonpayable",
      "type": "function"
    },
    {
      "inputs": [],
      "name": "settleWithdrawals",
      "outputs": [],
      "stateMutability": "payable",
      "type": "function"
    },
    {
      "inputs": [],
      "name": "symbol",
      "outputs": [
        {
          "internalType": "string",
          "name": "",
          "type": "string"
        }
      ],
      "stateMutability": "view",
      "type": "function"
    },
    {
      "inputs": [],
      "name": "totalSupply",
      "outputs": [
        {
          "internalType": "uint256",
          "name": "",
          "type": "uint256"
        }
      ],
      "stateMutability": "view",
      "type": "function"
    },
    {
      "inputs": [
        {
          "internalType": "address",
          "name": "to",
          "type": "address"
        },
        {
          "internalType": "uint256",
          "name": "value",
          "type": "uint256"
        }
      ],
      "name": "transfer",
      "outputs": [
        {
          "internalType": "bool",
          "name": "",
          "type": "bool"
        }
      ],
      "stateMutability": "nonpayable",
      "type": "function"
    },
    {
      "inputs": [
        {
          "internalType": "address",
          "name": "from",
          "type": "address"
        },
        {
          "internalType": "address",
          "name": "to",
          "type": "address"
        },
        {
          "internalType": "uint256",
          "name": "value",
          "type": "uint256"
        }
      ],
      "name": "transferFrom",
      "outputs": [
        {
          "internalType": "bool",
          "name": "",
          "type": "bool"
        }
      ],
      "stateMutability": "nonpayable",
      "type": "function"
    },
    {
      "inputs": [
        {
          "internalType": "address",
          "name": "newOwner",
          "type": "address"
        }
      ],
      "name": "transferOwnership",
      "outputs": [],
      "stateMutability": "nonpayable",
      "type": "function"
    },
    {
      "inputs": [
        {
          "internalType": "address",
          "name": "user",
          "type": "address"
        }
      ],
      "name": "userPendingWithdrawals",
      "outputs": [
        {
          "components": [
            {
              "internalType": "uint256",
              "name": "amount",
              "type": "uint256"
            },
            {
              "internalType": "uint256",
              "name": "readyTimestamp",
              "type": "uint256"
            }
          ],
          "internalType": "struct WNTV.UserWithdrawal",
          "name": "",
          "type": "tuple"
        }
      ],
      "stateMutability": "view",
      "type": "function"
    },
    {
      "inputs": [
        {
          "internalType": "uint256",
          "name": "amount",
          "type": "uint256"
        }
      ],
      "name": "withdraw",
      "outputs": [],
      "stateMutability": "nonpayable",
      "type": "function"
    },
    {
      "inputs": [
        {
          "internalType": "address payable",
          "name": "to",
          "type": "address"
        }
      ],
      "name": "withdrawETHBalance",
      "outputs": [],
      "stateMutability": "nonpayable",
      "type": "function"
    },
    {
      "inputs": [],
      "name": "yuzuAggregator",
      "outputs": [
        {
          "internalType": "address",
          "name": "",
          "type": "address"
        }
      ],
      "stateMutability": "view",
      "type": "function"
    },
    {
      "stateMutability": "payable",
      "type": "receive"
    }
  ],
  "bytecode": "0x6080604052348015600f57600080fd5b506118288061001f6000396000f3fe6080604052600436106101655760003560e01c80638da5cb5b116100c1578063c5b001491161007a578063c5b00149146103d8578063dd62ed3e146103e0578063dea6aec714610400578063e03ff7cb14610415578063e54e0e8a1461042a578063f1adc2511461044a578063f2fde38b1461045d57600080fd5b80638da5cb5b14610337578063938e2d4c1461035957806395d89b411461036e578063a9059cbb14610383578063beca03d5146103a3578063c4d66de8146103b857600080fd5b8063313ce5671161011e578063313ce567146102735780633c949c631461028f57806346db8a7c146102af57806370a08231146102cf578063715018a6146102ef5780637b85644c1461030457806388d32dd71461032457600080fd5b806306fdde031461017a578063095ea7b3146101a557806315c06cf8146101d557806318160ddd1461021057806323b872dd146102335780632e1a7d4d1461025357600080fd5b36610175576101733361047d565b005b600080fd5b34801561018657600080fd5b5061018f6105ce565b60405161019c91906114b8565b60405180910390f35b3480156101b157600080fd5b506101c56101c036600461151b565b61066f565b604051901515815260200161019c565b3480156101e157600080fd5b506101f56101f0366004611547565b610689565b6040805182518152602092830151928101929092520161019c565b34801561021c57600080fd5b506102256106e0565b60405190815260200161019c565b34801561023f57600080fd5b506101c561024e366004611564565b6106f5565b34801561025f57600080fd5b5061017361026e3660046115a5565b61071b565b34801561027f57600080fd5b506040516012815260200161019c565b34801561029b57600080fd5b506102256102aa3660046115a5565b610849565b3480156102bb57600080fd5b506101736102ca3660046115a5565b61087c565b3480156102db57600080fd5b506102256102ea366004611547565b61090c565b3480156102fb57600080fd5b50610173610937565b34801561031057600080fd5b5061017361031f366004611547565b61094b565b610173610332366004611547565b610a34565b34801561034357600080fd5b5061034c610a40565b60405161019c91906115be565b34801561036557600080fd5b5061034c610a6e565b34801561037a57600080fd5b5061018f610a87565b34801561038f57600080fd5b506101c561039e36600461151b565b610aa4565b3480156103af57600080fd5b50610225610ab2565b3480156103c457600080fd5b506101736103d3366004611547565b610ac5565b610173610c0c565b3480156103ec57600080fd5b506102256103fb3660046115d2565b610c2e565b34801561040c57600080fd5b50610225610c6a565b34801561042157600080fd5b50610173610c7d565b34801561043657600080fd5b50610173610445366004611547565b610dc6565b6101736104583660046115d2565b610e21565b34801561046957600080fd5b50610173610478366004611547565b610e39565b6000610487610e74565b546001600160a01b03169050806104de5760405162461bcd60e51b81526020600482015260166024820152751e5d5e9d5059d9dc9959d85d1bdc881b9bdd081cd95d60521b60448201526064015b60405180910390fd5b6000816001600160a01b03163460405160006040518083038185875af1925050503d806000811461052b576040519150601f19603f3d011682016040523d82523d6000602084013e610530565b606091505b505090508061057c5760405162461bcd60e51b81526020600482015260186024820152774661696c656420746f207374616b6520666f722059757a7560401b60448201526064016104d5565b6105868334610e98565b826001600160a01b03167f2da466a7b24304f47e87fa2e1e5a81b9831ce54fec19055ce277ca2f39ba42c4346040516105c191815260200190565b60405180910390a2505050565b606060006105da610ece565b90508060030180546105eb9061160b565b80601f01602080910402602001604051908101604052809291908181526020018280546106179061160b565b80156106645780601f1061063957610100808354040283529160200191610664565b820191906000526020600020905b81548152906001019060200180831161064757829003601f168201915b505050505091505090565b60003361067d818585610ef2565b60019150505b92915050565b60408051808201909152600080825260208201526106a5610e74565b6001600160a01b0390921660009081526001928301602090815260409182902082518084019093528054835290930154928101929092525090565b6000806106eb610ece565b6002015492915050565b600033610703858285610eff565b61070e858585610f66565b60019150505b9392505050565b806107253361090c565b10156107735760405162461bcd60e51b815260206004820152601a60248201527f574e54563a20496e73756666696369656e742062616c616e636500000000000060448201526064016104d5565b61077d3382610fc5565b6000610787610e74565b3360009081526001919091016020526040902090506107a9620151804261165b565b6107b39042611685565b6107c0906202a300611698565b60018201558054829082906000906107d9908490611698565b909155508290506107e8610e74565b60020160008282546107fa9190611698565b9091555050600181015460405133917f24b91f4f47caf44230a57777a9be744924e82bf666f2d5702faf97df35e60f9f9161083d91868252602082015260400190565b60405180910390a25050565b600080610854610e74565b905060006108606106e0565b6003830154909150610873858383610ffb565b95945050505050565b6108846110a7565b600081116108c95760405162461bcd60e51b81526020600482015260126024820152710546172676574206d757374206265203e20360741b60448201526064016104d5565b806108d2610e74565b600301556040518181527f174626dd1ee77513decba41ff150a2e9cd390995b0212e54bf0dd794664f08ae9060200160405180910390a150565b600080610917610ece565b6001600160a01b0390931660009081526020939093525050604090205490565b61093f6110a7565b61094960006110d9565b565b6109536110a7565b47806109965760405162461bcd60e51b81526020600482015260126024820152714e6f2045544820746f20776974686472617760701b60448201526064016104d5565b6000826001600160a01b03168260405160006040518083038185875af1925050503d80600081146109e3576040519150601f19603f3d011682016040523d82523d6000602084013e6109e8565b606091505b5050905080610a2f5760405162461bcd60e51b8152602060048201526013602482015272115512081dda5d1a191c985dc819985a5b1959606a1b60448201526064016104d5565b505050565b610a3d8161047d565b50565b7f9016d09d72d40fdae2fd8ceac6b6234c7706214fd39c1cd1e609a0528c199300546001600160a01b031690565b6000610a78610e74565b546001600160a01b0316919050565b60606000610a93610ece565b90508060040180546105eb9061160b565b60003361067d818585610f66565b6000610abc610e74565b60020154905090565b6000610acf61114a565b805490915060ff600160401b820416159067ffffffffffffffff16600081158015610af75750825b905060008267ffffffffffffffff166001148015610b145750303b155b905081158015610b22575080155b15610b405760405163f92ee8a960e01b815260040160405180910390fd5b845467ffffffffffffffff191660011785558315610b6a57845460ff60401b1916600160401b1785555b610bb56040518060400160405280600d81526020016c44656c6567617465642045445560981b815250604051806040016040528060048152602001636445445560e01b815250611173565b610bbe86611185565b8315610c0457845460ff60401b19168555604051600181527fc7f505b2f371ae2175ee4913f4499e1f2633a7b5936321eed1cdaeb6115181d29060200160405180910390a15b505050505050565b34610c15610e74565b6002016000828254610c279190611685565b9091555050565b600080610c39610ece565b6001600160a01b03948516600090815260019190910160209081526040808320959096168252939093525050205490565b6000610c74610e74565b60030154905090565b6000610c87610e74565b33600090815260019182016020526040902090810154909150421015610ce65760405162461bcd60e51b81526020600482015260146024820152735769746864726177616c206e6f7420726561647960601b60448201526064016104d5565b8054610cf0610e74565b33600081815260019283016020526040808220828155909301819055915183908381818185875af1925050503d8060008114610d48576040519150601f19603f3d011682016040523d82523d6000602084013e610d4d565b606091505b5050905080610d945760405162461bcd60e51b8152602060048201526013602482015272115115481d1c985b9cd9995c8819985a5b1959606a1b60448201526064016104d5565b60405182815233907f1a39b9c5044b9f0ff56c5951e30c1ebe24911353aafcceb9250e83a24fe158c4906020016105c1565b610dce6110a7565b80610dd7610e74565b80546001600160a01b0319166001600160a01b03928316179055604051908216907f4b2a6486c240330a424b132da915d430ceec7af3ac4530accea4120ae6b31df190600090a250565b610e2a8261047d565b610e35828234610ef2565b5050565b610e416110a7565b6001600160a01b038116610e6b576000604051631e4fbdf760e01b81526004016104d591906115be565b610a3d816110d9565b7f9c939a4b05ceda8b86db186f0245ad77465dc7a372c22a1f429a97357418570090565b6001600160a01b038216610ec257600060405163ec442f0560e01b81526004016104d591906115be565b610e3560008383611196565b7f52c63247e1f47db19d5ce0460030c497f067ca4cebf71ba98eeadabe20bace0090565b610a2f83838360016112d1565b6000610f0b8484610c2e565b9050600019811015610f605781811015610f5157604051637dc7a0d960e11b81526001600160a01b038416600482015260248101829052604481018390526064016104d5565b610f60848484840360006112d1565b50505050565b6001600160a01b038316610f90576000604051634b637e8f60e11b81526004016104d591906115be565b6001600160a01b038216610fba57600060405163ec442f0560e01b81526004016104d591906115be565b610a2f838383611196565b6001600160a01b038216610fef576000604051634b637e8f60e11b81526004016104d591906115be565b610e3582600083611196565b6000821580611008575081155b1561101557506000610714565b60008261102a85670de0b6b3a76400006116ab565b61103491906116c2565b9050670de0b6b3a76400008111156110515750670de0b6b3a76400005b60006110686110618360026116ab565b60016113b6565b90506000611075826113c6565b9050611088671bc16d674ec800006113c6565b61109282896116ab565b61109c91906116c2565b979650505050505050565b336110b0610a40565b6001600160a01b031614610949573360405163118cdaa760e01b81526004016104d591906115be565b7f9016d09d72d40fdae2fd8ceac6b6234c7706214fd39c1cd1e609a0528c19930080546001600160a01b031981166001600160a01b03848116918217845560405192169182907f8be0079c531659141344cd1fd0a4f28419497f9722a3daafe3b4186f6b6457e090600090a3505050565b6000807ff0c57e16840df040f15088dc2f81fe391c3923bec73e23a9662efc9c229c6a00610683565b61117b611440565b610e358282611465565b61118d611440565b610a3d81611496565b60006111a0610ece565b90506001600160a01b0384166111cf57818160020160008282546111c49190611698565b909155506112419050565b6001600160a01b038416600090815260208290526040902054828110156112225760405163391434e360e21b81526001600160a01b038616600482015260248101829052604481018490526064016104d5565b6001600160a01b03851660009081526020839052604090209083900390555b6001600160a01b03831661125f57600281018054839003905561127e565b6001600160a01b03831660009081526020829052604090208054830190555b826001600160a01b0316846001600160a01b03167fddf252ad1be2c89b69c2b068fc378daa952ba7f163c4a11628f55a4df523b3ef846040516112c391815260200190565b60405180910390a350505050565b60006112db610ece565b90506001600160a01b03851661130757600060405163e602df0560e01b81526004016104d591906115be565b6001600160a01b038416611331576000604051634a1406b160e11b81526004016104d591906115be565b6001600160a01b038086166000908152600183016020908152604080832093881683529290522083905581156113af57836001600160a01b0316856001600160a01b03167f8c5be1e5ebec7d5bd14f71427d1e84f3dd0314c0f7b2291e5b200ac8c7c3b925856040516113a691815260200190565b60405180910390a35b5050505050565b6000828218828411028218610714565b600060076fffffffffffffffffffffffffffffffff8311901b9050600667ffffffffffffffff83831c11901b17600563ffffffff83831c11901b17600461ffff83831c11901b17600360ff83831c11901b176002600f83831c116d010102020202030303030303030360801b911b9190911791821c1a1790565b61144861149e565b61094957604051631afcd79f60e31b815260040160405180910390fd5b61146d611440565b6000611477610ece565b9050600381016114878482611733565b5060048101610f608382611733565b610e41611440565b60006114a861114a565b54600160401b900460ff16919050565b602081526000825180602084015260005b818110156114e657602081860181015160408684010152016114c9565b506000604082850101526040601f19601f83011684010191505092915050565b6001600160a01b0381168114610a3d57600080fd5b6000806040838503121561152e57600080fd5b823561153981611506565b946020939093013593505050565b60006020828403121561155957600080fd5b813561071481611506565b60008060006060848603121561157957600080fd5b833561158481611506565b9250602084013561159481611506565b929592945050506040919091013590565b6000602082840312156115b757600080fd5b5035919050565b6001600160a01b0391909116815260200190565b600080604083850312156115e557600080fd5b82356115f081611506565b9150602083013561160081611506565b809150509250929050565b600181811c9082168061161f57607f821691505b60208210810361163f57634e487b7160e01b600052602260045260246000fd5b50919050565b634e487b7160e01b600052601260045260246000fd5b60008261166a5761166a611645565b500690565b634e487b7160e01b600052601160045260246000fd5b818103818111156106835761068361166f565b808201808211156106835761068361166f565b80820281158282048414176106835761068361166f565b6000826116d1576116d1611645565b500490565b634e487b7160e01b600052604160045260246000fd5b601f821115610a2f57806000526020600020601f840160051c810160208510156117135750805b601f840160051c820191505b818110156113af576000815560010161171f565b815167ffffffffffffffff81111561174d5761174d6116d6565b6117618161175b845461160b565b846116ec565b6020601f821160018114611795576000831561177d5750848201515b600019600385901b1c1916600184901b1784556113af565b600084815260208120601f198516915b828110156117c557878501518255602094850194600190920191016117a5565b50848210156117e35786840151600019600387901b60f8161c191681555b50505050600190811b0190555056fea26469706673582212209e99960e95f3a8e7f7b8581b7ec48fd9daba540511e2b02105aa1d0b5b11eeb564736f6c634300081c0033",
  "linkReferences": {},
  "deployedLinkReferences": {}
}