{
  "_format": "hh-sol-artifact-1",
  "contractName": "Handler",
  "sourceName": "contracts/test/tokens/WNTV/WNTV.invariant.sol",
  "abi": [
    {
      "inputs": [
        {
          "internalType": "contract WNTV",
          "name": "_weth",
          "type": "address"
        }
      ],
      "stateMutability": "nonpayable",
      "type": "constructor"
    },
    {
      "inputs": [],
      "name": "actors",
      "outputs": [
        {
          "internalType": "address[]",
          "name": "",
          "type": "address[]"
        }
      ],
      "stateMutability": "view",
      "type": "function"
    },
    {
      "inputs": [
        {
          "internalType": "uint256",
          "name": "actorSeed",
          "type": "uint256"
        },
        {
          "internalType": "uint256",
          "name": "spenderSeed",
          "type": "uint256"
        },
        {
          "internalType": "uint256",
          "name": "amount",
          "type": "uint256"
        }
      ],
      "name": "approve",
      "outputs": [],
      "stateMutability": "nonpayable",
      "type": "function"
    },
    {
      "inputs": [],
      "name": "callSummary",
      "outputs": [],
      "stateMutability": "view",
      "type": "function"
    },
    {
      "inputs": [
        {
          "internalType": "bytes32",
          "name": "",
          "type": "bytes32"
        }
      ],
      "name": "calls",
      "outputs": [
        {
          "internalType": "uint256",
          "name": "",
          "type": "uint256"
        }
      ],
      "stateMutability": "view",
      "type": "function"
    },
    {
      "inputs": [
        {
          "internalType": "uint256",
          "name": "actorSeed",
          "type": "uint256"
        }
      ],
      "name": "completeWithdrawal",
      "outputs": [],
      "stateMutability": "nonpayable",
      "type": "function"
    },
    {
      "inputs": [
        {
          "internalType": "uint256",
          "name": "amount",
          "type": "uint256"
        }
      ],
      "name": "deposit",
      "outputs": [],
      "stateMutability": "nonpayable",
      "type": "function"
    },
    {
      "inputs": [
        {
          "internalType": "function (address) external",
          "name": "func",
          "type": "function"
        }
      ],
      "name": "forEachActor",
      "outputs": [],
      "stateMutability": "nonpayable",
      "type": "function"
    },
    {
      "inputs": [],
      "name": "ghost_depositSum",
      "outputs": [
        {
          "internalType": "uint256",
          "name": "",
          "type": "uint256"
        }
      ],
      "stateMutability": "view",
      "type": "function"
    },
    {
      "inputs": [],
      "name": "ghost_withdrawSum",
      "outputs": [
        {
          "internalType": "uint256",
          "name": "",
          "type": "uint256"
        }
      ],
      "stateMutability": "view",
      "type": "function"
    },
    {
      "inputs": [],
      "name": "ghost_zeroTransferFroms",
      "outputs": [
        {
          "internalType": "uint256",
          "name": "",
          "type": "uint256"
        }
      ],
      "stateMutability": "view",
      "type": "function"
    },
    {
      "inputs": [],
      "name": "ghost_zeroTransfers",
      "outputs": [
        {
          "internalType": "uint256",
          "name": "",
          "type": "uint256"
        }
      ],
      "stateMutability": "view",
      "type": "function"
    },
    {
      "inputs": [
        {
          "internalType": "uint256",
          "name": "acc",
          "type": "uint256"
        },
        {
          "internalType": "function (uint256,address) external returns (uint256)",
          "name": "func",
          "type": "function"
        }
      ],
      "name": "reduceActors",
      "outputs": [
        {
          "internalType": "uint256",
          "name": "",
          "type": "uint256"
        }
      ],
      "stateMutability": "nonpayable",
      "type": "function"
    },
    {
      "inputs": [
        {
          "internalType": "uint256",
          "name": "amount",
          "type": "uint256"
        }
      ],
      "name": "sendFallback",
      "outputs": [],
      "stateMutability": "nonpayable",
      "type": "function"
    },
    {
      "inputs": [
        {
          "internalType": "uint256",
          "name": "actorSeed",
          "type": "uint256"
        },
        {
          "internalType": "uint256",
          "name": "toSeed",
          "type": "uint256"
        },
        {
          "internalType": "uint256",
          "name": "amount",
          "type": "uint256"
        }
      ],
      "name": "transfer",
      "outputs": [],
      "stateMutability": "nonpayable",
      "type": "function"
    },
    {
      "inputs": [
        {
          "internalType": "uint256",
          "name": "actorSeed",
          "type": "uint256"
        },
        {
          "internalType": "uint256",
          "name": "fromSeed",
          "type": "uint256"
        },
        {
          "internalType": "uint256",
          "name": "toSeed",
          "type": "uint256"
        },
        {
          "internalType": "bool",
          "name": "_approve",
          "type": "bool"
        },
        {
          "internalType": "uint256",
          "name": "amount",
          "type": "uint256"
        }
      ],
      "name": "transferFrom",
      "outputs": [],
      "stateMutability": "nonpayable",
      "type": "function"
    },
    {
      "inputs": [],
      "name": "weth",
      "outputs": [
        {
          "internalType": "contract WNTV",
          "name": "",
          "type": "address"
        }
      ],
      "stateMutability": "view",
      "type": "function"
    },
    {
      "inputs": [
        {
          "internalType": "uint256",
          "name": "actorSeed",
          "type": "uint256"
        },
        {
          "internalType": "uint256",
          "name": "amount",
          "type": "uint256"
        }
      ],
      "name": "withdraw",
      "outputs": [],
      "stateMutability": "nonpayable",
      "type": "function"
    },
    {
      "inputs": [],
      "name": "yuzuAggregator",
      "outputs": [
        {
          "internalType": "address",
          "name": "",
          "type": "address"
        }
      ],
      "stateMutability": "view",
      "type": "function"
    },
    {
      "stateMutability": "payable",
      "type": "receive"
    }
  ],
  "bytecode": "0x6080604052601280546001600160a01b031916600f17905534801561002357600080fd5b50604051612746380380612746833981016040819052610042916101a9565b601180546001600160a01b0319166001600160a01b03831690811790915560405163189acdbd60e31b815230600482015263c4d66de890602401600060405180830381600087803b15801561009657600080fd5b505af11580156100aa573d6000803e3d6000fd5b50506011546012546040516372a7074560e11b81526001600160a01b0391821660048201529116925063e54e0e8a9150602401600060405180830381600087803b1580156100f757600080fd5b505af115801561010b573d6000803e3d6000fd5b5050505061012b306b033b2e3c9fd0803ce800000061013160201b60201c565b506101d9565b60405163c88a5e6d60e01b81526001600160a01b038316600482015260248101829052737109709ecfa91a80626ff3989d68f67f5b1dd12d9063c88a5e6d90604401600060405180830381600087803b15801561018d57600080fd5b505af11580156101a1573d6000803e3d6000fd5b505050505050565b6000602082840312156101bb57600080fd5b81516001600160a01b03811681146101d257600080fd5b9392505050565b61255e806101e86000396000f3fe60806040526004361061010d5760003560e01c8063938e2d4c11610095578063cafdc71211610064578063cafdc712146102bc578063cc7f0c24146102dc578063cff10265146102fe578063dd3648f41461032b578063dd98a0b51461034157600080fd5b8063938e2d4c1461023c5780639699d8a81461025c578063b6b55f251461027c578063b866c8a41461029c57600080fd5b8063441a3e70116100dc578063441a3e70146101a65780634f0cb5f3146101c657806371bf20de146101e657806384329aab146101fc57806390dd26271461021c57600080fd5b806313594d5c1461011957806316d91cba146101305780632a69cf3e146101595780633fc8cef31461017957600080fd5b3661011457005b600080fd5b34801561012557600080fd5b5061012e610357565b005b34801561013c57600080fd5b5061014660145481565b6040519081526020015b60405180910390f35b34801561016557600080fd5b5061012e6101743660046121a7565b61065f565b34801561018557600080fd5b50601154610199906001600160a01b031681565b60405161015091906121f0565b3480156101b257600080fd5b5061012e6101c1366004612204565b610a83565b3480156101d257600080fd5b5061012e6101e1366004612226565b610dd3565b3480156101f257600080fd5b5061014660135481565b34801561020857600080fd5b5061012e610217366004612226565b611239565b34801561022857600080fd5b5061012e61023736600461223f565b611468565b34801561024857600080fd5b50601254610199906001600160a01b031681565b34801561026857600080fd5b5061012e610277366004612282565b6116fc565b34801561028857600080fd5b5061012e610297366004612226565b61170c565b3480156102a857600080fd5b5061012e6102b736600461223f565b6119c1565b3480156102c857600080fd5b506101466102d73660046122ba565b611b4e565b3480156102e857600080fd5b506102f1611b67565b60405161015091906122fc565b34801561030a57600080fd5b50610146610319366004612226565b60176020526000908152604090205481565b34801561033757600080fd5b5061014660155481565b34801561034d57600080fd5b5061014660165481565b6103856040518060400160405280600d81526020016c21b0b6361039bab6b6b0b93c9d60991b815250611bcc565b6103b9604051806040016040528060138152602001722d2d2d2d2d2d2d2d2d2d2d2d2d2d2d2d2d2d2d60681b815250611bcc565b6103ff6040518060400160405280600781526020016619195c1bdcda5d60ca1b815250601760006619195c1bdcda5d60ca1b815260200190815260200160002054611c12565b61044760405180604001604052806008815260200167776974686472617760c01b8152506017600067776974686472617760c01b815260200190815260200160002054611c12565b6104976040518060400160405280600c81526020016b73656e6446616c6c6261636b60a01b815250601760006b73656e6446616c6c6261636b60a01b815260200190815260200160002054611c12565b6104dd60405180604001604052806007815260200166617070726f766560c81b8152506017600066617070726f766560c81b815260200190815260200160002054611c12565b610525604051806040016040528060088152602001673a3930b739b332b960c11b81525060176000673a3930b739b332b960c11b815260200190815260200160002054611c12565b6105756040518060400160405280600c81526020016b7472616e7366657246726f6d60a01b815250601760006b7472616e7366657246726f6d60a01b815260200190815260200160002054611c12565b6105bf604051806040016040528060098152602001680ccdee4c6caa0eae6d60bb1b81525060176000680ccdee4c6caa0eae6d60bb1b815260200190815260200160002054611c12565b6105f3604051806040016040528060138152602001722d2d2d2d2d2d2d2d2d2d2d2d2d2d2d2d2d2d2d60681b815250611bcc565b61062a604051806040016040528060138152602001722d32b937903a3930b739b332b9233937b6b99d60691b815250601654611c12565b61065d6040518060400160405280600f81526020016e2d32b937903a3930b739b332b9399d60891b815250601554611c12565b565b8461066b601882611c57565b601a80546001600160a01b0319166001600160a01b03929092169182179055604051632631f2b160e11b815290151560048201526000805160206124e983398151915290634c63e5629060240160006040518083038186803b1580156106d057600080fd5b505afa1580156106e4573d6000803e3d6000fd5b50506b7472616e7366657246726f6d60a01b600081815260176020527f282f8223191162f61713f57ecc60c92ad64e1fbda6f8d3dc5f272ec64f43d59680549294509192506107328361235e565b9091555060009050610745601888611c57565b90506000610754601888611c57565b6011546040516370a0823160e01b81529192506107d69187916000916001600160a01b03909116906370a08231906107909088906004016121f0565b602060405180830381865afa1580156107ad573d6000803e3d6000fd5b505050506040513d601f19601f820116820180604052508101906107d19190612377565b611ca5565b945085156108c05760405163ca669fa760e01b81526000805160206124e98339815191529063ca669fa79061080f9085906004016121f0565b600060405180830381600087803b15801561082957600080fd5b505af115801561083d573d6000803e3d6000fd5b5050601154601a5460405163095ea7b360e01b81526001600160a01b039182166004820152602481018a90529116925063095ea7b391506044016020604051808303816000875af1158015610896573d6000803e3d6000fd5b505050506040513d601f19601f820116820180604052508101906108ba9190612390565b50610908565b601154601a54604051636eb1769f60e11b81526001600160a01b038581166004830152918216602482015261090592889260009291169063dd62ed3e90604401610790565b94505b8460000361092657601680549060006109208361235e565b91905055505b601a5460405163ca669fa760e01b81526000805160206124e98339815191529163ca669fa791610962916001600160a01b0316906004016121f0565b600060405180830381600087803b15801561097c57600080fd5b505af1158015610990573d6000803e3d6000fd5b50506011546040516323b872dd60e01b81526001600160a01b0386811660048301528581166024830152604482018a905290911692506323b872dd91506064016020604051808303816000875af11580156109ef573d6000803e3d6000fd5b505050506040513d601f19601f82011682018060405250810190610a139190612390565b5060008051602061250983398151915260001c6001600160a01b03166390c5013b6040518163ffffffff1660e01b8152600401600060405180830381600087803b158015610a6057600080fd5b505af1158015610a74573d6000803e3d6000fd5b50505050505050505050505050565b81610a8f601882611c57565b601a80546001600160a01b0319166001600160a01b03929092169182179055604051632631f2b160e11b815290151560048201526000805160206124e983398151915290634c63e5629060240160006040518083038186803b158015610af457600080fd5b505afa158015610b08573d6000803e3d6000fd5b505067776974686472617760c01b600081815260176020527fcc5c1e0b51a1c1915dd2b6b558f32b805414ddf1097deef9cad51bd45ee4f2e58054929450919250610b528361235e565b9091555050601154601a546040516370a0823160e01b8152610b949286926000926001600160a01b03928316926370a0823192610790929116906004016121f0565b601a546040516303223eab60e11b81529194506000805160206124e9833981519152916306447d5691610bd5916001600160a01b03909116906004016121f0565b600060405180830381600087803b158015610bef57600080fd5b505af1158015610c03573d6000803e3d6000fd5b5050601154604051632e1a7d4d60e01b8152600481018790526001600160a01b039091169250632e1a7d4d9150602401600060405180830381600087803b158015610c4d57600080fd5b505af1158015610c61573d6000803e3d6000fd5b5050505060008051602061250983398151915260001c6001600160a01b03166390c5013b6040518163ffffffff1660e01b8152600401600060405180830381600087803b158015610cb157600080fd5b505af1158015610cc5573d6000803e3d6000fd5b505050508260146000828254610cdb91906123ad565b9091555050601154601a546040516302b80d9f60e31b81526000926001600160a01b03908116926315c06cf892610d1892909116906004016121f0565b6040805180830381865afa158015610d34573d6000803e3d6000fd5b505050506040513d601f19601f82011682018060405250810190610d5891906123c0565b90508060200151421015610dcc5760208101516040516372eb5f8160e11b815260048101919091526000805160206124e98339815191529063e5d6bf0290602401600060405180830381600087803b158015610db357600080fd5b505af1158015610dc7573d6000803e3d6000fd5b505050505b5050505050565b80610ddf601882611c57565b601a80546001600160a01b0319166001600160a01b03929092169182179055604051632631f2b160e11b815290151560048201526000805160206124e983398151915290634c63e5629060240160006040518083038186803b158015610e4457600080fd5b505afa158015610e58573d6000803e3d6000fd5b50507118dbdb5c1b195d1955da5d1a191c985dd85b60721b600081815260176020527fc897b3baf7ced6cf496d911b431127849f90cfeea530ea51656ddba9c5db6de78054929450919250610eac8361235e565b90915550506011546040805163beca03d560e01b815290516000926001600160a01b03169163beca03d59160048083019260209291908290030181865afa158015610efb573d6000803e3d6000fd5b505050506040513d601f19601f82011682018060405250810190610f1f9190612377565b905080156110635760125460405163ca669fa760e01b81526000805160206124e98339815191529163ca669fa791610f63916001600160a01b0316906004016121f0565b600060405180830381600087803b158015610f7d57600080fd5b505af1158015610f91573d6000803e3d6000fd5b50505050601160009054906101000a90046001600160a01b03166001600160a01b031663c5b00149826040518263ffffffff1660e01b81526004016000604051808303818588803b158015610fe557600080fd5b505af1158015610ff9573d6000803e3d6000fd5b505050505060008051602061250983398151915260001c6001600160a01b03166390c5013b6040518163ffffffff1660e01b8152600401600060405180830381600087803b15801561104a57600080fd5b505af115801561105e573d6000803e3d6000fd5b505050505b50601154601a546040516302b80d9f60e31b81526000926001600160a01b03908116926315c06cf89261109c92909116906004016121f0565b6040805180830381865afa1580156110b8573d6000803e3d6000fd5b505050506040513d601f19601f820116820180604052508101906110dc91906123c0565b601a5460405163ca669fa760e01b81529192506000805160206124e98339815191529163ca669fa79161111d916001600160a01b03909116906004016121f0565b600060405180830381600087803b15801561113757600080fd5b505af115801561114b573d6000803e3d6000fd5b50505050601160009054906101000a90046001600160a01b03166001600160a01b031663e03ff7cb6040518163ffffffff1660e01b8152600401600060405180830381600087803b15801561119f57600080fd5b505af11580156111b3573d6000803e3d6000fd5b5050601a5460405163ca669fa760e01b81526000805160206124e9833981519152935063ca669fa792506111f3916001600160a01b0316906004016121f0565b600060405180830381600087803b15801561120d57600080fd5b505af1158015611221573d6000803e3d6000fd5b50505050611233308260000151611ce2565b50505050565b601a80546001600160a01b031916339081179091556012546000805160206124e983398151915291634c63e562916001600160a01b03161480159061128f5750601154601a546001600160a01b03908116911614155b6040518263ffffffff1660e01b81526004016112af911515815260200190565b60006040518083038186803b1580156112c757600080fd5b505afa1580156112db573d6000803e3d6000fd5b505050506112f3336018611d7990919063ffffffff16565b6b73656e6446616c6c6261636b60a01b600081815260176020527feb2831664e96a31f0ccc97c7a76a3ea2e42361d7c60d8193320946afb711a32380549161133a8361235e565b919050555061134b82600047611ca5565b601a54909250611364906001600160a01b031683611ce2565b601a5460405163ca669fa760e01b81526000805160206124e98339815191529163ca669fa7916113a0916001600160a01b0316906004016121f0565b600060405180830381600087803b1580156113ba57600080fd5b505af11580156113ce573d6000803e3d6000fd5b50506011546113e992506001600160a01b0316905083611ce2565b60008051602061250983398151915260001c6001600160a01b03166390c5013b6040518163ffffffff1660e01b8152600401600060405180830381600087803b15801561143557600080fd5b505af1158015611449573d6000803e3d6000fd5b50505050816013600082825461145f91906123ad565b90915550505050565b82611474601882611c57565b601a80546001600160a01b0319166001600160a01b03929092169182179055604051632631f2b160e11b815290151560048201526000805160206124e983398151915290634c63e5629060240160006040518083038186803b1580156114d957600080fd5b505afa1580156114ed573d6000803e3d6000fd5b5050673a3930b739b332b960c11b600081815260176020527f4ed5b821b0512ab6e6f7fd07289aeff70821fc8db5dd1ce35fe8127fc42f816c80549294509192506115378361235e565b909155506000905061154a601886611c57565b601154601a546040516370a0823160e01b81529293506115899287926000926001600160a01b03918216926370a08231926107909216906004016121f0565b9350836000036115a957601580549060006115a38361235e565b91905055505b601a5460405163ca669fa760e01b81526000805160206124e98339815191529163ca669fa7916115e5916001600160a01b0316906004016121f0565b600060405180830381600087803b1580156115ff57600080fd5b505af1158015611613573d6000803e3d6000fd5b505060115460405163a9059cbb60e01b81526001600160a01b03858116600483015260248201899052909116925063a9059cbb91506044015b6020604051808303816000875af115801561166b573d6000803e3d6000fd5b505050506040513d601f19601f8201168201806040525081019061168f9190612390565b5060008051602061250983398151915260001c6001600160a01b03166390c5013b6040518163ffffffff1660e01b8152600401600060405180830381600087803b1580156116dc57600080fd5b505af11580156116f0573d6000803e3d6000fd5b50505050505050505050565b61170860188383611de7565b5050565b601a80546001600160a01b031916339081179091556012546000805160206124e983398151915291634c63e562916001600160a01b0316148015906117625750601154601a546001600160a01b03908116911614155b6040518263ffffffff1660e01b8152600401611782911515815260200190565b60006040518083038186803b15801561179a57600080fd5b505afa1580156117ae573d6000803e3d6000fd5b505050506117c6336018611d7990919063ffffffff16565b6619195c1bdcda5d60ca1b600081815260176020527ff37d28945e60918a9ceca8c5a6a254de60699ad5980e9da9a132f7326aabaa228054916118088361235e565b919050555061181982600047611ca5565b601a54909250611832906001600160a01b031683611ce2565b601a5460405163ca669fa760e01b81526000805160206124e98339815191529163ca669fa79161186e916001600160a01b0316906004016121f0565b600060405180830381600087803b15801561188857600080fd5b505af115801561189c573d6000803e3d6000fd5b5050601154604051600093506001600160a01b03909116915084908381818185875af1925050503d80600081146118ef576040519150601f19603f3d011682016040523d82523d6000602084013e6118f4565b606091505b50509050806119415760405162461bcd60e51b815260206004820152601460248201527311195c1bdcda5d081b9bdd081cdd58d8d959195960621b60448201526064015b60405180910390fd5b60008051602061250983398151915260001c6001600160a01b03166390c5013b6040518163ffffffff1660e01b8152600401600060405180830381600087803b15801561198d57600080fd5b505af11580156119a1573d6000803e3d6000fd5b5050505082601360008282546119b791906123ad565b9091555050505050565b826119cd601882611c57565b601a80546001600160a01b0319166001600160a01b03929092169182179055604051632631f2b160e11b815290151560048201526000805160206124e983398151915290634c63e5629060240160006040518083038186803b158015611a3257600080fd5b505afa158015611a46573d6000803e3d6000fd5b505066617070726f766560c81b600081815260176020527f3e28b550bf5703d16aecd1b73a3478f50abecae3e57b4061be7a30a8d5b9e3db8054929450919250611a8f8361235e565b9091555060009050611aa2601886611c57565b601a5460405163ca669fa760e01b81529192506000805160206124e98339815191529163ca669fa791611ae3916001600160a01b03909116906004016121f0565b600060405180830381600087803b158015611afd57600080fd5b505af1158015611b11573d6000803e3d6000fd5b505060115460405163095ea7b360e01b81526001600160a01b03858116600483015260248201899052909116925063095ea7b3915060440161164c565b6000611b5d6018858585611e7d565b90505b9392505050565b60606018600001805480602002602001604051908101604052809291908181526020018280548015611bc257602002820191906000526020600020905b81546001600160a01b03168152600190910190602001808311611ba4575b5050505050905090565b611c0f81604051602401611be09190612468565b60408051601f198184030181529190526020810180516001600160e01b031663104c13eb60e21b179052611f32565b50565b6117088282604051602401611c2892919061247b565b60408051601f198184030181529190526020810180516001600160e01b0316632d839cb360e21b179052611f32565b815460009015611c9b5782548390611c6f908461249d565b81548110611c7f57611c7f6124bf565b6000918252602090912001546001600160a01b03169050611c9f565b5060005b92915050565b6000611cb2848484611f42565b9050611b606040518060400160405280600c81526020016b109bdd5b99081c995cdd5b1d60a21b81525082612106565b6000826001600160a01b03168260405160006040518083038185875af1925050503d8060008114611d2f576040519150601f19603f3d011682016040523d82523d6000602084013e611d34565b606091505b5050905080611d745760405162461bcd60e51b815260206004820152600c60248201526b1c185e4a0a4819985a5b195960a21b6044820152606401611938565b505050565b6001600160a01b038116600090815260018301602052604090205460ff16611708578154600180820184556000848152602080822090930180546001600160a01b0319166001600160a01b03959095169485179055928352928301905260409020805460ff19169091179055565b60005b8354811015611233578282856000018381548110611e0a57611e0a6124bf565b6000918252602090912001546040516001600160e01b031960e084901b168152611e40916001600160a01b0316906004016121f0565b600060405180830381600087803b158015611e5a57600080fd5b505af1158015611e6e573d6000803e3d6000fd5b50505050806001019050611dea565b6000805b8554811015611f2857838386886000018481548110611ea257611ea26124bf565b60009182526020909120015460405160e084901b6001600160e01b031916815260048101929092526001600160a01b031660248201526044016020604051808303816000875af1158015611efa573d6000803e3d6000fd5b505050506040513d601f19601f82011682018060405250810190611f1e9190612377565b9450600101611e81565b5092949350505050565b611c0f8161214b5b63ffffffff16565b600081831115611fba5760405162461bcd60e51b815260206004820152603e60248201527f5374645574696c7320626f756e642875696e743235362c75696e743235362c7560448201527f696e74323536293a204d6178206973206c657373207468616e206d696e2e00006064820152608401611938565b828410158015611fca5750818411155b15611fd6575082611b60565b6000611fe284846124d5565b611fed9060016123ad565b905060038511158015611fff57508481115b156120165761200e85856123ad565b915050611b60565b61202360036000196124d5565b851015801561203c5750612039856000196124d5565b81115b156120575761204d856000196124d5565b61200e90846124d5565b828511156120ad57600061206b84876124d5565b90506000612079838361249d565b90508060000361208e57849350505050611b60565b600161209a82886123ad565b6120a491906124d5565b935050506120fe565b838510156120fe5760006120c186866124d5565b905060006120cf838361249d565b9050806000036120e457859350505050611b60565b6120ee81866124d5565b6120f99060016123ad565b935050505b509392505050565b611708828260405160240161211c92919061247b565b60408051601f198184030181529190526020810180516001600160e01b0316632d839cb360e21b17905261216c565b60006a636f6e736f6c652e6c6f679050600080835160208501845afa505050565b611c0f81612178611f3a565b80516a636f6e736f6c652e6c6f67602083016000808483855afa5050505050565b8015158114611c0f57600080fd5b600080600080600060a086880312156121bf57600080fd5b85359450602086013593506040860135925060608601356121df81612199565b949793965091946080013592915050565b6001600160a01b0391909116815260200190565b6000806040838503121561221757600080fd5b50508035926020909101359150565b60006020828403121561223857600080fd5b5035919050565b60008060006060848603121561225457600080fd5b505081359360208301359350604090920135919050565b67ffffffffffffffff1981168114611c0f57600080fd5b6000806020838503121561229557600080fd5b82356122a08161226b565b606081901c9560409190911c63ffffffff16945092505050565b6000806000604084860312156122cf57600080fd5b8335925060208401356122e18161226b565b9295606084901c955060409390931c63ffffffff1693505050565b602080825282518282018190526000918401906040840190835b8181101561233d5783516001600160a01b0316835260209384019390920191600101612316565b509095945050505050565b634e487b7160e01b600052601160045260246000fd5b60006001820161237057612370612348565b5060010190565b60006020828403121561238957600080fd5b5051919050565b6000602082840312156123a257600080fd5b8151611b6081612199565b80820180821115611c9f57611c9f612348565b600060408284031280156123d357600080fd5b600090506040516040810181811067ffffffffffffffff8211171561240657634e487b7160e01b83526041600452602483fd5b6040528351815260209384015193810193909352509092915050565b6000815180845260005b818110156124485760208185018101518683018201520161242c565b506000602082860101526020601f19601f83011685010191505092915050565b602081526000611b606020830184612422565b60408152600061248e6040830185612422565b90508260208301529392505050565b6000826124ba57634e487b7160e01b600052601260045260246000fd5b500690565b634e487b7160e01b600052603260045260246000fd5b81810381811115611c9f57611c9f61234856fe0000000000000000000000007109709ecfa91a80626ff3989d68f67f5b1dd12d885cb69240a935d632d79c317109709ecfa91a80626ff3989d68f67f5b1dd12da26469706673582212203e14d94a6e50466eefb252b16f55f216931b2ceb9d66d5c7bccc410c18fffa0764736f6c634300081c0033",
  "linkReferences": {},
  "deployedLinkReferences": {}
}