{
  "_format": "hh-sol-artifact-1",
  "contractName": "Handler",
  "sourceName": "contracts/test/tokens/Gainz/Gainz.invariant.sol",
  "abi": [
    {
      "inputs": [
        {
          "internalType": "contract Gainz",
          "name": "_gainz",
          "type": "address"
        },
        {
          "internalType": "address",
          "name": "_owner",
          "type": "address"
        }
      ],
      "stateMutability": "nonpayable",
      "type": "constructor"
    },
    {
      "inputs": [
        {
          "internalType": "uint256",
          "name": "",
          "type": "uint256"
        }
      ],
      "name": "entities",
      "outputs": [
        {
          "internalType": "string",
          "name": "",
          "type": "string"
        }
      ],
      "stateMutability": "view",
      "type": "function"
    },
    {
      "inputs": [],
      "name": "entityAddress",
      "outputs": [
        {
          "internalType": "address",
          "name": "",
          "type": "address"
        }
      ],
      "stateMutability": "view",
      "type": "function"
    },
    {
      "inputs": [],
      "name": "ghost_entitiesGainzBal",
      "outputs": [
        {
          "internalType": "uint256",
          "name": "",
          "type": "uint256"
        }
      ],
      "stateMutability": "view",
      "type": "function"
    },
    {
      "inputs": [],
      "name": "ghost_governaceGainzBal",
      "outputs": [
        {
          "internalType": "uint256",
          "name": "",
          "type": "uint256"
        }
      ],
      "stateMutability": "view",
      "type": "function"
    },
    {
      "inputs": [
        {
          "internalType": "uint256",
          "name": "timestampIncrement",
          "type": "uint256"
        },
        {
          "internalType": "address",
          "name": "caller",
          "type": "address"
        }
      ],
      "name": "mintGainz",
      "outputs": [],
      "stateMutability": "nonpayable",
      "type": "function"
    },
    {
      "inputs": [
        {
          "internalType": "uint256",
          "name": "entityIndex",
          "type": "uint256"
        }
      ],
      "name": "sendGainz",
      "outputs": [],
      "stateMutability": "nonpayable",
      "type": "function"
    }
  ],
  "bytecode": "0x600460e0908152637465616d60e01b6101005260809081526006610120908152650cee4deeee8d60d31b6101405260a0526101a0604052600c6101609081526b6c6971496e63656e7469766560a01b6101805260c05261006390600a9060036100c0565b5034801561007057600080fd5b50604051610d60380380610d6083398101604081905261008f9161019a565b600880546001600160a01b039384166001600160a01b03199182161790915560098054929093169116179055610331565b828054828255906000526020600020908101928215610106579160200282015b8281111561010657825182906100f69082610273565b50916020019190600101906100e0565b50610112929150610116565b5090565b8082111561011257600061012a8282610133565b50600101610116565b50805461013f906101ea565b6000825580601f1061014f575050565b601f01602090049060005260206000209081019061016d9190610170565b50565b5b808211156101125760008155600101610171565b6001600160a01b038116811461016d57600080fd5b600080604083850312156101ad57600080fd5b82516101b881610185565b60208401519092506101c981610185565b809150509250929050565b634e487b7160e01b600052604160045260246000fd5b600181811c908216806101fe57607f821691505b60208210810361021e57634e487b7160e01b600052602260045260246000fd5b50919050565b601f82111561026e57806000526020600020601f840160051c8101602085101561024b5750805b601f840160051c820191505b8181101561026b5760008155600101610257565b50505b505050565b81516001600160401b0381111561028c5761028c6101d4565b6102a08161029a84546101ea565b84610224565b6020601f8211600181146102d457600083156102bc5750848201515b600019600385901b1c1916600184901b17845561026b565b600084815260208120601f198516915b8281101561030457878501518255602094850194600190920191016102e4565b50848210156103225786840151600019600387901b60f8161c191681555b50505050600190811b01905550565b610a20806103406000396000f3fe608060405234801561001057600080fd5b50600436106100625760003560e01c806345341f7214610067578063569054ec1461007c5780636331883b1461008f57806367f89662146100b8578063cdb055cc146100cf578063d17fd600146100ef575b600080fd5b61007a610075366004610790565b6100f8565b005b61007a61008a3660046107a9565b610228565b6100a261009d366004610790565b610462565b6040516100af919061082b565b60405180910390f35b6100c1600c5481565b6040519081526020016100af565b6100d7600381565b6040516001600160a01b0390911681526020016100af565b6100c1600b5481565b610105816000600261050e565b60095460405163ca669fa760e01b81526001600160a01b039091166004820152909150737109709ecfa91a80626ff3989d68f67f5b1dd12d9063ca669fa790602401600060405180830381600087803b15801561016157600080fd5b505af1158015610175573d6000803e3d6000fd5b5050600854600a80546001600160a01b0390921693506311c006179250600391859081106101a5576101a561083e565b906000526020600020016040518363ffffffff1660e01b81526004016101cc92919061088e565b6020604051808303816000875af11580156101eb573d6000803e3d6000fd5b505050506040513d601f19601f8201168201806040525081019061020f919061094b565b600b6000828254610220919061097a565b909155505050565b604051632631f2b160e11b8152620d2f0083106004820152737109709ecfa91a80626ff3989d68f67f5b1dd12d90634c63e5629060240160006040518083038186803b15801561027757600080fd5b505afa15801561028b573d6000803e3d6000fd5b50737109709ecfa91a80626ff3989d68f67f5b1dd12d925063e5d6bf0291506102b69050844261097a565b6040518263ffffffff1660e01b81526004016102d491815260200190565b600060405180830381600087803b1580156102ee57600080fd5b505af1158015610302573d6000803e3d6000fd5b505060405163ca669fa760e01b81526001600160a01b0384166004820152737109709ecfa91a80626ff3989d68f67f5b1dd12d925063ca669fa79150602401600060405180830381600087803b15801561035b57600080fd5b505af115801561036f573d6000803e3d6000fd5b50505050600860009054906101000a90046001600160a01b03166001600160a01b03166329290c776040518163ffffffff1660e01b8152600401602060405180830381865afa1580156103c6573d6000803e3d6000fd5b505050506040513d601f19601f820116820180604052508101906103ea919061094b565b600c60008282546103fb919061097a565b90915550506008546040805163235995df60e11b815290516001600160a01b03909216916346b32bbe9160048082019260009290919082900301818387803b15801561044657600080fd5b505af115801561045a573d6000803e3d6000fd5b505050505050565b600a818154811061047257600080fd5b90600052602060002001600091509050805461048d90610854565b80601f01602080910402602001604051908101604052809291908181526020018280546104b990610854565b80156105065780601f106104db57610100808354040283529160200191610506565b820191906000526020600020905b8154815290600101906020018083116104e957829003601f168201915b505050505081565b600061051b848484610552565b905061054b6040518060400160405280600c81526020016b109bdd5b99081c995cdd5b1d60a21b8152508261071a565b9392505050565b6000818311156105ce5760405162461bcd60e51b815260206004820152603e60248201527f5374645574696c7320626f756e642875696e743235362c75696e743235362c7560448201527f696e74323536293a204d6178206973206c657373207468616e206d696e2e0000606482015260840160405180910390fd5b8284101580156105de5750818411155b156105ea57508261054b565b60006105f68484610993565b61060190600161097a565b90506003851115801561061357508481115b1561062a57610622858561097a565b91505061054b565b6106376003600019610993565b8510158015610650575061064d85600019610993565b81115b1561066b5761066185600019610993565b6106229084610993565b828511156106c157600061067f8487610993565b9050600061068d83836109a6565b9050806000036106a25784935050505061054b565b60016106ae828861097a565b6106b89190610993565b93505050610712565b838510156107125760006106d58686610993565b905060006106e383836109a6565b9050806000036106f85785935050505061054b565b6107028186610993565b61070d90600161097a565b935050505b509392505050565b61075f82826040516024016107309291906109c8565b60408051601f198184030181529190526020810180516001600160e01b0316632d839cb360e21b179052610763565b5050565b61076c8161076f565b50565b80516a636f6e736f6c652e6c6f67602083016000808483855afa5050505050565b6000602082840312156107a257600080fd5b5035919050565b600080604083850312156107bc57600080fd5b8235915060208301356001600160a01b03811681146107da57600080fd5b809150509250929050565b6000815180845260005b8181101561080b576020818501810151868301820152016107ef565b506000602082860101526020601f19601f83011685010191505092915050565b60208152600061054b60208301846107e5565b634e487b7160e01b600052603260045260246000fd5b600181811c9082168061086857607f821691505b60208210810361088857634e487b7160e01b600052602260045260246000fd5b50919050565b6001600160a01b03831681526040602082015281546000908190600181811c908216806108bc57607f821691505b6020821081036108da57634e487b7160e01b84526022600452602484fd5b60408601829052606086018180156108f9576001811461090f5761093d565b60ff198516825283151560051b8201955061093d565b60008981526020902060005b858110156109375781548482015260019091019060200161091b565b83019650505b509398975050505050505050565b60006020828403121561095d57600080fd5b5051919050565b634e487b7160e01b600052601160045260246000fd5b8082018082111561098d5761098d610964565b92915050565b8181038181111561098d5761098d610964565b6000826109c357634e487b7160e01b600052601260045260246000fd5b500690565b6040815260006109db60408301856107e5565b9050826020830152939250505056fea2646970667358221220d69d36246b0f5e090ecc8715a405a4347d241d1c1fe986c5cb0bda31f6af0ed664736f6c634300081c0033",
  "linkReferences": {},
  "deployedLinkReferences": {}
}