{
  "_format": "hh-sol-artifact-1",
  "contractName": "Gainz",
  "sourceName": "contracts/tokens/Gainz/Gainz.sol",
  "abi": [
    {
      "inputs": [
        {
          "internalType": "address",
          "name": "spender",
          "type": "address"
        },
        {
          "internalType": "uint256",
          "name": "allowance",
          "type": "uint256"
        },
        {
          "internalType": "uint256",
          "name": "needed",
          "type": "uint256"
        }
      ],
      "name": "ERC20InsufficientAllowance",
      "type": "error"
    },
    {
      "inputs": [
        {
          "internalType": "address",
          "name": "sender",
          "type": "address"
        },
        {
          "internalType": "uint256",
          "name": "balance",
          "type": "uint256"
        },
        {
          "internalType": "uint256",
          "name": "needed",
          "type": "uint256"
        }
      ],
      "name": "ERC20InsufficientBalance",
      "type": "error"
    },
    {
      "inputs": [
        {
          "internalType": "address",
          "name": "approver",
          "type": "address"
        }
      ],
      "name": "ERC20InvalidApprover",
      "type": "error"
    },
    {
      "inputs": [
        {
          "internalType": "address",
          "name": "receiver",
          "type": "address"
        }
      ],
      "name": "ERC20InvalidReceiver",
      "type": "error"
    },
    {
      "inputs": [
        {
          "internalType": "address",
          "name": "sender",
          "type": "address"
        }
      ],
      "name": "ERC20InvalidSender",
      "type": "error"
    },
    {
      "inputs": [
        {
          "internalType": "address",
          "name": "spender",
          "type": "address"
        }
      ],
      "name": "ERC20InvalidSpender",
      "type": "error"
    },
    {
      "inputs": [],
      "name": "InvalidInitialization",
      "type": "error"
    },
    {
      "inputs": [],
      "name": "NotInitializing",
      "type": "error"
    },
    {
      "inputs": [
        {
          "internalType": "address",
          "name": "owner",
          "type": "address"
        }
      ],
      "name": "OwnableInvalidOwner",
      "type": "error"
    },
    {
      "inputs": [
        {
          "internalType": "address",
          "name": "account",
          "type": "address"
        }
      ],
      "name": "OwnableUnauthorizedAccount",
      "type": "error"
    },
    {
      "inputs": [
        {
          "internalType": "int256",
          "name": "x",
          "type": "int256"
        }
      ],
      "name": "PRBMathSD59x18__Exp2InputTooBig",
      "type": "error"
    },
    {
      "inputs": [
        {
          "internalType": "int256",
          "name": "x",
          "type": "int256"
        }
      ],
      "name": "PRBMathSD59x18__LogInputTooSmall",
      "type": "error"
    },
    {
      "inputs": [],
      "name": "PRBMathSD59x18__MulInputTooSmall",
      "type": "error"
    },
    {
      "inputs": [
        {
          "internalType": "uint256",
          "name": "rAbs",
          "type": "uint256"
        }
      ],
      "name": "PRBMathSD59x18__MulOverflow",
      "type": "error"
    },
    {
      "inputs": [
        {
          "internalType": "uint256",
          "name": "prod1",
          "type": "uint256"
        }
      ],
      "name": "PRBMath__MulDivFixedPointOverflow",
      "type": "error"
    },
    {
      "inputs": [
        {
          "internalType": "uint256",
          "name": "number",
          "type": "uint256"
        }
      ],
      "name": "ToInt256CastOverflow",
      "type": "error"
    },
    {
      "inputs": [
        {
          "internalType": "int256",
          "name": "number",
          "type": "int256"
        }
      ],
      "name": "ToUint256CastOverflow",
      "type": "error"
    },
    {
      "anonymous": false,
      "inputs": [
        {
          "indexed": true,
          "internalType": "address",
          "name": "owner",
          "type": "address"
        },
        {
          "indexed": true,
          "internalType": "address",
          "name": "spender",
          "type": "address"
        },
        {
          "indexed": false,
          "internalType": "uint256",
          "name": "value",
          "type": "uint256"
        }
      ],
      "name": "Approval",
      "type": "event"
    },
    {
      "anonymous": false,
      "inputs": [
        {
          "indexed": false,
          "internalType": "uint64",
          "name": "version",
          "type": "uint64"
        }
      ],
      "name": "Initialized",
      "type": "event"
    },
    {
      "anonymous": false,
      "inputs": [
        {
          "indexed": true,
          "internalType": "address",
          "name": "previousOwner",
          "type": "address"
        },
        {
          "indexed": true,
          "internalType": "address",
          "name": "newOwner",
          "type": "address"
        }
      ],
      "name": "OwnershipTransferred",
      "type": "event"
    },
    {
      "anonymous": false,
      "inputs": [
        {
          "indexed": true,
          "internalType": "address",
          "name": "from",
          "type": "address"
        },
        {
          "indexed": true,
          "internalType": "address",
          "name": "to",
          "type": "address"
        },
        {
          "indexed": false,
          "internalType": "uint256",
          "name": "value",
          "type": "uint256"
        }
      ],
      "name": "Transfer",
      "type": "event"
    },
    {
      "inputs": [
        {
          "internalType": "address",
          "name": "owner",
          "type": "address"
        },
        {
          "internalType": "address",
          "name": "spender",
          "type": "address"
        }
      ],
      "name": "allowance",
      "outputs": [
        {
          "internalType": "uint256",
          "name": "",
          "type": "uint256"
        }
      ],
      "stateMutability": "view",
      "type": "function"
    },
    {
      "inputs": [
        {
          "internalType": "address",
          "name": "spender",
          "type": "address"
        },
        {
          "internalType": "uint256",
          "name": "value",
          "type": "uint256"
        }
      ],
      "name": "approve",
      "outputs": [
        {
          "internalType": "bool",
          "name": "",
          "type": "bool"
        }
      ],
      "stateMutability": "nonpayable",
      "type": "function"
    },
    {
      "inputs": [
        {
          "internalType": "address",
          "name": "account",
          "type": "address"
        }
      ],
      "name": "balanceOf",
      "outputs": [
        {
          "internalType": "uint256",
          "name": "",
          "type": "uint256"
        }
      ],
      "stateMutability": "view",
      "type": "function"
    },
    {
      "inputs": [
        {
          "internalType": "uint256",
          "name": "value",
          "type": "uint256"
        }
      ],
      "name": "burn",
      "outputs": [],
      "stateMutability": "nonpayable",
      "type": "function"
    },
    {
      "inputs": [
        {
          "internalType": "address",
          "name": "account",
          "type": "address"
        },
        {
          "internalType": "uint256",
          "name": "value",
          "type": "uint256"
        }
      ],
      "name": "burnFrom",
      "outputs": [],
      "stateMutability": "nonpayable",
      "type": "function"
    },
    {
      "inputs": [],
      "name": "decimals",
      "outputs": [
        {
          "internalType": "uint8",
          "name": "",
          "type": "uint8"
        }
      ],
      "stateMutability": "view",
      "type": "function"
    },
    {
      "inputs": [],
      "name": "initialize",
      "outputs": [],
      "stateMutability": "nonpayable",
      "type": "function"
    },
    {
      "inputs": [],
      "name": "mintGainz",
      "outputs": [],
      "stateMutability": "nonpayable",
      "type": "function"
    },
    {
      "inputs": [],
      "name": "name",
      "outputs": [
        {
          "internalType": "string",
          "name": "",
          "type": "string"
        }
      ],
      "stateMutability": "view",
      "type": "function"
    },
    {
      "inputs": [],
      "name": "owner",
      "outputs": [
        {
          "internalType": "address",
          "name": "",
          "type": "address"
        }
      ],
      "stateMutability": "view",
      "type": "function"
    },
    {
      "inputs": [],
      "name": "renounceOwnership",
      "outputs": [],
      "stateMutability": "nonpayable",
      "type": "function"
    },
    {
      "inputs": [
        {
          "internalType": "address",
          "name": "governance",
          "type": "address"
        }
      ],
      "name": "runInit",
      "outputs": [],
      "stateMutability": "nonpayable",
      "type": "function"
    },
    {
      "inputs": [
        {
          "internalType": "address",
          "name": "to",
          "type": "address"
        },
        {
          "internalType": "string",
          "name": "_entityName",
          "type": "string"
        }
      ],
      "name": "sendGainz",
      "outputs": [
        {
          "internalType": "uint256",
          "name": "amount",
          "type": "uint256"
        }
      ],
      "stateMutability": "nonpayable",
      "type": "function"
    },
    {
      "inputs": [],
      "name": "stakersGainzToEmit",
      "outputs": [
        {
          "internalType": "uint256",
          "name": "toEmit",
          "type": "uint256"
        }
      ],
      "stateMutability": "view",
      "type": "function"
    },
    {
      "inputs": [],
      "name": "symbol",
      "outputs": [
        {
          "internalType": "string",
          "name": "",
          "type": "string"
        }
      ],
      "stateMutability": "view",
      "type": "function"
    },
    {
      "inputs": [],
      "name": "totalSupply",
      "outputs": [
        {
          "internalType": "uint256",
          "name": "",
          "type": "uint256"
        }
      ],
      "stateMutability": "view",
      "type": "function"
    },
    {
      "inputs": [
        {
          "internalType": "address",
          "name": "to",
          "type": "address"
        },
        {
          "internalType": "uint256",
          "name": "value",
          "type": "uint256"
        }
      ],
      "name": "transfer",
      "outputs": [
        {
          "internalType": "bool",
          "name": "",
          "type": "bool"
        }
      ],
      "stateMutability": "nonpayable",
      "type": "function"
    },
    {
      "inputs": [
        {
          "internalType": "address",
          "name": "from",
          "type": "address"
        },
        {
          "internalType": "address",
          "name": "to",
          "type": "address"
        },
        {
          "internalType": "uint256",
          "name": "value",
          "type": "uint256"
        }
      ],
      "name": "transferFrom",
      "outputs": [
        {
          "internalType": "bool",
          "name": "",
          "type": "bool"
        }
      ],
      "stateMutability": "nonpayable",
      "type": "function"
    },
    {
      "inputs": [
        {
          "internalType": "address",
          "name": "newOwner",
          "type": "address"
        }
      ],
      "name": "transferOwnership",
      "outputs": [],
      "stateMutability": "nonpayable",
      "type": "function"
    }
  ],
  "bytecode": "0x6080604052348015600f57600080fd5b506128178061001f6000396000f3fe608060405234801561001057600080fd5b50600436106101215760003560e01c806346b32bbe116100ad5780638da5cb5b116100715780638da5cb5b1461022057806395d89b4114610235578063a9059cbb1461023d578063dd62ed3e14610250578063f2fde38b1461026357600080fd5b806346b32bbe146101e257806370a08231146101ea578063715018a6146101fd57806379cc6790146102055780638129fc1c1461021857600080fd5b80631bad9d4b116100f45780631bad9d4b1461019057806323b872dd146101a557806329290c77146101b8578063313ce567146101c057806342966c68146101cf57600080fd5b806306fdde0314610126578063095ea7b31461014457806311c006171461016757806318160ddd14610188575b600080fd5b61012e610276565b60405161013b919061220e565b60405180910390f35b610157610152366004612258565b610317565b604051901515815260200161013b565b61017a6101753660046122c9565b610331565b60405190815260200161013b565b61017a61045b565b6101a361019e366004612374565b610470565b005b6101576101b336600461238f565b6105f8565b61017a61061c565b6040516012815260200161013b565b6101a36101dd3660046123cc565b61067f565b6101a361068c565b61017a6101f8366004612374565b6107c7565b6101a36107f2565b6101a3610213366004612258565b610806565b6101a361081f565b6102286109e9565b60405161013b91906123e5565b61012e610a17565b61015761024b366004612258565b610a34565b61017a61025e3660046123f9565b610a42565b6101a3610271366004612374565b610a7e565b60606000610282610ab9565b905080600301805461029390612423565b80601f01602080910402602001604051908101604052809291908181526020018280546102bf90612423565b801561030c5780601f106102e15761010080835404028352916020019161030c565b820191906000526020600020905b8154815290600101906020018083116102ef57829003601f168201915b505050505091505090565b600033610325818585610add565b60019150505b92915050565b600061033b610aea565b6000610345610b1c565b905060008360405160200161035a919061245d565b60405160208183030381529060405280519060200120905060405160200161038c90637465616d60e01b815260040190565b6040516020818303038152906040528051906020012081036103ba5760048201805460009091559250610442565b604051650cee4deeee8d60d31b60208201526026016040516020818303038152906040528051906020012081036103fd5760058201805460009091559250610442565b6040516b6c6971496e63656e7469766560a01b6020820152602c0160405160208183030381529060405280519060200120810361044257600782018054600090915592505b821561045357610453308685610b40565b505092915050565b600080610466610ab9565b6002015492915050565b610478610aea565b6000610482610b1c565b90506001600160a01b0382166104d15760405162461bcd60e51b815260206004820152600f60248201526e496e76616c6964204164647265737360881b60448201526064015b60405180910390fd5b4260028201556003810180546001600160a01b0384166001600160a01b0319909116811790915560408051600481526024810182526020810180516001600160e01b03166358152d0760e01b179052905160009283929091610533919061245d565b6000604051808303816000865af19150503d8060008114610570576040519150601f19603f3d011682016040523d82523d6000602084013e610575565b606091505b5091509150818015610588575060008151115b6105ce5760405162461bcd60e51b8152602060048201526017602482015276125b9d985b1a590811dbdd995c9b985b98d94810d85b1b604a1b60448201526064016104c8565b808060200190518101906105e29190612479565b8051845560200151600190930192909255505050565b600033610606858285610b9f565b610611858585610b40565b506001949350505050565b6000610626610c06565b91506106769050610635610b1c565b604080516080810182526004830154815260058301546020820152600683015491810191909152600790910154606082015261067083610cbd565b90610db6565b60400151905090565b6106893382610e47565b50565b6000610696610b1c565b905060006106a2610c06565b6002840191909155905060008190036106b9575050565b6106cf6106c582610cbd565b6004840190610e7d565b600382015460068301546106f09130916001600160a01b0390911690610b40565b600060068301819055600383015460408051600481526024810182526020810180516001600160e01b03166374afd3f760e01b17905290516001600160a01b039092169161073e919061245d565b6000604051808303816000865af19150503d806000811461077b576040519150601f19603f3d011682016040523d82523d6000602084013e610780565b606091505b50509050806107c25760405162461bcd60e51b815260206004820152600e60248201526d155b98589b19481d1bc81b5a5b9d60921b60448201526064016104c8565b505050565b6000806107d2610ab9565b6001600160a01b0390931660009081526020939093525050604090205490565b6107fa610aea565b6108046000610ef4565b565b610811823383610b9f565b61081b8282610e47565b5050565b6000610829610f65565b805490915060ff600160401b820416159067ffffffffffffffff166000811580156108515750825b905060008267ffffffffffffffff16600114801561086e5750303b155b90508115801561087c575080155b1561089a5760405163f92ee8a960e01b815260040160405180910390fd5b845467ffffffffffffffff1916600117855583156108c457845460ff60401b1916600160401b1785555b61090e6040518060400160405280600b81526020016a23b0b4b73d102a37b5b2b760a91b8152506040518060400160405280600581526020016423b0b4b73d60d91b815250610f8e565b61091733610fa0565b61096e336109276012600a6125c7565b6109349062d048506125d3565b610945906607fd10d7c82f0b6125ea565b6109516012600a6125c7565b61095f906301406f406125d3565b61096991906125fd565b610fb1565b61099c3061097e6012600a6125c7565b61098b9062d048506125d3565b610969906607fd10d7c82f0b6125ea565b83156109e257845460ff60401b19168555604051600181527fc7f505b2f371ae2175ee4913f4499e1f2633a7b5936321eed1cdaeb6115181d29060200160405180910390a15b5050505050565b7f9016d09d72d40fdae2fd8ceac6b6234c7706214fd39c1cd1e609a0528c199300546001600160a01b031690565b60606000610a23610ab9565b905080600401805461029390612423565b600033610325818585610b40565b600080610a4d610ab9565b6001600160a01b03948516600090815260019190910160209081526040808320959096168252939093525050205490565b610a86610aea565b6001600160a01b038116610ab0576000604051631e4fbdf760e01b81526004016104c891906123e5565b61068981610ef4565b7f52c63247e1f47db19d5ce0460030c497f067ca4cebf71ba98eeadabe20bace0090565b6107c28383836001610fe7565b33610af36109e9565b6001600160a01b031614610804573360405163118cdaa760e01b81526004016104c891906123e5565b7f134accceb8ccd8549f1b5f4bf51d65d2512a1d4b87f29353424fe2bf01de7f0090565b6001600160a01b038316610b6a576000604051634b637e8f60e11b81526004016104c891906123e5565b6001600160a01b038216610b9457600060405163ec442f0560e01b81526004016104c891906123e5565b6107c28383836110cb565b6000610bab8484610a42565b9050600019811015610c005781811015610bf157604051637dc7a0d960e11b81526001600160a01b038416600482015260248101829052604481018390526064016104c8565b610c0084848484036000610fe7565b50505050565b6000806000610c13610b1c565b600281015493509050804280851015610cb6576000610c328387611206565b9050610c3f818784611274565b94506000610c4c84611401565b905081811115610cb05760006001610c6484846125fd565b610c6e91906125fd565b90508015610c9757610c8a610c848460016125ea565b8361140d565b610c9490886125ea565b96505b610ca2828986611274565b610cac90886125ea565b9650505b82965050505b5050509091565b610ce86040518060800160405280600081526020016000815260200160008152602001600081525090565b6000612710610cf9611b5882612610565b610d099063ffffffff16856125d3565b610d139190612642565b90506000612710610d266103e8846125d3565b610d309190612642565b90506000612710610d436101f4856125d3565b610d4d9190612642565b90506000612710610d606105dc866125d3565b610d6a9190612642565b9050600081610d7984866125ea565b610d8391906125ea565b610d8d90886125fd565b604080516080810182529586526020860194909452928401929092526060830152509392505050565b610de16040518060800160405280600081526020016000815260200160008152602001600081525090565b815183518490610df29083906125ea565b9052506020808301519084018051610e0b9083906125ea565b9052506040808301519084018051610e249083906125ea565b9052506060808301519084018051610e3d9083906125ea565b9052509192915050565b6001600160a01b038216610e71576000604051634b637e8f60e11b81526004016104c891906123e5565b61081b826000836110cb565b805182548390600090610e919084906125ea565b90915550506020810151600183018054600090610eaf9084906125ea565b90915550506040810151600283018054600090610ecd9084906125ea565b90915550506060810151600383018054600090610eeb9084906125ea565b90915550505050565b7f9016d09d72d40fdae2fd8ceac6b6234c7706214fd39c1cd1e609a0528c19930080546001600160a01b031981166001600160a01b03848116918217845560405192169182907f8be0079c531659141344cd1fd0a4f28419497f9722a3daafe3b4186f6b6457e090600090a3505050565b6000807ff0c57e16840df040f15088dc2f81fe391c3923bec73e23a9662efc9c229c6a0061032b565b610f966114f2565b61081b8282611517565b610fa86114f2565b61068981611548565b6001600160a01b038216610fdb57600060405163ec442f0560e01b81526004016104c891906123e5565b61081b600083836110cb565b6000610ff1610ab9565b90506001600160a01b03851661101d57600060405163e602df0560e01b81526004016104c891906123e5565b6001600160a01b038416611047576000604051634a1406b160e11b81526004016104c891906123e5565b6001600160a01b038086166000908152600183016020908152604080832093881683529290522083905581156109e257836001600160a01b0316856001600160a01b03167f8c5be1e5ebec7d5bd14f71427d1e84f3dd0314c0f7b2291e5b200ac8c7c3b925856040516110bc91815260200190565b60405180910390a35050505050565b60006110d5610ab9565b90506001600160a01b03841661110457818160020160008282546110f991906125ea565b909155506111769050565b6001600160a01b038416600090815260208290526040902054828110156111575760405163391434e360e21b81526001600160a01b038616600482015260248101829052604481018490526064016104c8565b6001600160a01b03851660009081526020839052604090209083900390555b6001600160a01b0383166111945760028101805483900390556111b3565b6001600160a01b03831660009081526020829052604090208054830190555b826001600160a01b0316846001600160a01b03167fddf252ad1be2c89b69c2b068fc378daa952ba7f163c4a11628f55a4df523b3ef846040516111f891815260200190565b60405180910390a350505050565b6000808360010154116112525760405162461bcd60e51b8152602060048201526014602482015273092dcecc2d8d2c8408ae0dec6d040d8cadccee8d60631b60448201526064016104c8565b6001830154835461126390846125fd565b61126d9190612642565b9392505050565b60008282116112e35760405162461bcd60e51b815260206004820152603560248201527f4761696e7a2e5f636f6d7075746545646765456d697373696f6e733a20496e766044820152740616c69642063757272656e7454696d657374616d7605c1b60648201526084016104c8565b60006112ed610b1c565b60408051808201909152815481526001820154602082015290915060009081906113179088611550565b9150915060008086841115801561132e5750828711155b1561134d57869150838811156113445787611346565b835b90506113dc565b87841115801561135d5750828811155b1561137c57828711156113705782611372565b865b91508790506113dc565b60405162461bcd60e51b815260206004820152602f60248201527f4761696e7a2e5f636f6d7075746545646765456d697373696f6e733a20496e7660448201526e616c69642074696d657374616d707360881b60648201526084016104c8565b6113f4896113ea83856125fd565b6001880154611596565b9998505050505050505050565b600061032b8242611206565b600082821161147e5760405162461bcd60e51b815260206004820152603760248201527f4761696e7a456d697373696f6e3a2065706f6368456e64206d7573742062652060448201527619dc99585d195c881d1a185b88195c1bd8da14dd185c9d604a1b60648201526084016104c8565b6000611489846115bf565b90506000611496846115bf565b905060006114ab670de000cd866f80006115ec565b6114b58385612656565b6114c8906893fa92954c28c89b9461267d565b6114d291906126ad565b90506114e86114e38260001961267d565b61161e565b9695505050505050565b6114fa611648565b61080457604051631afcd79f60e31b815260040160405180910390fd5b61151f6114f2565b6000611529610ab9565b9050600381016115398482612722565b5060048101610c008382612722565b610a866114f2565b60008083602001518361156391906125d3565b845161156f91906125ea565b9150600184602001518361158391906125ea565b61158d91906125fd565b90509250929050565b600081836115a386611662565b6115ad91906125d3565b6115b79190612642565b949350505050565b600061032b670de000cd866f80006115e76115e285670de0b6b3a76400006125d3565b611696565b6116c3565b60006714057b7ef767814f670de0b6b3a764000061160984611705565b02816116175761161761262c565b0592915050565b60008082121561164457604051635afb78ad60e11b8152600481018390526024016104c8565b5090565b6000611652610f65565b54600160401b900460ff16919050565b600061032b670de0b6b3a7640000611679846115bf565b61168c906893fa92954c28c89b9461267d565b6114e391906126ad565b60006001600160ff1b038211156116445760405163322efb3360e21b8152600481018390526024016104c8565b6000826000036116eb5781156116da5760006116e4565b670de0b6b3a76400005b905061032b565b61126d6117006116fa85611705565b846117ea565b6118af565b600080821361172a5760405163309fa7dd60e11b8152600481018390526024016104c8565b6000670de0b6b3a764000083126117435750600161175d565b6000199050826ec097ce7bc90715b34b9f10000000000492505b6000611772670de0b6b3a76400008505611949565b670de0b6b3a764000081029350905083811d670de0b6b3a763ffff19810161179c57505002919050565b6706f05b59d3b200005b60008113156117e157670de0b6b3a7640000828002059150671bc16d674ec8000082126117d9579384019360019190911d905b60011d6117a6565b50505002919050565b6000600160ff1b8314806118015750600160ff1b82145b1561181f57604051630d01a11b60e21b815260040160405180910390fd5b600080600085126118305784611835565b846000035b915060008412611845578361184a565b836000035b905060006118588383611a28565b90506001600160ff1b038111156118855760405163bf79e8d960e01b8152600481018290526024016104c8565b60001980871390861380821860011461189e57826118a3565b826000035b98975050505050505050565b6000808212156118fc5768033dd1780914b97114198212156118d357506000919050565b6118df826000036118af565b6ec097ce7bc90715b34b9f1000000000816116175761161761262c565b680a688906bd8b00000082126119285760405163e69458f960e01b8152600481018390526024016104c8565b670de0b6b3a7640000604083901b0461194081611aee565b9150505b919050565b6000600160801b821061196957608091821c9161196690826125ea565b90505b600160401b821061198757604091821c9161198490826125ea565b90505b64010000000082106119a657602091821c916119a390826125ea565b90505b6201000082106119c357601091821c916119c090826125ea565b90505b61010082106119df57600891821c916119dc90826125ea565b90505b601082106119fa57600491821c916119f790826125ea565b90505b60048210611a1557600291821c91611a1290826125ea565b90505b600282106119445761032b6001826125ea565b60008080600019848609848602925082811083820303915050670de0b6b3a76400008110611a6c5760405163698d9a0160e11b8152600481018290526024016104c8565b600080670de0b6b3a764000086880991506706f05b59d3b1ffff8211905082600003611aaa5780670de0b6b3a764000085040194505050505061032b565b620400008285030493909111909103600160ee1b02919091177faccb18165bd6fe31ae1cf318dc5b51eee0e1ba569b88cd74c1773b91fac106690201905092915050565b600160bf1b678000000000000000821615611b125768016a09e667f3bcc9090260401c5b674000000000000000821615611b31576801306fe0a31b7152df0260401c5b672000000000000000821615611b50576801172b83c7d517adce0260401c5b671000000000000000821615611b6f5768010b5586cf9890f62a0260401c5b670800000000000000821615611b8e576801059b0d31585743ae0260401c5b670400000000000000821615611bad57680102c9a3e778060ee70260401c5b670200000000000000821615611bcc5768010163da9fb33356d80260401c5b670100000000000000821615611beb57680100b1afa5abcbed610260401c5b6680000000000000821615611c095768010058c86da1c09ea20260401c5b6640000000000000821615611c27576801002c605e2e8cec500260401c5b6620000000000000821615611c4557680100162f3904051fa10260401c5b6610000000000000821615611c63576801000b175effdc76ba0260401c5b6608000000000000821615611c8157680100058ba01fb9f96d0260401c5b6604000000000000821615611c9f5768010002c5cc37da94920260401c5b6602000000000000821615611cbd576801000162e525ee05470260401c5b6601000000000000821615611cdb5768010000b17255775c040260401c5b65800000000000821615611cf8576801000058b91b5bc9ae0260401c5b65400000000000821615611d1557680100002c5c89d5ec6d0260401c5b65200000000000821615611d325768010000162e43f4f8310260401c5b65100000000000821615611d4f57680100000b1721bcfc9a0260401c5b65080000000000821615611d6c5768010000058b90cf1e6e0260401c5b65040000000000821615611d89576801000002c5c863b73f0260401c5b65020000000000821615611da657680100000162e430e5a20260401c5b65010000000000821615611dc3576801000000b1721835510260401c5b648000000000821615611ddf57680100000058b90c0b490260401c5b644000000000821615611dfb5768010000002c5c8601cc0260401c5b642000000000821615611e17576801000000162e42fff00260401c5b641000000000821615611e335768010000000b17217fbb0260401c5b640800000000821615611e4f576801000000058b90bfce0260401c5b640400000000821615611e6b57680100000002c5c85fe30260401c5b640200000000821615611e875768010000000162e42ff10260401c5b640100000000821615611ea357680100000000b17217f80260401c5b6380000000821615611ebe5768010000000058b90bfc0260401c5b6340000000821615611ed9576801000000002c5c85fe0260401c5b6320000000821615611ef457680100000000162e42ff0260401c5b6310000000821615611f0f576801000000000b17217f0260401c5b6308000000821615611f2a57680100000000058b90c00260401c5b6304000000821615611f455768010000000002c5c8600260401c5b6302000000821615611f60576801000000000162e4300260401c5b6301000000821615611f7b5768010000000000b172180260401c5b62800000821615611f95576801000000000058b90c0260401c5b62400000821615611faf57680100000000002c5c860260401c5b62200000821615611fc95768010000000000162e430260401c5b62100000821615611fe357680100000000000b17210260401c5b62080000821615611ffd5768010000000000058b910260401c5b62040000821615612017576801000000000002c5c80260401c5b6202000082161561203157680100000000000162e40260401c5b6201000082161561204b576801000000000000b1720260401c5b61800082161561206457680100000000000058b90260401c5b61400082161561207d5768010000000000002c5d0260401c5b612000821615612096576801000000000000162e0260401c5b6110008216156120af5768010000000000000b170260401c5b6108008216156120c8576801000000000000058c0260401c5b6104008216156120e157680100000000000002c60260401c5b6102008216156120fa57680100000000000001630260401c5b61010082161561211357680100000000000000b10260401c5b608082161561212b57680100000000000000590260401c5b6040821615612143576801000000000000002c0260401c5b602082161561215b57680100000000000000160260401c5b6010821615612173576801000000000000000b0260401c5b600882161561218b57680100000000000000060260401c5b60048216156121a357680100000000000000030260401c5b60028216156121bb57680100000000000000010260401c5b60018216156121d357680100000000000000010260401c5b670de0b6b3a76400000260409190911c60bf031c90565b60005b838110156122055781810151838201526020016121ed565b50506000910152565b602081526000825180602084015261222d8160408501602087016121ea565b601f01601f19169190910160400192915050565b80356001600160a01b038116811461194457600080fd5b6000806040838503121561226b57600080fd5b61227483612241565b946020939093013593505050565b634e487b7160e01b600052604160045260246000fd5b604051601f8201601f1916810167ffffffffffffffff811182821017156122c1576122c1612282565b604052919050565b600080604083850312156122dc57600080fd5b6122e583612241565b9150602083013567ffffffffffffffff81111561230157600080fd5b8301601f8101851361231257600080fd5b803567ffffffffffffffff81111561232c5761232c612282565b61233f601f8201601f1916602001612298565b81815286602083850101111561235457600080fd5b816020840160208301376000602083830101528093505050509250929050565b60006020828403121561238657600080fd5b61126d82612241565b6000806000606084860312156123a457600080fd5b6123ad84612241565b92506123bb60208501612241565b929592945050506040919091013590565b6000602082840312156123de57600080fd5b5035919050565b6001600160a01b0391909116815260200190565b6000806040838503121561240c57600080fd5b61241583612241565b915061158d60208401612241565b600181811c9082168061243757607f821691505b60208210810361245757634e487b7160e01b600052602260045260246000fd5b50919050565b6000825161246f8184602087016121ea565b9190910192915050565b6000604082840312801561248c57600080fd5b506040805190810167ffffffffffffffff811182821017156124b0576124b0612282565b604052825181526020928301519281019290925250919050565b634e487b7160e01b600052601160045260246000fd5b6001815b600184111561251b578085048111156124ff576124ff6124ca565b600184161561250d57908102905b60019390931c9280026124e4565b935093915050565b6000826125325750600161032b565b8161253f5750600061032b565b8160018114612555576002811461255f5761257b565b600191505061032b565b60ff841115612570576125706124ca565b50506001821b61032b565b5060208310610133831016604e8410600b841016171561259e575081810a61032b565b6125ab60001984846124e0565b80600019048211156125bf576125bf6124ca565b029392505050565b600061126d8383612523565b808202811582820484141761032b5761032b6124ca565b8082018082111561032b5761032b6124ca565b8181038181111561032b5761032b6124ca565b63ffffffff828116828216039081111561032b5761032b6124ca565b634e487b7160e01b600052601260045260246000fd5b6000826126515761265161262c565b500490565b8181036000831280158383131683831282161715612676576126766124ca565b5092915050565b80820260008212600160ff1b84141615612699576126996124ca565b818105831482151761032b5761032b6124ca565b6000826126bc576126bc61262c565b600160ff1b8214600019841416156126d6576126d66124ca565b500590565b601f8211156107c257806000526020600020601f840160051c810160208510156127025750805b601f840160051c820191505b818110156109e2576000815560010161270e565b815167ffffffffffffffff81111561273c5761273c612282565b6127508161274a8454612423565b846126db565b6020601f821160018114612784576000831561276c5750848201515b600019600385901b1c1916600184901b1784556109e2565b600084815260208120601f198516915b828110156127b45787850151825560209485019460019092019101612794565b50848210156127d25786840151600019600387901b60f8161c191681555b50505050600190811b0190555056fea26469706673582212202bf04ef3ffb301921641423c41312b802f09a26d56a41b50823b4e5cb657fd6264736f6c634300081c0033",
  "linkReferences": {},
  "deployedLinkReferences": {}
}