{
  "_format": "hh-sol-artifact-1",
  "contractName": "PriceOracle",
  "sourceName": "contracts/PriceOracle.sol",
  "abi": [
    {
      "inputs": [],
      "stateMutability": "nonpayable",
      "type": "constructor"
    },
    {
      "anonymous": false,
      "inputs": [
        {
          "indexed": true,
          "internalType": "address",
          "name": "pair",
          "type": "address"
        },
        {
          "indexed": false,
          "internalType": "uint256",
          "name": "price0Cumulative",
          "type": "uint256"
        },
        {
          "indexed": false,
          "internalType": "uint256",
          "name": "price1Cumulative",
          "type": "uint256"
        },
        {
          "indexed": false,
          "internalType": "uint256",
          "name": "blockTimestamp",
          "type": "uint256"
        }
      ],
      "name": "Update",
      "type": "event"
    },
    {
      "inputs": [],
      "name": "PERIOD",
      "outputs": [
        {
          "internalType": "uint256",
          "name": "",
          "type": "uint256"
        }
      ],
      "stateMutability": "view",
      "type": "function"
    },
    {
      "inputs": [
        {
          "internalType": "address",
          "name": "tokenA",
          "type": "address"
        },
        {
          "internalType": "address",
          "name": "tokenB",
          "type": "address"
        }
      ],
      "name": "add",
      "outputs": [],
      "stateMutability": "nonpayable",
      "type": "function"
    },
    {
      "inputs": [
        {
          "internalType": "address",
          "name": "pair",
          "type": "address"
        }
      ],
      "name": "addPair",
      "outputs": [],
      "stateMutability": "nonpayable",
      "type": "function"
    },
    {
      "inputs": [
        {
          "internalType": "address",
          "name": "",
          "type": "address"
        }
      ],
      "name": "blockTimestampLast",
      "outputs": [
        {
          "internalType": "uint32",
          "name": "",
          "type": "uint32"
        }
      ],
      "stateMutability": "view",
      "type": "function"
    },
    {
      "inputs": [
        {
          "internalType": "address",
          "name": "tokenIn",
          "type": "address"
        },
        {
          "internalType": "address",
          "name": "tokenOut",
          "type": "address"
        },
        {
          "internalType": "uint256",
          "name": "amountIn",
          "type": "uint256"
        }
      ],
      "name": "consult",
      "outputs": [
        {
          "internalType": "uint256",
          "name": "",
          "type": "uint256"
        }
      ],
      "stateMutability": "view",
      "type": "function"
    },
    {
      "inputs": [
        {
          "internalType": "address",
          "name": "tokenA",
          "type": "address"
        },
        {
          "internalType": "address",
          "name": "tokenB",
          "type": "address"
        }
      ],
      "name": "pairFor",
      "outputs": [
        {
          "internalType": "address",
          "name": "",
          "type": "address"
        }
      ],
      "stateMutability": "view",
      "type": "function"
    },
    {
      "inputs": [],
      "name": "pairsBeacon",
      "outputs": [
        {
          "internalType": "address",
          "name": "",
          "type": "address"
        }
      ],
      "stateMutability": "view",
      "type": "function"
    },
    {
      "inputs": [
        {
          "internalType": "address",
          "name": "",
          "type": "address"
        }
      ],
      "name": "price0Average",
      "outputs": [
        {
          "internalType": "uint224",
          "name": "_x",
          "type": "uint224"
        }
      ],
      "stateMutability": "view",
      "type": "function"
    },
    {
      "inputs": [
        {
          "internalType": "address",
          "name": "",
          "type": "address"
        }
      ],
      "name": "price0CumulativeLast",
      "outputs": [
        {
          "internalType": "uint256",
          "name": "",
          "type": "uint256"
        }
      ],
      "stateMutability": "view",
      "type": "function"
    },
    {
      "inputs": [
        {
          "internalType": "address",
          "name": "",
          "type": "address"
        }
      ],
      "name": "price1Average",
      "outputs": [
        {
          "internalType": "uint224",
          "name": "_x",
          "type": "uint224"
        }
      ],
      "stateMutability": "view",
      "type": "function"
    },
    {
      "inputs": [
        {
          "internalType": "address",
          "name": "",
          "type": "address"
        }
      ],
      "name": "price1CumulativeLast",
      "outputs": [
        {
          "internalType": "uint256",
          "name": "",
          "type": "uint256"
        }
      ],
      "stateMutability": "view",
      "type": "function"
    },
    {
      "inputs": [],
      "name": "router",
      "outputs": [
        {
          "internalType": "address",
          "name": "",
          "type": "address"
        }
      ],
      "stateMutability": "view",
      "type": "function"
    },
    {
      "inputs": [
        {
          "internalType": "address",
          "name": "",
          "type": "address"
        }
      ],
      "name": "token0",
      "outputs": [
        {
          "internalType": "address",
          "name": "",
          "type": "address"
        }
      ],
      "stateMutability": "view",
      "type": "function"
    },
    {
      "inputs": [
        {
          "internalType": "address",
          "name": "",
          "type": "address"
        }
      ],
      "name": "token1",
      "outputs": [
        {
          "internalType": "address",
          "name": "",
          "type": "address"
        }
      ],
      "stateMutability": "view",
      "type": "function"
    },
    {
      "inputs": [
        {
          "internalType": "address",
          "name": "pair",
          "type": "address"
        }
      ],
      "name": "update",
      "outputs": [],
      "stateMutability": "nonpayable",
      "type": "function"
    },
    {
      "inputs": [
        {
          "internalType": "address",
          "name": "tokenIn",
          "type": "address"
        },
        {
          "internalType": "address",
          "name": "tokenOut",
          "type": "address"
        },
        {
          "internalType": "uint256",
          "name": "amountIn",
          "type": "uint256"
        }
      ],
      "name": "updateAndConsult",
      "outputs": [
        {
          "internalType": "uint256",
          "name": "",
          "type": "uint256"
        }
      ],
      "stateMutability": "nonpayable",
      "type": "function"
    }
  ],
  "bytecode": "0x60c060405234801561001057600080fd5b503360808190526040805163181b806360e21b8152905163606e018c916004808201926020929091908290030181865afa158015610052573d6000803e3d6000fd5b505050506040513d601f19601f820116820180604052508101906100769190610087565b6001600160a01b031660a0526100b7565b60006020828403121561009957600080fd5b81516001600160a01b03811681146100b057600080fd5b9392505050565b60805160a051611d4a6101066000396000818161020a015281816105f1015281816106570152610a87015260008181610311015281816105d0015281816106360152610a660152611d4a6000f3fe608060405234801561001057600080fd5b50600436106101005760003560e01c806376bf39a311610097578063ca18ba9411610066578063ca18ba94146102b9578063db1d5a96146102cc578063e267aa63146102ec578063f887ea401461030c57600080fd5b806376bf39a31461026057806396ed28f914610289578063b4d1d7951461029c578063c2b7bbb6146102a657600080fd5b80634ac4a0f4116100d35780634ac4a0f4146101dc5780635202cba81461020557806352c28fab1461022c578063636cfa0c1461023f57600080fd5b80631c1b8772146101055780632ebe160a1461011a57806334a42e9914610160578063378237951461019b575b600080fd5b6101186101133660046114d4565b610333565b005b6101436101283660046114d4565b6005602052600090815260409020546001600160e01b031681565b6040516001600160e01b0390911681526020015b60405180910390f35b61018661016e3660046114d4565b60046020526000908152604090205463ffffffff1681565b60405163ffffffff9091168152602001610157565b6101c46101a93660046114d4565b6001602052600090815260409020546001600160a01b031681565b6040516001600160a01b039091168152602001610157565b6101436101ea3660046114d4565b6006602052600090815260409020546001600160e01b031681565b6101c47f000000000000000000000000000000000000000000000000000000000000000081565b61011861023a3660046114f1565b6105ac565b61025261024d36600461152a565b6105c8565b604051908152602001610157565b6101c461026e3660046114d4565b6000602081905290815260409020546001600160a01b031681565b6101c46102973660046114f1565b61062f565b6102526201518081565b6101186102b43660046114d4565b610686565b6102526102c736600461152a565b610a5e565b6102526102da3660046114d4565b60036020526000908152604090205481565b6102526102fa3660046114d4565b60026020526000908152604090205481565b6101c47f000000000000000000000000000000000000000000000000000000000000000081565b600080600061034184610ac3565b6001600160a01b0387166000908152600460205260408120549396509194509250906103739063ffffffff1683611581565b6001600160a01b038616600090815260056020908152604091829020825191820190925290546001600160e01b031681529091506103bd906103b6906001610cba565b5160701c90565b6001600160901b03161580159061041b57506001600160a01b038516600090815260066020908152604091829020825191820190925290546001600160e01b0316815261040f906103b6906001610cba565b6001600160901b031615155b801561042f5750620151808163ffffffff16105b1561043b575050505050565b60405180602001604052808263ffffffff1660026000896001600160a01b03166001600160a01b03168152602001908152602001600020548761047e919061159d565b61048891906115c6565b6001600160e01b039081169091526001600160a01b0387166000908152600560209081526040808320945185546001600160e01b0319169416939093179093558151808401835260039093522054819063ffffffff8416906104ea908761159d565b6104f491906115c6565b6001600160e01b039081169091526001600160a01b0387166000818152600660209081526040808320955186546001600160e01b031916951694909417909455600284528281208890556003845282812087905560048452829020805463ffffffff191663ffffffff8716908117909155825188815293840187905291830191909152907f96ca5813fd6a7ce6930a4f31eb077b2cb8e92e497a52cc5d763773e80b6ec7039060600160405180910390a25050505050565b60006105b8838361062f565b90506105c381610686565b505050565b6000806106177f00000000000000000000000000000000000000000000000000000000000000007f00000000000000000000000000000000000000000000000000000000000000008787610d58565b9050610624818685610ec2565b9150505b9392505050565b600061067d7f00000000000000000000000000000000000000000000000000000000000000007f00000000000000000000000000000000000000000000000000000000000000008585610d58565b90505b92915050565b6001600160a01b03811660009081526004602052604090205463ffffffff16156106ad5750565b6000819050806001600160a01b0316630dfe16816040518163ffffffff1660e01b8152600401602060405180830381865afa1580156106f0573d6000803e3d6000fd5b505050506040513d601f19601f8201168201806040525081019061071491906115da565b6001600160a01b038381166000908152602081815260409182902080546001600160a01b03191694841694909417909355805163d21220a760e01b815290519184169263d21220a7926004808401938290030181865afa15801561077c573d6000803e3d6000fd5b505050506040513d601f19601f820116820180604052508101906107a091906115da565b6001600160a01b0383811660009081526001602090815260409182902080546001600160a01b031916948416949094179093558051635909c0d560e01b8152905191841692635909c0d5926004808401938290030181865afa15801561080a573d6000803e3d6000fd5b505050506040513d601f19601f8201168201806040525081019061082e91906115f7565b60026000846001600160a01b03166001600160a01b0316815260200190815260200160002081905550806001600160a01b0316635a3d54936040518163ffffffff1660e01b8152600401602060405180830381865afa158015610895573d6000803e3d6000fd5b505050506040513d601f19601f820116820180604052508101906108b991906115f7565b60036000846001600160a01b03166001600160a01b0316815260200190815260200160002081905550600080826001600160a01b0316630902f1ac6040518163ffffffff1660e01b8152600401606060405180830381865afa158015610923573d6000803e3d6000fd5b505050506040513d601f19601f82011682018060405250810190610947919061162c565b6001600160a01b0387166000908152600460205260409020805463ffffffff191663ffffffff9290921691909117905590925090506001600160701b0382161580159061099c57506001600160701b03811615155b6109e85760405162461bcd60e51b815260206004820152601860248201527750726963654f7261636c653a204e4f5f524553455256455360401b60448201526064015b60405180910390fd5b6001600160a01b038416600081815260026020908152604080832054600383528184205460048452938290205482519182529281019390935263ffffffff90911682820152517f96ca5813fd6a7ce6930a4f31eb077b2cb8e92e497a52cc5d763773e80b6ec7039181900360600190a250505050565b600080610aad7f00000000000000000000000000000000000000000000000000000000000000007f00000000000000000000000000000000000000000000000000000000000000008787610d58565b9050610ab881610333565b610624818685610ec2565b6000806000610ad0610ff4565b9050836001600160a01b0316635909c0d56040518163ffffffff1660e01b8152600401602060405180830381865afa158015610b10573d6000803e3d6000fd5b505050506040513d601f19601f82011682018060405250810190610b3491906115f7565b9250836001600160a01b0316635a3d54936040518163ffffffff1660e01b8152600401602060405180830381865afa158015610b74573d6000803e3d6000fd5b505050506040513d601f19601f82011682018060405250810190610b9891906115f7565b91506000806000866001600160a01b0316630902f1ac6040518163ffffffff1660e01b8152600401606060405180830381865afa158015610bdd573d6000803e3d6000fd5b505050506040513d601f19601f82011682018060405250810190610c01919061162c565b9250925092508363ffffffff168163ffffffff1614610cb0576000610c268286611581565b90508063ffffffff16610c4b846001600160701b0316866001600160701b031661100a565b51610c5f91906001600160e01b031661167c565b610c699088611693565b96508063ffffffff16610c8e856001600160701b0316856001600160701b031661100a565b51610ca291906001600160e01b031661167c565b610cac9087611693565b9550505b5050509193909250565b6040805160208101909152600081526000821580610cf7575083516001600160e01b031683610ce9818361167c565b9250610cf590836115c6565b145b610d435760405162461bcd60e51b815260206004820152601960248201527f4669786564506f696e743a3a6d756c3a206f766572666c6f770000000000000060448201526064016109df565b60408051602081019091529081529392505050565b6000806000610d67858561113d565b91509150600060405180602001610d7d906114af565b818103601f199081018352601f9091011660408181526001600160a01b03868116602484015285166044808401919091528151808403909101815260649092018152602080830180516001600160e01b031663485cc95560e01b1790529051610dea928b929091016116ca565b60408051601f1981840301815290829052610e08929160200161170c565b60405160208183030381529060405280519060200120905060008383604051602001610e53929190606092831b6001600160601b031990811682529190921b16601482015260280190565b60408051808303601f1901815282825280516020918201206001600160f81b03198285015260609c909c1b6001600160601b0319166021840152603583019b909b5260558083019490945280518083039094018452607590910190525080519701969096209695505050505050565b6001600160a01b03808416600090815260208190526040812054909190811690841603610f38576001600160a01b038416600090815260056020908152604091829020825191820190925290546001600160e01b03168152610f28906103b69084610cba565b6001600160901b03169050610628565b6001600160a01b03808516600090815260016020526040902054848216911614610fa45760405162461bcd60e51b815260206004820152601a60248201527f50726963654f7261636c653a20494e56414c49445f544f4b454e00000000000060448201526064016109df565b6001600160a01b038416600090815260066020908152604091829020825191820190925290546001600160e01b03168152610fe3906103b69084610cba565b6001600160901b0316949350505050565b60006110056401000000004261173b565b905090565b604080516020810190915260008152600082116110785760405162461bcd60e51b815260206004820152602660248201527f4669786564506f696e743a3a6672616374696f6e3a206469766973696f6e206260448201526579207a65726f60d01b60648201526084016109df565b826000036110955750604080516020810190915260008152610680565b6001600160901b03831161112c5760006110b383607086901b6115c6565b90506001600160e01b0381111561110c5760405162461bcd60e51b815260206004820152601e60248201527f4669786564506f696e743a3a6672616374696f6e3a206f766572666c6f77000060448201526064016109df565b6040518060200160405280826001600160e01b0316815250915050610680565b60006110b384600160701b85611221565b600080826001600160a01b0316846001600160a01b0316036111a15760405162461bcd60e51b815260206004820152601f60248201527f414d4d4c6962726172793a204944454e544943414c5f4144445245535345530060448201526064016109df565b826001600160a01b0316846001600160a01b0316106111c15782846111c4565b83835b90925090506001600160a01b03821661121a5760405162461bcd60e51b8152602060048201526018602482015277414d4d4c6962726172793a205a45524f5f4144445245535360401b60448201526064016109df565b9250929050565b600080600061123086866112ec565b9150915060008480611244576112446115b0565b86880990508281111561125f5761125c60018361159d565b91505b611269818461159d565b9250816000036112875761127d85846115c6565b9350505050610628565b8482106112d65760405162461bcd60e51b815260206004820152601a60248201527f46756c6c4d6174683a2046554c4c4449565f4f564552464c4f5700000000000060448201526064016109df565b6112e183838761132e565b979650505050505050565b600080806000198486099050611302848661167c565b925061130e838261159d565b9150828110156113265761132360018361159d565b91505b509250929050565b60008061133d83196001611693565b8316905061134b81846115c6565b925061135781866115c6565b94508061136681196001611693565b61137091906115c6565b61137b906001611693565b611385908561167c565b61138f9086611693565b9450600161139d818561167c565b6113a890600261159d565b6113b2908261167c565b90506113be818561167c565b6113c990600261159d565b6113d3908261167c565b90506113df818561167c565b6113ea90600261159d565b6113f4908261167c565b9050611400818561167c565b61140b90600261159d565b611415908261167c565b9050611421818561167c565b61142c90600261159d565b611436908261167c565b9050611442818561167c565b61144d90600261159d565b611457908261167c565b9050611463818561167c565b61146e90600261159d565b611478908261167c565b9050611484818561167c565b61148f90600261159d565b611499908261167c565b90506114a5818761167c565b9695505050505050565b6105c58061175083390190565b6001600160a01b03811681146114d157600080fd5b50565b6000602082840312156114e657600080fd5b8135610628816114bc565b6000806040838503121561150457600080fd5b823561150f816114bc565b9150602083013561151f816114bc565b809150509250929050565b60008060006060848603121561153f57600080fd5b833561154a816114bc565b9250602084013561155a816114bc565b929592945050506040919091013590565b634e487b7160e01b600052601160045260246000fd5b63ffffffff82811682821603908111156106805761068061156b565b818103818111156106805761068061156b565b634e487b7160e01b600052601260045260246000fd5b6000826115d5576115d56115b0565b500490565b6000602082840312156115ec57600080fd5b8151610628816114bc565b60006020828403121561160957600080fd5b5051919050565b80516001600160701b038116811461162757600080fd5b919050565b60008060006060848603121561164157600080fd5b61164a84611610565b925061165860208501611610565b9150604084015163ffffffff8116811461167157600080fd5b809150509250925092565b80820281158282048414176106805761068061156b565b808201808211156106805761068061156b565b60005b838110156116c15781810151838201526020016116a9565b50506000910152565b60018060a01b038316815260406020820152600082518060408401526116f78160608501602087016116a6565b601f01601f1916919091016060019392505050565b6000835161171e8184602088016116a6565b8351908301906117328183602088016116a6565b01949350505050565b60008261174a5761174a6115b0565b50069056fe60a06040526040516105c53803806105c583398101604081905261002291610387565b61002c828261003e565b506001600160a01b0316608052610484565b610047826100fe565b6040516001600160a01b038316907f1cf3b03a6cf19fa2baba4df148e9dcabedea7f8a5c07840e207e5c089be95d3e90600090a28051156100f2576100ed826001600160a01b0316635c60da1b6040518163ffffffff1660e01b8152600401602060405180830381865afa1580156100c3573d6000803e3d6000fd5b505050506040513d601f19601f820116820180604052508101906100e7919061044d565b82610211565b505050565b6100fa610288565b5050565b806001600160a01b03163b60000361013957604051631933b43b60e21b81526001600160a01b03821660048201526024015b60405180910390fd5b807fa3f0ad74e5423aebfd80d3ef4346578335a9a72aeaee59ff6cb3582b35133d5080546001600160a01b0319166001600160a01b0392831617905560408051635c60da1b60e01b81529051600092841691635c60da1b9160048083019260209291908290030181865afa1580156101b5573d6000803e3d6000fd5b505050506040513d601f19601f820116820180604052508101906101d9919061044d565b9050806001600160a01b03163b6000036100fa57604051634c9c8ce360e01b81526001600160a01b0382166004820152602401610130565b6060600080846001600160a01b03168460405161022e9190610468565b600060405180830381855af49150503d8060008114610269576040519150601f19603f3d011682016040523d82523d6000602084013e61026e565b606091505b50909250905061027f8583836102a9565b95945050505050565b34156102a75760405163b398979f60e01b815260040160405180910390fd5b565b6060826102be576102b982610308565b610301565b81511580156102d557506001600160a01b0384163b155b156102fe57604051639996b31560e01b81526001600160a01b0385166004820152602401610130565b50805b9392505050565b8051156103185780518082602001fd5b60405163d6bda27560e01b815260040160405180910390fd5b80516001600160a01b038116811461034857600080fd5b919050565b634e487b7160e01b600052604160045260246000fd5b60005b8381101561037e578181015183820152602001610366565b50506000910152565b6000806040838503121561039a57600080fd5b6103a383610331565b60208401519092506001600160401b038111156103bf57600080fd5b8301601f810185136103d057600080fd5b80516001600160401b038111156103e9576103e961034d565b604051601f8201601f19908116603f011681016001600160401b03811182821017156104175761041761034d565b60405281815282820160200187101561042f57600080fd5b610440826020830160208601610363565b8093505050509250929050565b60006020828403121561045f57600080fd5b61030182610331565b6000825161047a818460208701610363565b9190910192915050565b60805161012761049e6000396000601e01526101276000f3fe6080604052600a600c565b005b60186014601a565b60a0565b565b60007f00000000000000000000000000000000000000000000000000000000000000006001600160a01b0316635c60da1b6040518163ffffffff1660e01b8152600401602060405180830381865afa1580156079573d6000803e3d6000fd5b505050506040513d601f19601f82011682018060405250810190609b919060c3565b905090565b3660008037600080366000845af43d6000803e80801560be573d6000f35b3d6000fd5b60006020828403121560d457600080fd5b81516001600160a01b038116811460ea57600080fd5b939250505056fea2646970667358221220ddb3cb6bf07de3d9ebf0ddfa1f251cc525f9b889ee5133b139d74f1e62fcd4ce64736f6c634300081c0033a26469706673582212203195b12321795017e51b948cd4604e4cdee9367bf933178e7697bed4364259fc64736f6c634300081c0033",
  "linkReferences": {},
  "deployedLinkReferences": {}
}