{
  "_format": "hh-sol-artifact-1",
  "contractName": "Views",
  "sourceName": "contracts/Views.sol",
  "abi": [
    {
      "inputs": [
        {
          "internalType": "address",
          "name": "_router",
          "type": "address"
        },
        {
          "internalType": "address",
          "name": "_pairsBeacon",
          "type": "address"
        }
      ],
      "stateMutability": "nonpayable",
      "type": "constructor"
    },
    {
      "inputs": [
        {
          "internalType": "contract Pair",
          "name": "pair",
          "type": "address"
        },
        {
          "internalType": "address",
          "name": "token",
          "type": "address"
        },
        {
          "internalType": "uint256",
          "name": "amount",
          "type": "uint256"
        }
      ],
      "name": "feePercent",
      "outputs": [
        {
          "internalType": "uint256",
          "name": "",
          "type": "uint256"
        }
      ],
      "stateMutability": "view",
      "type": "function"
    },
    {
      "inputs": [
        {
          "internalType": "uint256",
          "name": "amountOut",
          "type": "uint256"
        },
        {
          "internalType": "uint256",
          "name": "reserveIn",
          "type": "uint256"
        },
        {
          "internalType": "uint256",
          "name": "reserveOut",
          "type": "uint256"
        },
        {
          "internalType": "address",
          "name": "pair",
          "type": "address"
        }
      ],
      "name": "getAmountIn",
      "outputs": [
        {
          "internalType": "uint256[2]",
          "name": "",
          "type": "uint256[2]"
        }
      ],
      "stateMutability": "view",
      "type": "function"
    },
    {
      "inputs": [
        {
          "internalType": "uint256",
          "name": "amountIn",
          "type": "uint256"
        },
        {
          "internalType": "uint256",
          "name": "reserveIn",
          "type": "uint256"
        },
        {
          "internalType": "uint256",
          "name": "reserveOut",
          "type": "uint256"
        },
        {
          "internalType": "address",
          "name": "pair",
          "type": "address"
        }
      ],
      "name": "getAmountOut",
      "outputs": [
        {
          "internalType": "uint256[2]",
          "name": "",
          "type": "uint256[2]"
        }
      ],
      "stateMutability": "view",
      "type": "function"
    },
    {
      "inputs": [
        {
          "internalType": "uint256",
          "name": "amountOut",
          "type": "uint256"
        },
        {
          "internalType": "address[]",
          "name": "path",
          "type": "address[]"
        }
      ],
      "name": "getAmountsIn",
      "outputs": [
        {
          "internalType": "uint256[2][]",
          "name": "",
          "type": "uint256[2][]"
        }
      ],
      "stateMutability": "view",
      "type": "function"
    },
    {
      "inputs": [
        {
          "internalType": "uint256",
          "name": "amountIn",
          "type": "uint256"
        },
        {
          "internalType": "address[]",
          "name": "path",
          "type": "address[]"
        }
      ],
      "name": "getAmountsOut",
      "outputs": [
        {
          "internalType": "uint256[2][]",
          "name": "",
          "type": "uint256[2][]"
        }
      ],
      "stateMutability": "view",
      "type": "function"
    },
    {
      "inputs": [
        {
          "internalType": "address",
          "name": "tokenA",
          "type": "address"
        },
        {
          "internalType": "address",
          "name": "tokenB",
          "type": "address"
        },
        {
          "internalType": "uint256",
          "name": "liquidityAmount",
          "type": "uint256"
        }
      ],
      "name": "getLiquidityValue",
      "outputs": [
        {
          "internalType": "uint256",
          "name": "tokenAAmount",
          "type": "uint256"
        },
        {
          "internalType": "uint256",
          "name": "tokenBAmount",
          "type": "uint256"
        }
      ],
      "stateMutability": "view",
      "type": "function"
    },
    {
      "inputs": [
        {
          "internalType": "uint256",
          "name": "amountIn",
          "type": "uint256"
        },
        {
          "internalType": "address[]",
          "name": "path",
          "type": "address[]"
        }
      ],
      "name": "getQuote",
      "outputs": [
        {
          "internalType": "uint256",
          "name": "amountOut",
          "type": "uint256"
        }
      ],
      "stateMutability": "view",
      "type": "function"
    },
    {
      "inputs": [],
      "name": "pairsBeacon",
      "outputs": [
        {
          "internalType": "address",
          "name": "",
          "type": "address"
        }
      ],
      "stateMutability": "view",
      "type": "function"
    },
    {
      "inputs": [
        {
          "internalType": "uint256",
          "name": "amountA",
          "type": "uint256"
        },
        {
          "internalType": "uint256",
          "name": "reserveA",
          "type": "uint256"
        },
        {
          "internalType": "uint256",
          "name": "reserveB",
          "type": "uint256"
        }
      ],
      "name": "quote",
      "outputs": [
        {
          "internalType": "uint256",
          "name": "amountB",
          "type": "uint256"
        }
      ],
      "stateMutability": "pure",
      "type": "function"
    },
    {
      "inputs": [],
      "name": "router",
      "outputs": [
        {
          "internalType": "address",
          "name": "",
          "type": "address"
        }
      ],
      "stateMutability": "view",
      "type": "function"
    }
  ],
  "bytecode": "0x60c060405234801561001057600080fd5b50604051611b47380380611b4783398101604081905261002f91610062565b6001600160a01b039182166080521660a052610095565b80516001600160a01b038116811461005d57600080fd5b919050565b6000806040838503121561007557600080fd5b61007e83610046565b915061008c60208401610046565b90509250929050565b60805160a051611a566100f16000396000818160f20152818161023b015281816102f7015281816106f5015261074a0152600081816101c501528181610219015281816102d6015281816106d301526107290152611a566000f3fe608060405234801561001057600080fd5b506004361061009e5760003560e01c8063ad615dec11610066578063ad615dec1461015f578063caced41b14610172578063d06ca61f14610185578063d9b7a6e714610198578063f887ea40146101c057600080fd5b80631f00ca74146100a3578063435789ed146100cc5780635202cba8146100ed5780635a34f4b71461012c5780639470dbea1461013f575b600080fd5b6100b66100b1366004610f07565b6101e7565b6040516100c39190610fb7565b60405180910390f35b6100df6100da366004610f07565b6102b5565b6040519081526020016100c3565b6101147f000000000000000000000000000000000000000000000000000000000000000081565b6040516001600160a01b0390911681526020016100c3565b6100df61013a366004611022565b610381565b61015261014d366004611063565b6105e3565b6040516100c391906110a4565b6100df61016d3660046110d5565b610600565b610152610180366004611063565b61068d565b6100b6610193366004610f07565b6106a1565b6101ab6101a6366004611022565b610721565b604080519283526020830191909152016100c3565b6101147f000000000000000000000000000000000000000000000000000000000000000081565b60405163b3923a9960e01b815260609073__$0cb1a916b6b121e73068c7f12b88f19526$__9063b3923a9990610267907f0000000000000000000000000000000000000000000000000000000000000000907f00000000000000000000000000000000000000000000000000000000000000009088908890600401611101565b600060405180830381865af4158015610284573d6000803e3d6000fd5b505050506040513d6000823e601f3d908101601f191682016040526102ac9190810190611173565b90505b92915050565b6000805b600183516102c79190611266565b81101561037a5760008061035b7f00000000000000000000000000000000000000000000000000000000000000007f000000000000000000000000000000000000000000000000000000000000000087868151811061032857610328611279565b60200260200101518887600161033e919061128f565b8151811061034e5761034e611279565b602002602001015161077d565b509150915061036b868383610600565b955085935050506001016102b9565b5092915050565b600080846001600160a01b0316630dfe16816040518163ffffffff1660e01b8152600401602060405180830381865afa1580156103c2573d6000803e3d6000fd5b505050506040513d601f19601f820116820180604052508101906103e691906112a2565b90506000856001600160a01b031663d21220a76040518163ffffffff1660e01b8152600401602060405180830381865afa158015610428573d6000803e3d6000fd5b505050506040513d601f19601f8201168201806040525081019061044c91906112a2565b9050846001600160a01b0316826001600160a01b0316148061047f5750846001600160a01b0316816001600160a01b0316145b6104c55760405162461bcd60e51b815260206004820152601260248201527124b73b30b634b2103830b4b9103a37b5b2b760711b60448201526064015b60405180910390fd5b600080876001600160a01b0316630902f1ac6040518163ffffffff1660e01b8152600401606060405180830381865afa158015610506573d6000803e3d6000fd5b505050506040513d601f19601f8201168201806040525081019061052a91906112e2565b506001600160701b031691506001600160701b03169150876001600160a01b031663692877f087866001600160a01b03168a6001600160a01b0316146105705783610572565b845b6040516001600160e01b031960e085901b16815260048101929092526024820152604401602060405180830381865afa1580156105b3573d6000803e3d6000fd5b505050506040513d601f19601f820116820180604052508101906105d79190611332565b98975050505050505050565b6105eb610e30565b6105f785858585610851565b95945050505050565b604051632b58577b60e21b815260048101849052602481018390526044810182905260009073__$0cb1a916b6b121e73068c7f12b88f19526$__9063ad615dec90606401602060405180830381865af4158015610661573d6000803e3d6000fd5b505050506040513d601f19601f820116820180604052508101906106859190611332565b949350505050565b610695610e30565b6105f7858585856109c1565b604051638fabd82d60e01b815260609073__$0cb1a916b6b121e73068c7f12b88f19526$__90638fabd82d90610267907f0000000000000000000000000000000000000000000000000000000000000000907f00000000000000000000000000000000000000000000000000000000000000009088908890600401611101565b6000806107717f00000000000000000000000000000000000000000000000000000000000000007f0000000000000000000000000000000000000000000000000000000000000000878787610afd565b91509150935093915050565b600080600061078e87878787610ba8565b9050600061079c8686610d12565b509050600080836001600160a01b0316630902f1ac6040518163ffffffff1660e01b8152600401606060405180830381865afa1580156107e0573d6000803e3d6000fd5b505050506040513d601f19601f8201168201806040525081019061080491906112e2565b506001600160701b031691506001600160701b03169150826001600160a01b0316886001600160a01b03161461083b57808261083e565b81815b909b909a50939850929650505050505050565b610859610e30565b600085116108b85760405162461bcd60e51b815260206004820152602660248201527f414d4d4c6962726172793a20494e53554646494349454e545f4f55545055545f604482015265105353d5539560d21b60648201526084016104bc565b6000841180156108c85750600083115b6108e45760405162461bcd60e51b81526004016104bc9061134b565b604051630692877f60e41b815260048101869052602481018490526001600160a01b0383169063692877f090604401602060405180830381865afa158015610930573d6000803e3d6000fd5b505050506040513d601f19601f820116820180604052508101906109549190611332565b602082018190526000906127109061096c9082611266565b610976908861138d565b61098091906113a4565b9050600061098e828761138d565b9050600061099c8387611266565b90506109a881836113a4565b6109b390600161128f565b845250919695505050505050565b6109c9610e30565b60008511610a275760405162461bcd60e51b815260206004820152602560248201527f414d4d4c6962726172793a20494e53554646494349454e545f494e5055545f416044820152641353d5539560da1b60648201526084016104bc565b600084118015610a375750600083115b610a535760405162461bcd60e51b81526004016104bc9061134b565b6000610a5f848761138d565b90506000610a6d878761128f565b9050610a7981836113a4565b808452604051630692877f60e41b81526004810191909152602481018690526001600160a01b0385169063692877f090604401602060405180830381865afa158015610ac9573d6000803e3d6000fd5b505050506040513d601f19601f82011682018060405250810190610aed9190611332565b6020840152509095945050505050565b600080600080610b0f8989898961077d565b50915091506000610b228a8a8a8a610ba8565b90506000816001600160a01b03166318160ddd6040518163ffffffff1660e01b8152600401602060405180830381865afa158015610b64573d6000803e3d6000fd5b505050506040513d601f19601f82011682018060405250810190610b889190611332565b9050610b968484838a610df6565b95509550505050509550959350505050565b6000806000610bb78585610d12565b91509150600060405180602001610bcd90610e4e565b818103601f199081018352601f9091011660408181526001600160a01b03868116602484015285166044808401919091528151808403909101815260649092018152602080830180516001600160e01b031663485cc95560e01b1790529051610c3a928b929091016113ea565b60408051601f1981840301815290829052610c58929160200161142c565b60405160208183030381529060405280519060200120905060008383604051602001610ca3929190606092831b6001600160601b031990811682529190921b16601482015260280190565b60408051808303601f1901815282825280516020918201206001600160f81b03198285015260609c909c1b6001600160601b0319166021840152603583019b909b5260558083019490945280518083039094018452607590910190525080519701969096209695505050505050565b600080826001600160a01b0316846001600160a01b031603610d765760405162461bcd60e51b815260206004820152601f60248201527f414d4d4c6962726172793a204944454e544943414c5f4144445245535345530060448201526064016104bc565b826001600160a01b0316846001600160a01b031610610d96578284610d99565b83835b90925090506001600160a01b038216610def5760405162461bcd60e51b8152602060048201526018602482015277414d4d4c6962726172793a205a45524f5f4144445245535360401b60448201526064016104bc565b9250929050565b60008083610e04848861138d565b610e0e91906113a4565b84610e19858861138d565b610e2391906113a4565b9150915094509492505050565b60405180604001604052806002906020820280368337509192915050565b6105c58061145c83390190565b634e487b7160e01b600052604160045260246000fd5b6040805190810167ffffffffffffffff81118282101715610e9457610e94610e5b565b60405290565b604051601f8201601f1916810167ffffffffffffffff81118282101715610ec357610ec3610e5b565b604052919050565b600067ffffffffffffffff821115610ee557610ee5610e5b565b5060051b60200190565b6001600160a01b0381168114610f0457600080fd5b50565b60008060408385031215610f1a57600080fd5b82359150602083013567ffffffffffffffff811115610f3857600080fd5b8301601f81018513610f4957600080fd5b8035610f5c610f5782610ecb565b610e9a565b8082825260208201915060208360051b850101925087831115610f7e57600080fd5b6020840193505b82841015610fa9578335610f9881610eef565b825260209384019390910190610f85565b809450505050509250929050565b602080825282518282018190526000918401906040840190835b818110156110175783518360005b6002811015610ffe578251825260209283019290910190600101610fdf565b5050506020939093019260409290920191600101610fd1565b509095945050505050565b60008060006060848603121561103757600080fd5b833561104281610eef565b9250602084013561105281610eef565b929592945050506040919091013590565b6000806000806080858703121561107957600080fd5b843593506020850135925060408501359150606085013561109981610eef565b939692955090935050565b60408101818360005b60028110156110cc5781518352602092830192909101906001016110ad565b50505092915050565b6000806000606084860312156110ea57600080fd5b505081359360208301359350604090920135919050565b6001600160a01b038581168252841660208083019190915260408201849052608060608301819052835190830181905260009184019060a0840190835b818110156111655783516001600160a01b031683526020938401939092019160010161113e565b509098975050505050505050565b60006020828403121561118557600080fd5b815167ffffffffffffffff81111561119c57600080fd5b8201601f810184136111ad57600080fd5b80516111bb610f5782610ecb565b8082825260208201915060208360061b8501019250868311156111dd57600080fd5b6020840193505b828410156112465786601f8501126111fb57600080fd5b611203610e71565b80604086018981111561121557600080fd5b865b8181101561122f578051845260209384019301611217565b5050835250604093909301926020909101906111e4565b9695505050505050565b634e487b7160e01b600052601160045260246000fd5b818103818111156102af576102af611250565b634e487b7160e01b600052603260045260246000fd5b808201808211156102af576102af611250565b6000602082840312156112b457600080fd5b81516112bf81610eef565b9392505050565b80516001600160701b03811681146112dd57600080fd5b919050565b6000806000606084860312156112f757600080fd5b611300846112c6565b925061130e602085016112c6565b9150604084015163ffffffff8116811461132757600080fd5b809150509250925092565b60006020828403121561134457600080fd5b5051919050565b60208082526022908201527f414d4d4c6962726172793a20494e53554646494349454e545f4c495155494449604082015261545960f01b606082015260800190565b80820281158282048414176102af576102af611250565b6000826113c157634e487b7160e01b600052601260045260246000fd5b500490565b60005b838110156113e15781810151838201526020016113c9565b50506000910152565b60018060a01b038316815260406020820152600082518060408401526114178160608501602087016113c6565b601f01601f1916919091016060019392505050565b6000835161143e8184602088016113c6565b8351908301906114528183602088016113c6565b0194935050505056fe60a06040526040516105c53803806105c583398101604081905261002291610387565b61002c828261003e565b506001600160a01b0316608052610484565b610047826100fe565b6040516001600160a01b038316907f1cf3b03a6cf19fa2baba4df148e9dcabedea7f8a5c07840e207e5c089be95d3e90600090a28051156100f2576100ed826001600160a01b0316635c60da1b6040518163ffffffff1660e01b8152600401602060405180830381865afa1580156100c3573d6000803e3d6000fd5b505050506040513d601f19601f820116820180604052508101906100e7919061044d565b82610211565b505050565b6100fa610288565b5050565b806001600160a01b03163b60000361013957604051631933b43b60e21b81526001600160a01b03821660048201526024015b60405180910390fd5b807fa3f0ad74e5423aebfd80d3ef4346578335a9a72aeaee59ff6cb3582b35133d5080546001600160a01b0319166001600160a01b0392831617905560408051635c60da1b60e01b81529051600092841691635c60da1b9160048083019260209291908290030181865afa1580156101b5573d6000803e3d6000fd5b505050506040513d601f19601f820116820180604052508101906101d9919061044d565b9050806001600160a01b03163b6000036100fa57604051634c9c8ce360e01b81526001600160a01b0382166004820152602401610130565b6060600080846001600160a01b03168460405161022e9190610468565b600060405180830381855af49150503d8060008114610269576040519150601f19603f3d011682016040523d82523d6000602084013e61026e565b606091505b50909250905061027f8583836102a9565b95945050505050565b34156102a75760405163b398979f60e01b815260040160405180910390fd5b565b6060826102be576102b982610308565b610301565b81511580156102d557506001600160a01b0384163b155b156102fe57604051639996b31560e01b81526001600160a01b0385166004820152602401610130565b50805b9392505050565b8051156103185780518082602001fd5b60405163d6bda27560e01b815260040160405180910390fd5b80516001600160a01b038116811461034857600080fd5b919050565b634e487b7160e01b600052604160045260246000fd5b60005b8381101561037e578181015183820152602001610366565b50506000910152565b6000806040838503121561039a57600080fd5b6103a383610331565b60208401519092506001600160401b038111156103bf57600080fd5b8301601f810185136103d057600080fd5b80516001600160401b038111156103e9576103e961034d565b604051601f8201601f19908116603f011681016001600160401b03811182821017156104175761041761034d565b60405281815282820160200187101561042f57600080fd5b610440826020830160208601610363565b8093505050509250929050565b60006020828403121561045f57600080fd5b61030182610331565b6000825161047a818460208701610363565b9190910192915050565b60805161012761049e6000396000601e01526101276000f3fe6080604052600a600c565b005b60186014601a565b60a0565b565b60007f00000000000000000000000000000000000000000000000000000000000000006001600160a01b0316635c60da1b6040518163ffffffff1660e01b8152600401602060405180830381865afa1580156079573d6000803e3d6000fd5b505050506040513d601f19601f82011682018060405250810190609b919060c3565b905090565b3660008037600080366000845af43d6000803e80801560be573d6000f35b3d6000fd5b60006020828403121560d457600080fd5b81516001600160a01b038116811460ea57600080fd5b939250505056fea2646970667358221220ddb3cb6bf07de3d9ebf0ddfa1f251cc525f9b889ee5133b139d74f1e62fcd4ce64736f6c634300081c0033a26469706673582212201a1e918a43797468ad520c7d76a4b49b0948416f758143dc54d43d5f2efd09e064736f6c634300081c0033",
  "linkReferences": {
    "contracts/libraries/AMMLibrary.sol": {
      "AMMLibrary": [
        {
          "length": 20,
          "start": 746
        },
        {
          "length": 20,
          "start": 1816
        },
        {
          "length": 20,
          "start": 1956
        }
      ]
    }
  },
  "deployedLinkReferences": {
    "contracts/libraries/AMMLibrary.sol": {
      "AMMLibrary": [
        {
          "length": 20,
          "start": 505
        },
        {
          "length": 20,
          "start": 1575
        },
        {
          "length": 20,
          "start": 1715
        }
      ]
    }
  }
}