{
  "_format": "hh-sol-artifact-1",
  "contractName": "GTokenHandler",
  "sourceName": "contracts/test/tokens/GToken/GToken.invariant.sol",
  "abi": [
    {
      "inputs": [
        {
          "internalType": "contract GToken",
          "name": "_gToken",
          "type": "address"
        },
        {
          "components": [
            {
              "internalType": "uint256",
              "name": "genesis",
              "type": "uint256"
            },
            {
              "internalType": "uint256",
              "name": "epochLength",
              "type": "uint256"
            }
          ],
          "internalType": "struct Epochs.Storage",
          "name": "_epochs",
          "type": "tuple"
        },
        {
          "internalType": "address",
          "name": "_owner",
          "type": "address"
        }
      ],
      "stateMutability": "nonpayable",
      "type": "constructor"
    },
    {
      "anonymous": false,
      "inputs": [
        {
          "indexed": false,
          "internalType": "string",
          "name": "",
          "type": "string"
        }
      ],
      "name": "log",
      "type": "event"
    },
    {
      "anonymous": false,
      "inputs": [
        {
          "indexed": false,
          "internalType": "address",
          "name": "",
          "type": "address"
        }
      ],
      "name": "log_address",
      "type": "event"
    },
    {
      "anonymous": false,
      "inputs": [
        {
          "indexed": false,
          "internalType": "uint256[]",
          "name": "val",
          "type": "uint256[]"
        }
      ],
      "name": "log_array",
      "type": "event"
    },
    {
      "anonymous": false,
      "inputs": [
        {
          "indexed": false,
          "internalType": "int256[]",
          "name": "val",
          "type": "int256[]"
        }
      ],
      "name": "log_array",
      "type": "event"
    },
    {
      "anonymous": false,
      "inputs": [
        {
          "indexed": false,
          "internalType": "address[]",
          "name": "val",
          "type": "address[]"
        }
      ],
      "name": "log_array",
      "type": "event"
    },
    {
      "anonymous": false,
      "inputs": [
        {
          "indexed": false,
          "internalType": "bytes",
          "name": "",
          "type": "bytes"
        }
      ],
      "name": "log_bytes",
      "type": "event"
    },
    {
      "anonymous": false,
      "inputs": [
        {
          "indexed": false,
          "internalType": "bytes32",
          "name": "",
          "type": "bytes32"
        }
      ],
      "name": "log_bytes32",
      "type": "event"
    },
    {
      "anonymous": false,
      "inputs": [
        {
          "indexed": false,
          "internalType": "int256",
          "name": "",
          "type": "int256"
        }
      ],
      "name": "log_int",
      "type": "event"
    },
    {
      "anonymous": false,
      "inputs": [
        {
          "indexed": false,
          "internalType": "string",
          "name": "key",
          "type": "string"
        },
        {
          "indexed": false,
          "internalType": "address",
          "name": "val",
          "type": "address"
        }
      ],
      "name": "log_named_address",
      "type": "event"
    },
    {
      "anonymous": false,
      "inputs": [
        {
          "indexed": false,
          "internalType": "string",
          "name": "key",
          "type": "string"
        },
        {
          "indexed": false,
          "internalType": "uint256[]",
          "name": "val",
          "type": "uint256[]"
        }
      ],
      "name": "log_named_array",
      "type": "event"
    },
    {
      "anonymous": false,
      "inputs": [
        {
          "indexed": false,
          "internalType": "string",
          "name": "key",
          "type": "string"
        },
        {
          "indexed": false,
          "internalType": "int256[]",
          "name": "val",
          "type": "int256[]"
        }
      ],
      "name": "log_named_array",
      "type": "event"
    },
    {
      "anonymous": false,
      "inputs": [
        {
          "indexed": false,
          "internalType": "string",
          "name": "key",
          "type": "string"
        },
        {
          "indexed": false,
          "internalType": "address[]",
          "name": "val",
          "type": "address[]"
        }
      ],
      "name": "log_named_array",
      "type": "event"
    },
    {
      "anonymous": false,
      "inputs": [
        {
          "indexed": false,
          "internalType": "string",
          "name": "key",
          "type": "string"
        },
        {
          "indexed": false,
          "internalType": "bytes",
          "name": "val",
          "type": "bytes"
        }
      ],
      "name": "log_named_bytes",
      "type": "event"
    },
    {
      "anonymous": false,
      "inputs": [
        {
          "indexed": false,
          "internalType": "string",
          "name": "key",
          "type": "string"
        },
        {
          "indexed": false,
          "internalType": "bytes32",
          "name": "val",
          "type": "bytes32"
        }
      ],
      "name": "log_named_bytes32",
      "type": "event"
    },
    {
      "anonymous": false,
      "inputs": [
        {
          "indexed": false,
          "internalType": "string",
          "name": "key",
          "type": "string"
        },
        {
          "indexed": false,
          "internalType": "int256",
          "name": "val",
          "type": "int256"
        },
        {
          "indexed": false,
          "internalType": "uint256",
          "name": "decimals",
          "type": "uint256"
        }
      ],
      "name": "log_named_decimal_int",
      "type": "event"
    },
    {
      "anonymous": false,
      "inputs": [
        {
          "indexed": false,
          "internalType": "string",
          "name": "key",
          "type": "string"
        },
        {
          "indexed": false,
          "internalType": "uint256",
          "name": "val",
          "type": "uint256"
        },
        {
          "indexed": false,
          "internalType": "uint256",
          "name": "decimals",
          "type": "uint256"
        }
      ],
      "name": "log_named_decimal_uint",
      "type": "event"
    },
    {
      "anonymous": false,
      "inputs": [
        {
          "indexed": false,
          "internalType": "string",
          "name": "key",
          "type": "string"
        },
        {
          "indexed": false,
          "internalType": "int256",
          "name": "val",
          "type": "int256"
        }
      ],
      "name": "log_named_int",
      "type": "event"
    },
    {
      "anonymous": false,
      "inputs": [
        {
          "indexed": false,
          "internalType": "string",
          "name": "key",
          "type": "string"
        },
        {
          "indexed": false,
          "internalType": "string",
          "name": "val",
          "type": "string"
        }
      ],
      "name": "log_named_string",
      "type": "event"
    },
    {
      "anonymous": false,
      "inputs": [
        {
          "indexed": false,
          "internalType": "string",
          "name": "key",
          "type": "string"
        },
        {
          "indexed": false,
          "internalType": "uint256",
          "name": "val",
          "type": "uint256"
        }
      ],
      "name": "log_named_uint",
      "type": "event"
    },
    {
      "anonymous": false,
      "inputs": [
        {
          "indexed": false,
          "internalType": "string",
          "name": "",
          "type": "string"
        }
      ],
      "name": "log_string",
      "type": "event"
    },
    {
      "anonymous": false,
      "inputs": [
        {
          "indexed": false,
          "internalType": "uint256",
          "name": "",
          "type": "uint256"
        }
      ],
      "name": "log_uint",
      "type": "event"
    },
    {
      "anonymous": false,
      "inputs": [
        {
          "indexed": false,
          "internalType": "bytes",
          "name": "",
          "type": "bytes"
        }
      ],
      "name": "logs",
      "type": "event"
    },
    {
      "inputs": [],
      "name": "epochs",
      "outputs": [
        {
          "internalType": "uint256",
          "name": "genesis",
          "type": "uint256"
        },
        {
          "internalType": "uint256",
          "name": "epochLength",
          "type": "uint256"
        }
      ],
      "stateMutability": "view",
      "type": "function"
    },
    {
      "inputs": [],
      "name": "failed",
      "outputs": [
        {
          "internalType": "bool",
          "name": "",
          "type": "bool"
        }
      ],
      "stateMutability": "view",
      "type": "function"
    },
    {
      "inputs": [],
      "name": "gToken",
      "outputs": [
        {
          "internalType": "contract GToken",
          "name": "",
          "type": "address"
        }
      ],
      "stateMutability": "view",
      "type": "function"
    },
    {
      "inputs": [],
      "name": "ghost_burnedStakeWeight",
      "outputs": [
        {
          "internalType": "uint256",
          "name": "",
          "type": "uint256"
        }
      ],
      "stateMutability": "view",
      "type": "function"
    },
    {
      "inputs": [],
      "name": "ghost_burnedSupply",
      "outputs": [
        {
          "internalType": "uint256",
          "name": "",
          "type": "uint256"
        }
      ],
      "stateMutability": "view",
      "type": "function"
    },
    {
      "inputs": [],
      "name": "ghost_mintedStakeWeight",
      "outputs": [
        {
          "internalType": "uint256",
          "name": "",
          "type": "uint256"
        }
      ],
      "stateMutability": "view",
      "type": "function"
    },
    {
      "inputs": [],
      "name": "ghost_mintedSupply",
      "outputs": [
        {
          "internalType": "uint256",
          "name": "",
          "type": "uint256"
        }
      ],
      "stateMutability": "view",
      "type": "function"
    },
    {
      "inputs": [
        {
          "internalType": "address",
          "name": "to",
          "type": "address"
        },
        {
          "internalType": "uint256",
          "name": "rewardPerShare",
          "type": "uint256"
        },
        {
          "internalType": "uint256",
          "name": "epochsLocked",
          "type": "uint256"
        },
        {
          "components": [
            {
              "internalType": "address",
              "name": "token0",
              "type": "address"
            },
            {
              "internalType": "address",
              "name": "token1",
              "type": "address"
            },
            {
              "internalType": "uint256",
              "name": "liquidity",
              "type": "uint256"
            },
            {
              "internalType": "uint256",
              "name": "liqValue",
              "type": "uint256"
            },
            {
              "internalType": "address",
              "name": "pair",
              "type": "address"
            }
          ],
          "internalType": "struct LiquidityInfo",
          "name": "lpDetails",
          "type": "tuple"
        }
      ],
      "name": "mintGToken",
      "outputs": [],
      "stateMutability": "nonpayable",
      "type": "function"
    },
    {
      "inputs": [
        {
          "internalType": "uint256",
          "name": "secs",
          "type": "uint256"
        }
      ],
      "name": "moveTime",
      "outputs": [],
      "stateMutability": "nonpayable",
      "type": "function"
    },
    {
      "inputs": [
        {
          "internalType": "uint256",
          "name": "toIndex",
          "type": "uint256"
        },
        {
          "internalType": "uint256",
          "name": "nonceIndex",
          "type": "uint256"
        },
        {
          "internalType": "address[]",
          "name": "addresses",
          "type": "address[]"
        },
        {
          "internalType": "uint256[]",
          "name": "liquidityPortions",
          "type": "uint256[]"
        }
      ],
      "name": "split",
      "outputs": [],
      "stateMutability": "nonpayable",
      "type": "function"
    }
  ],
  "bytecode": "0x608060405234801561001057600080fd5b5060405161178938038061178983398101604081905261002f9161018c565b60088054610100600160a81b0319166101006001600160a01b03868116820292909217928390558451600955602080860151600a55600b80546001600160a01b0319168685161790556040805163626e0f8360e01b81529051929094049092169263626e0f839260048083019391928290030181865afa1580156100b7573d6000803e3d6000fd5b505050506040513d601f19601f820116820180604052508101906100db919061021e565b600c81905550600860019054906101000a90046001600160a01b03166001600160a01b03166318160ddd6040518163ffffffff1660e01b8152600401602060405180830381865afa158015610134573d6000803e3d6000fd5b505050506040513d601f19601f82011682018060405250810190610158919061021e565b600e5550610237915050565b6001600160a01b038116811461017957600080fd5b50565b805161018781610164565b919050565b600080600083850360808112156101a257600080fd5b84516101ad81610164565b93506040601f19820112156101c157600080fd5b50604080519081016001600160401b03811182821017156101f257634e487b7160e01b600052604160045260246000fd5b60409081526020868101518352908601519082015291506102156060850161017c565b90509250925092565b60006020828403121561023057600080fd5b5051919050565b611543806102466000396000f3fe608060405234801561001057600080fd5b506004361061009e5760003560e01c806376ffb9bd1161006657806376ffb9bd14610113578063ba414fa614610143578063c6cf5df51461015b578063e522a5c914610164578063fba8773d1461016d57600080fd5b80633625dc82146100a35780633dee763d146100bf57806358152d07146100c857806365ce3028146100eb578063702aba8814610100575b600080fd5b6100ac600e5481565b6040519081526020015b60405180910390f35b6100ac600f5481565b600954600a546100d6919082565b604080519283526020830191909152016100b6565b6100fe6100f9366004610f02565b610180565b005b6100fe61010e366004610fe9565b610257565b60085461012b9061010090046001600160a01b031681565b6040516001600160a01b0390911681526020016100b6565b61014b610744565b60405190151581526020016100b6565b6100ac600d5481565b6100ac600c5481565b6100fe61017b36600461111d565b610803565b604051632631f2b160e11b815263058fd40082111560048201526000805160206114ee83398151915290634c63e5629060240160006040518083038186803b1580156101cb57600080fd5b505afa1580156101df573d6000803e3d6000fd5b506000805160206114ee833981519152925063e5d6bf02915061020490508342611211565b6040518263ffffffff1660e01b815260040161022291815260200190565b600060405180830381600087803b15801561023c57600080fd5b505af1158015610250573d6000803e3d6000fd5b5050505050565b606081015181906000805160206114ee83398151915290634c63e5629060ff10801561029a5750610292677ce66c50e284000060001961123a565b836060015111155b6040518263ffffffff1660e01b81526004016102ba911515815260200190565b60006040518083038186803b1580156102d257600080fd5b505afa1580156102e6573d6000803e3d6000fd5b50505060408201516000805160206114ee8339815191529150634c63e5629060ff10801561032b5750610323677ce66c50e284000060001961123a565b836040015111155b6040518263ffffffff1660e01b815260040161034b911515815260200190565b60006040518083038186803b15801561036357600080fd5b505afa158015610377573d6000803e3d6000fd5b5050604051632631f2b160e11b815261043886111560048201528592506000805160206114ee8339815191529150634c63e5629060240160006040518083038186803b1580156103c657600080fd5b505afa1580156103da573d6000803e3d6000fd5b5050505060b46103ea6009610dda565b101561045157604051632631f2b160e11b815260b482101560048201526000805160206114ee83398151915290634c63e5629060240160006040518083038186803b15801561043857600080fd5b505afa15801561044c573d6000803e3d6000fd5b505050505b6000805160206114ee833981519152634c63e5626001600160a01b0388161580159061048857506104d2886001600160a01b031611155b6040518263ffffffff1660e01b81526004016104a8911515815260200190565b60006040518083038186803b1580156104c057600080fd5b505afa1580156104d4573d6000803e3d6000fd5b5050600b5460405163ca669fa760e01b81526001600160a01b0390911660048201526000805160206114ee833981519152925063ca669fa79150602401600060405180830381600087803b15801561052b57600080fd5b505af115801561053f573d6000803e3d6000fd5b505060085460408051630e05575160e31b81526001600160a01b038b81166004830152602482018b9052604482018a90528851811660648301526020890151811660848301529188015160a4820152606088015160c48201526080880151821660e48201526000945061010090920416915063702aba8890610104016020604051808303816000875af11580156105da573d6000803e3d6000fd5b505050506040513d601f19601f820116820180604052508101906105fe919061124e565b90507f885cb69240a935d632d79c317109709ecfa91a80626ff3989d68f67f5b1dd12d60001c6001600160a01b03166390c5013b6040518163ffffffff1660e01b8152600401600060405180830381600087803b15801561065e57600080fd5b505af1158015610672573d6000803e3d6000fd5b50506008546040516326ca8adb60e01b8152600093506101009091046001600160a01b031691506326ca8adb906106af908b908690600401611267565b6101a060405180830381865afa1580156106cd573d6000803e3d6000fd5b505050506040513d601f19601f820116820180604052508101906106f19190611280565b90506106fe601089610dec565b50806060015160800151600c60008282546107199190611211565b90915550506020810151600e8054600090610735908490611211565b90915550505050505050505050565b60085460009060ff161561075c575060085460ff1690565b604051630667f9d760e41b81526000906000805160206114ee8339815191529063667f9d70906107bb907f885cb69240a935d632d79c317109709ecfa91a80626ff3989d68f67f5b1dd12d906519985a5b195960d21b90600401611267565b602060405180830381865afa1580156107d8573d6000803e3d6000fd5b505050506040513d601f19601f820116820180604052508101906107fc919061124e565b1415905090565b838360006108116010610e08565b1161081c573361083b565b61083b6108296010610e08565b6108339084611386565b601090610e12565b601280546001600160a01b0319166001600160a01b03928316908117909155600854604051635124ae9560e01b815260048101929092526000926101009091041690635124ae9590602401600060405180830381865afa1580156108a3573d6000803e3d6000fd5b505050506040513d6000823e601f3d908101601f191682016040526108cb919081019061139a565b80519091501561090257808151836108e39190611386565b815181106108f3576108f3611430565b60200260200101516013819055505b84516000805160206114ee83398151915290634c63e562901580159061092a57506003875111155b6040518263ffffffff1660e01b815260040161094a911515815260200190565b60006040518083038186803b15801561096257600080fd5b505afa158015610976573d6000803e3d6000fd5b505085518751604051632631f2b160e11b8152911460048201526000805160206114ee8339815191529250634c63e562915060240160006040518083038186803b1580156109c357600080fd5b505afa1580156109d7573d6000803e3d6000fd5b5050505060135460000315610dbc576008546012546013546040516326ca8adb60e01b815260009361010090046001600160a01b03908116936326ca8adb93610a27939290911691600401611267565b6101a060405180830381865afa158015610a45573d6000803e3d6000fd5b505050506040513d601f19601f82011682018060405250810190610a699190611280565b606081015160a001516040015190915060005b8751811015610ae6576000878281518110610a9957610a99611430565b6020026020010151905082811115610ad0576000888381518110610abf57610abf611430565b602002602001018181525050610add565b610ada8184611446565b92505b50600101610a7c565b5060125460405163ca669fa760e01b81526001600160a01b0390911660048201526000805160206114ee8339815191529063ca669fa790602401600060405180830381600087803b158015610b3a57600080fd5b505af1158015610b4e573d6000803e3d6000fd5b5050600854601354604051621049ed60e41b8152600094506101009092046001600160a01b031692506301049ed091610b8e91908c908c90600401611459565b6000604051808303816000875af1158015610bad573d6000803e3d6000fd5b505050506040513d6000823e601f3d908101601f19168201604052610bd5919081019061139a565b9050826060015160800151600d6000828254610bf19190611211565b90915550506020830151600f8054600090610c0d908490611211565b925050819055507f885cb69240a935d632d79c317109709ecfa91a80626ff3989d68f67f5b1dd12d60001c6001600160a01b03166390c5013b6040518163ffffffff1660e01b8152600401600060405180830381600087803b158015610c7257600080fd5b505af1158015610c86573d6000803e3d6000fd5b5050505060005b8151811015610db7576000828281518110610caa57610caa611430565b602002602001015190506000811115610dae5760008a8381518110610cd157610cd1611430565b602002602001015190506000600860019054906101000a90046001600160a01b03166001600160a01b03166326ca8adb83856040518363ffffffff1660e01b8152600401610d20929190611267565b6101a060405180830381865afa158015610d3e573d6000803e3d6000fd5b505050506040513d601f19601f82011682018060405250810190610d629190611280565b9050610d6f601083610dec565b50806060015160800151600c6000828254610d8a9190611211565b90915550506020810151600e8054600090610da6908490611211565b909155505050505b50600101610c8d565b505050505b5050601280546001600160a01b031916905550506000601355505050565b6000610de68242610e1e565b92915050565b6000610e01836001600160a01b038416610e89565b9392505050565b6000610de6825490565b6000610e018383610ed8565b600080836001015411610e6e5760405162461bcd60e51b8152602060048201526014602482015273092dcecc2d8d2c8408ae0dec6d040d8cadccee8d60631b604482015260640160405180910390fd5b60018301548354610e7f9084611446565b610e01919061123a565b6000818152600183016020526040812054610ed057508154600181810184556000848152602080822090930184905584548482528286019093526040902091909155610de6565b506000610de6565b6000826000018281548110610eef57610eef611430565b9060005260206000200154905092915050565b600060208284031215610f1457600080fd5b5035919050565b6001600160a01b0381168114610f3057600080fd5b50565b634e487b7160e01b600052604160045260246000fd5b60405160a0810167ffffffffffffffff81118282101715610f6c57610f6c610f33565b60405290565b6040516080810167ffffffffffffffff81118282101715610f6c57610f6c610f33565b60405160c0810167ffffffffffffffff81118282101715610f6c57610f6c610f33565b604051601f8201601f1916810167ffffffffffffffff81118282101715610fe157610fe1610f33565b604052919050565b60008060008084860361010081121561100157600080fd5b853561100c81610f1b565b9450602086013593506040860135925060a0605f198201121561102e57600080fd5b50611037610f49565b606086013561104581610f1b565b8152608086013561105581610f1b565b602082015260a0860135604082015260c0860135606082015260e086013561107c81610f1b565b6080820152939692955090935050565b600067ffffffffffffffff8211156110a6576110a6610f33565b5060051b60200190565b600082601f8301126110c157600080fd5b81356110d46110cf8261108c565b610fb8565b8082825260208201915060208360051b8601019250858311156110f657600080fd5b602085015b838110156111135780358352602092830192016110fb565b5095945050505050565b6000806000806080858703121561113357600080fd5b8435935060208501359250604085013567ffffffffffffffff81111561115857600080fd5b8501601f8101871361116957600080fd5b80356111776110cf8261108c565b8082825260208201915060208360051b85010192508983111561119957600080fd5b6020840193505b828410156111c45783356111b381610f1b565b8252602093840193909101906111a0565b9450505050606085013567ffffffffffffffff8111156111e357600080fd5b6111ef878288016110b0565b91505092959194509250565b634e487b7160e01b600052601160045260246000fd5b80820180821115610de657610de66111fb565b634e487b7160e01b600052601260045260246000fd5b60008261124957611249611224565b500490565b60006020828403121561126057600080fd5b5051919050565b6001600160a01b03929092168252602082015260400190565b60008183036101a08112801561129557600080fd5b5060006112a0610f72565b845181526020808601519082015260408086015190820152610140605f19840112156112ca578182fd5b6112d2610f95565b6060868101518252608080880151602084015260a080890151604085015260c08901519284019290925260e08801519083015260ff1985011215611314578283fd5b61131c610f49565b935061010086015161132d81610f1b565b845261012086015161133e81610f1b565b602085015261014086015160408501526101608601516060850152610180860151925061136a83610f1b565b608084019290925260a082019290925260608201529392505050565b60008261139557611395611224565b500690565b6000602082840312156113ac57600080fd5b815167ffffffffffffffff8111156113c357600080fd5b8201601f810184136113d457600080fd5b80516113e26110cf8261108c565b8082825260208201915060208360051b85010192508683111561140457600080fd5b6020840193505b8284101561142657835182526020938401939091019061140b565b9695505050505050565b634e487b7160e01b600052603260045260246000fd5b81810381811115610de657610de66111fb565b6000606082018583526060602084015280855180835260808501915060208701925060005b818110156114a55783516001600160a01b031683526020938401939092019160010161147e565b505083810360408501528451808252602091820192509085019060005b818110156114e05782518452602093840193909201916001016114c2565b509197965050505050505056fe0000000000000000000000007109709ecfa91a80626ff3989d68f67f5b1dd12da264697066735822122096c6291630348bcd229544deabd93f1c8e5c1a63dffe9f05cb73410812825ffc64736f6c634300081c0033",
  "linkReferences": {},
  "deployedLinkReferences": {}
}